:100000000C947A030C9497030C9497030C94970325
:100010000C9497030C9497030C9497030C949703F8
:100020000C9497030C9497030C9438170C94741643
:100030000C949D1A0C9497030C9497030C949703BB
:100040000C9497030C9497030C9497030C949703C8
:100050000C9497030C942B1A0C9497030C9497030D
:100060000C9497030C9497030C9497030C949703A8
:100070000C9497030C9497030C9497030C94970398
:100080000C9497030C9497030C9497030C94970388
:100090000C9497030C9497030C9497030C94970378
:1000A0000C9497030C9497030C949703920794076E
:1000B0009F07960798079A079C079E07A107A30723
:1000C000A507B007A707A907AB07AD07AF07B2079A
:1000D0005408540892089208CE08EE08D00A290B5A
:1000E0003009290B2D0A2D0A3A0A3A0A3A0A3A0A25
:1000F0003A0A3A0A3A0A3A0A3A0A3A0A3A0A3A0AE0
:100100003A0A3A0A3A0A3A0A4B0A730A780A7F0A02
:10011000970AEE0BF10BF40BF70BFA0BFD0B000C2F
:100120008514AC144C16AC144C16F41417154C165C
:1001300015162816D51CDA1CE41CD81CDD1CE21C84
:10014000E01C272527253A253A2530253A253A254A
:100150003A252725272535253A253A25352529000D
:100160002B000061E100A80000001E001400040044
:100170001D00A9002D001F001A0016001B00AA0078
:10018000E300200008000700060050002C002100BA
:1001900015000900190052002E00220017000A0065
:1001A000050000006564340001510000000F0000EC
:1001B000E3004C000151000000070000E2002300B2
:1001C0001C000B00110000002961240018000D0024
:1001D000100051004B0025000C000E0036004F00AF
:1001E0002C00260012000F0037002F00E700270028
:1001F00013003342387130004E002A0031002800CD
:10020000E5004C0000003500010001000100010084
:1002100000003A001E02200222020100F95C3B00AD
:100220001F02210223020100C95C3C002F022602AA
:100230002F000100CA5C3D0030022702300001009F
:10024000F85C3E003102350035020000C35C01005D
:100250000100000001000000F75C01000100000047
:1002600001000000C25C3F00520051002402000067
:10027000F45C4000240021001E0001000100410048
:10028000250022001F003700C55C42002600230025
:1002900020002700C65C430025022E0231002E00FC
:1002A00001004400450001000100010000000100C0
:1002B0000100010001000100000001000100010037
:1002C00001000100010001000100F2000100010035
:1002D00001000100F000F1000100F4000100010044
:1002E0000100F3000100F500010001000100010020
:1002F00001000000010001000100000001000000F9
:1003000001000100010000000100000001000100E7
:1003100001000100010000000100010001000100D6
:100320000100A9000100010001000100AC00AA00C9
:10033000B600010001000100AB00A80001000100AF
:100340000100010001000100010001000100AE00F8
:10035000010001000000000000000000000000009B
:100360000101010101010101010202020202020276
:100370000203030303030303040404040405050543
:100380000505060606060607070707080808080900
:1003900009090A0A0A0B0B0B0C0C0C0D0D0D0E0EA5
:1003A0000E0F0F1010101111121213131414151533
:1003B00016161717181819191A1A1B1C1C1D1D1EA2
:1003C0001F1F2021212223232425252627282829F1
:1003D0002A2B2C2C2D2E2F30313132333435363719
:1003E00038393A3B3C3D3E3F404142434445464715
:1003F00048494B4C4D4E4F50525354555758595AEB
:100400005C5D5E606163646567686A6B6C6E6F718A
:1004100072747677797A7C7D7F8182848687898BF6
:100420008D8E9092949597999B9D9FA1A2A4A6A82A
:10043000AAACAEB0B2B4B6B9BBBDBFC1C3C5C8CA21
:10044000CCCED0D3D5D7DADCDEE1E3E6E8EAEDEFD7
:10045000F2F4F7F9FCFFFFAA7F554005010902A15C
:100460000185020901A100050919012905150025C9
:100470000195057501810295017503810105010949
:100480003009311581257F950275088106093815D7
:1004900081257F950175088106050C0A38021581B2
:1004A000257F950175088106C0C005010980A1015D
:1004B00085031601002603001A81002A83007510A7
:1004C00095018100C0050C0901A1018504160100F8
:1004D000269C021A01002A9C02751095018100C019
:1004E00005010906A1018505050719E029E71500A1
:1004F0002501950875018102050819012905950551
:10050000750191029501750391010507190029EF05
:100510001500250195F075018102C005010906A1AC
:1005200001050719E029E7150025019508750181E6
:1005300002950175088101050819012905950575C0
:100540000191029501750391010507190029FF1515
:100550000026FF00950675088100C009023B0002D5
:100560000100A0FA090400000103010100092111A2
:100570000100012240000705810308000A09040167
:1005800000010300000009211101000122C0000741
:1005900005820320000A1201100100000008EDFE90
:1005A00007130100010203010403300000001603D9
:1005B0004500720067006F0044006F007800200063
:1005C00045005A00000016034500720067006F00E6
:1005D00044006F007800200045005A00000004032A
:1005E000090400047F3F1F643214643214783C1EF7
:1005F0001E140A052223252628292A2C2D2F3032C5
:10060000333536383A3B3D3E4042434547494A4CF4
:100610004E5051535557595A5C5E60626466686922
:100620006B6D6F71737577797B7D7F81838587892A
:100630008A8C8E90929496989A9C9E9FA1A3A5A72F
:10064000A8AAACAEAFB1B3B4B6B8B9BBBCBEBFC15B
:10065000C2C3C5C6C7C9CACBCCCDCED0D1D2D2D3E6
:10066000D4D5D6D7D7D8D9D9DADADBDBDBDCDCDCFA
:10067000DCDCDDDDDDDDDCDCDCDCDCDBDBDBDADABD
:10068000D9D9D8D7D7D6D5D4D3D2D2D1D0CECDCC34
:10069000CBCAC9C7C6C5C3C2C1BFBEBCBBB9B8B649
:1006A000B4B3B1AFAEACAAA8A7A5A3A19F9E9C9AD4
:1006B00098969492908E8C8A89878583817F7D7BA2
:1006C00079777573716F6D6B6968666462605E5C83
:1006D0005A5957555351504E4C4A49474543424049
:1006E0003E3D3B3A3836353332302F2D2C2A2928DF
:1006F0002625232211241FBECFEFDAE0DEBFCDBFB7
:1007000011E0A0E0B1E0E2E2F5E502C005900D9253
:10071000AE3EB107D9F723E0AEEEB1E001C01D92C5
:10072000AE36B207E1F70E945A1E0C948F2A0C9441
:1007300000008F929F92AF92BF92CF92DF92EF9282
:10074000FF920F931F93CF93DF93CDB7DEB7289718
:100750000FB6F894DEBF0FBECDBFFC01F080118153
:1007600083819481892B09F4ABC71F3F21F40FEFDC
:10077000F01609F4A5C76F0185E0DE01119601901E
:100780000D928A95E1F7F601228189819A812223CF
:1007900049F00E94D21B082F682F89819A810E94FC
:1007A0004B1C03C00E941E1C082F26E0129FF00164
:1007B000112434E5039FE00DF11D1124EF0DF11D0F
:1007C000EE0FFF1FE25AFE4F05911491F601828150
:1007D000073FFCE51F07D9F048F4043F3CE5130749
:1007E00091F0063F9CE5190751F0B7C0083FECE5D2
:1007F0001E07D1F0093FFCE51F07B1F1AEC0882309
:1008000009F45EC763C0882309F45AC77AC08823F5
:1008100009F456C70E94D60E81E00E94D30E21E053
:100820004FEF6FEF8CEA0CC0882309F449C70E9490
:10083000D60E81E00E94D30E21E040E86FEF86E5FE
:1008400028960FB6F894DEBF0FBECDBFDF91CF91D3
:100850001F910F91FF90EF90DF90CF90BF90AF90DE
:100860009F908F900C94F50D882309F429C70E945E
:10087000D60E81E00E94D30E21E04FEF6FEF8BE1A7
:10088000DFCF1092EF01F60192810A3CFCE51F07D1
:1008900009F49AC208F446C1013D2CE5120709F497
:1008A000E7C240F1053DECE51E0709F407C308F473
:1008B0007DC10D3D8CE5180709F40BC30E3DECE539
:1008C0001E0709F07BC1992309F4FAC628960FB6D2
:1008D000F894DEBF0FBECDBFDF91CF911F910F9176
:1008E000FF90EF90DF90CF90BF90AF909F908F9050
:1008F0000C94341B0D3C8CE5180729F4992309F45A
:10090000DFC681E016C00E3CECE51E0708F444C1CA
:100910000F3C3CE5130709F495C208F09EC29923E9
:1009200009F4CEC60E94F30C8250833008F4FFC154
:1009300082E028960FB6F894DEBF0FBECDBFDF91E0
:10094000CF911F910F91FF90EF90DF90CF90BF90CC
:10095000AF909F908F900C94D30E882319F1033E93
:100960002CE51207C1F050F4013E8CE5180781F028
:10097000023E9CE51907B1F481E010C0043EECE5AD
:100980001E0759F0053EFCE51F0761F484E006C030
:100990001092C80205C082E001C083E08093C802C3
:1009A0000E94F10E17FF73C0F6018281882309F4BB
:1009B0006EC08091F7018093EE011092F701809153
:1009C000C802813071F048F08230D1F08430F1F407
:1009D00086EE0E94B22788E117C082EE0E94C527EA
:1009E00015C086EA9BE00E945D1388E10E94C5273E
:1009F00088E10E944B2786E99BE00E945D1306C0B8
:100A000082EE0E94C52787E50E94B2278FE39CE90A
:100A10000197F1F700C000007801E894F7F85CE076
:100A2000A52EB12CC7010A2C02C0969587950A9471
:100A3000E2F7282F2F7041F0822F90E02A3010F437
:100A40004D9604C0069702C087E290E00E94B2274C
:100A500094E0A91AB108ECEFAE16EFEFBE0611F75D
:100A60008091C802813039F040F0823031F084301A
:100A700051F488E206C08CE204C082EE0E944B274B
:100A800002C00E94B2278091EE018093F701003FDF
:100A9000FCE51F07C1F188F4083D3CE51307D9F0D8
:100AA000093D8CE51807D9F1073D9CE5190709F0C8
:100AB000E8CE26E241EE61EE11C0023FECE51E07F2
:100AC00051F128F1033F2CE5120709F0DACE27E2B5
:100AD00046EE66EE03C027E245EE65EEC6012896B7
:100AE0000FB6F894DEBF0FBECDBFDF91CF911F913F
:100AF0000F91FF90EF90DF90CF90BF90AF909F90BD
:100B00008F900C94352426E240EE60EEE7CF27E28A
:100B100044EE64EEE3CF26E242EE62EEDFCF28E25F
:100B200041E0DBCF033C3CE5130709F4DEC0E0F411
:100B30000531ECE51E0770F40230FCE51F0708F0F4
:100B4000CFC101152CE51207F1F101301C4509F464
:100B50007CC061C206318CE5180709F428C2023C4A
:100B60001C4509F47BC057C2063CFCE51F0709F48D
:100B7000FEC050F4043C3CE5130709F4D1C0053C29
:100B80001C4509F4E8C047C2083CECE51E0709F41F
:100B900004C108F4F8C00EC10B3CFCE51F0709F4C2
:100BA00022C10C3C1C4509F427C135C2033D2CE58C
:100BB000120709F473C108F466C175C10C3D1C45E8
:100BC00009F029C280C1992309F47AC51092F7016E
:100BD0000E9423270FEF14E32CE001501040204027
:100BE000E1F700C00000F89481E08093E00080E22B
:100BF0008093D8001092C9008FE19EE40197F1F72D
:100C000000C000001DBA109268001CBC10BE1FBAC4
:100C100010927A0010926E0010926F001092710084
:100C2000109272001092C9001092BC0014B817B84C
:100C30001AB81DB810BA1092BC0015B818B81BB875
:100C40001EB811BA0C94003F3BC5992309F438C56E
:100C50008091F80281608093F80232C5992309F4EB
:100C60002FC580910D0380FF2CC08E7F80930D03D4
:100C700060910D0370910E0380910F03909110030A
:100C80000E940E0D109213039FEFE0E7F2E09150E7
:100C9000E040F040E1F700C0000028960FB6F8945D
:100CA000DEBF0FBECDBFDF91CF911F910F91FF909F
:100CB000EF90DF90CF90BF90AF909F908F900C946B
:100CC0005D0C28960FB6F894DEBF0FBECDBFDF9146
:100CD000CF911F910F91FF90EF90DF90CF90BF9039
:100CE000AF909F908F900C94D60E992309F4E8C48E
:100CF0008091F7018272D9F028960FB6F894DEBF82
:100D00000FBECDBFDF91CF911F910F91FF90EF905C
:100D1000DF90CF90BF90AF909F908F900C94DE0E9D
:100D2000992309F4CDC48091F701827229F32896A2
:100D30000FB6F894DEBF0FBECDBFDF91CF911F91EC
:100D40000F91FF90EF90DF90CF90BF90AF909F906A
:100D50008F900C94E70E992309F4B2C480910E038E
:100D600021E04091100360910F03845F69CD9923C6
:100D700009F4A6C480910E0321E040911003609114
:100D80000F038C505DCD992309F49AC460910F0331
:100D90002FEF620F08F46FEF09C0992309F490C494
:100DA00060910F032FEF621B08F460E021E0409197
:100DB000100316C0992309F483C4409110032CE05A
:100DC000420F08F44FEF09C0992309F479C4409108
:100DD00010032CE0421B08F440E021E060910F0377
:100DE00080910E032DCD992309F46AC480911103DB
:100DF000833060F48F5F08C0992309F461C4809147
:100E00001103882319F081508093110360910D0321
:100E100070910E0380910F039091100328960FB6E6
:100E2000F894DEBF0FBECDBFDF91CF911F910F9120
:100E3000FF90EF90DF90CF90BF90AF909F908F90FA
:100E40000C940E0D992309F43BC40E94F30C8650B8
:100E5000823008F46CCF86E06CCD992309F430C45D
:100E60000E94F30C8950853008F461CF89E061CD90
:100E7000992309F425C40E94F30C8F50853008F49F
:100E800056CF8FE056CD992309F41AC40E94F30C73
:100E90008551823008F44BCF85E14BCD992309F47D
:100EA0000FC488E146CD992309F40AC40E94F30CCB
:100EB0008951893008F43BCF89E13BCD992309F46E
:100EC000FFC383E236CD992309F4FAC310921403C9
:100ED000F7C3992309F4F4C382E080931403F0C3A9
:100EE000992309F498C00E94291B811102C00E9415
:100EF000341B84E090E00E94DF2890E09093DB02B6
:100F00008093DA02F801E350FC45E231F10530F458
:100F1000EA5AFF4F8091DA020C944F298091DA024D
:100F2000816027C0826025C0846023C0806121C0A9
:100F300080621FC080641DC080681BC084608860A0
:100F400018C08E7F16C08D7F14C08B7F12C08F7E1D
:100F500010C08F7D0EC08F7B0CC08F770AC08B7F37
:100F6000877F07C087FB222720F991E0922790FB1B
:100F700087F98093DA026091DA0284E090E00E94BF
:100F8000F3281092F70128960FB6F894DEBF0FBE33
:100F9000CDBFDF91CF911F910F91FF90EF90DF9028
:100FA000CF90BF90AF909F908F900C94232780910B
:100FB000F701992389F0982F9A7A81E009F480E06B
:100FC0008093F001811102C069E201C065E386E20D
:100FD00092E00E94F11A0BC08091F001811102C0D1
:100FE00069E201C065E386E292E00E94C61A289693
:100FF0000FB6F894DEBF0FBECDBFDF91CF911F912A
:101000000F91FF90EF90DF90CF90BF90AF909F90A7
:101010008F900C948C1BF60100811181992349F06B
:10102000C8010E94D21BF82E682FC8010E944B1CD9
:1010300004C0C8010E941E1CF82EB8018F2D0E940A
:10104000F70E182F382FF601258122952F70028177
:1010500001111092BB028091B9028770A9F00023A0
:1010600099F080E2810F883078F082E02F83388712
:101070009E830E94171D8091B9028770EE24E3942D
:101080002F8138859E818111E12CA92EA2944FE0F9
:10109000A422B12CFCE0AF16B10408F0DAC2F501CD
:1010A000E859FF4F0C944F29892F807F9F70F92EAC
:1010B000882319F0F29480EFF8220023B9F0FF2082
:1010C00009F458C280E2810F883010F0311106C057
:1010D0009091F701F92AF092F70105C09091BB02B7
:1010E000F92AF092BB020E948C1B44C2812F3887E0
:1010F0000E944B273885FF2009F4ABC2105EF094A4
:10110000183010F0311106C09091F701F922F092D9
:10111000F70105C09091BB02F922F092BB020E9438
:101120008C1B97C2492F407F892F8F70403211F05E
:101130008295807F332319F03130E9F025C00023F8
:1011400081F03091BC02222351F0213041F4982FDC
:10115000932B391709F47DC29093BC027AC2832B7A
:1011600091C1222319F0213009F473C28E830E94A9
:10117000861B8E818DC1002321F0223008F069C2C8
:1011800081C1211166C284C1002321F0222309F408
:1011900079C1F0C1222309F47BC1FEC1292F269514
:1011A0002695237030E02115310521F021303105DD
:1011B00059F04FC2002319F0812F937002C080E0D4
:1011C00090E00E94132453C2002319F0812F9370E2
:1011D00002C080E090E00E94FD2349C20023F9F0A4
:1011E000153F51F0163F71F0143FA9F48091F101C1
:1011F0009091F20181600BC08091F1019091F20118
:10120000826005C08091F1019091F2018460909319
:10121000F2018093F101812F0E94C3191EC0153F76
:1012200051F0163F71F0143FA9F48091F1019091B3
:10123000F2018E7F0BC08091F1019091F2018D7FC0
:1012400005C08091F1019091F2018B7F9093F201A2
:101250008093F101812F0E94F9180E94871A07C21A
:10126000892F837009F079C00111FFC1812F829508
:1012700086958770880F880F412F4F7050E060E08F
:1012800070E04A015B01082E04C0880C991CAA1C5E
:10129000BB1C0A94D2F714FF14C04FE050E060E08A
:1012A00070E08A019B0104C0000F111F221F331F31
:1012B0008A95D2F7B901A80140955095609570952F
:1012C00003C040E050E0BA01969596959370892F3F
:1012D00090E00091BD021091BE022091BF023091BA
:1012E000C00282309105A9F083309105E9F00197A1
:1012F00059F0482959296A297B29CB01BA01602371
:1013000071238223932326C0802A912AA22AB32AFA
:101310001BC0482959296A297B29CB01BA016027BA
:1013200071278227932716C0CB01BA01602371234E
:10133000822393230E94511D4091BD025091BE0211
:101340006091BF027091C002CB01BA01682979296E
:101350008A299B290E94511D88C1002319F0892FD9
:10136000817001C08695882309F47FC1812F829501
:1013700086958770880F880F412F4F7050E060E08E
:1013800070E04A015B01082E04C0880C991CAA1C5D
:10139000BB1C0A94D2F714FF14C04FE050E060E089
:1013A00070E08A019B0104C0000F111F221F331F30
:1013B0008A95D2F7B901A80140955095609570952E
:1013C00003C040E050E0BA01969596959370892F3E
:1013D00090E00091B5021091B6022091B7023091D1
:1013E000B80282309105A9F083309105E9F00197A8
:1013F00059F0482959296A297B29CB01BA01602370
:1014000071238223932326C0802A912AA22AB32AF9
:101410001BC0482959296A297B29CB01BA016027B9
:1014200071278227932716C0CB01BA01602371234D
:10143000822393230E947B1C4091B5025091B602F7
:101440006091B7027091B802CB01BA01682979297D
:101450008A299B290E947B1C08C1412F50E0FA0178
:10146000E05EF109E531F10508F07FC0EC58FF4F6F
:101470000C944F291F70892F8F71002331F00E9427
:10148000301D812F0E944127E4C00E94F21C812F51
:101490000E943627DEC0002311F12111DAC0292F66
:1014A0002F7181E090E0A0E0B0E0AC01BD0104C08C
:1014B000440F551F661F771F2A95D2F78091B502FA
:1014C0009091B602A091B702B091B8028A019B0137
:1014D000082719272A273B27C901B80125C0223030
:1014E00008F0B7C0DCCF002329F0892F8F712EC000
:1014F0000023D9F3892F8F710E94F21CAAC0002308
:1015000081F0292F2F7181E090E0A0E0B0E0BC01D4
:10151000CD0104C0660F771F881F991F2A95D2F747
:1015200003C060E070E0CB010E947B1C92C00023EE
:1015300081F0192F1F71812F0E94301D28E0129F0A
:10154000C001112483608093B902812F0E94301D55
:1015500080C081E02F830E94171D2F81223008F464
:1015600078C082E00E94171D74C0002339F0222346
:1015700009F4BBCF812F0E94C5276BC0222309F439
:10158000B9CF193349F43FEF83EC99E031508040F3
:101590009040E1F700C00000812F0E944B2759C006
:1015A000323FB1F028F4303F49F0313FF9F028C024
:1015B000343FB9F058F0353F71F022C0002309F4F0
:1015C00056C09091690381E0892708C081E008270F
:1015D000009369034CC001114AC081E08093690304
:1015E00046C0011144C01092690341C0002329F094
:1015F00080916803882329F329C0222311F337C07F
:10160000809168032223C1F0882341F090916903FF
:1016100081E089278093690310926803812F00235A
:1016200019F00E94C52723C00E944B2786E0F601CF
:1016300011928A95E9F71BC08823C9F0011117C0E0
:101640009091690381E08927809369031092680370
:101650000EC0F8E0AF16B10441F04CF01AE0A11A48
:10166000B10822E0A216B10410F40E942924EE2051
:1016700039F18091B90280FD23C0F601128285956F
:10168000859585950E94301DC6010E949903809121
:10169000B90285958595859528960FB6F894DEBF95
:1016A0000FBECDBFDF91CF911F910F91FF90EF90B3
:1016B000DF90CF90BF90AF909F908F900C94F21CD2
:1016C00028960FB6F894DEBF0FBECDBFDF91CF9145
:1016D0001F910F91FF90EF90DF90CF90BF90AF9050
:1016E0009F908F9008959091DA0292FF0DC0282F5D
:1016F0002871283019F4877F846006C0282F247150
:10170000243011F48B7F886093FF0DC0282F28713F
:10171000283119F4877E846106C0282F2471243172
:1017200011F48B7E886194FD877E0895282F2770A1
:1017300081E090E001C0880F2A95EAF780959091AA
:10174000BB0289238093BB020C948C1B282F27702B
:1017500081E090E001C0880F2A95EAF79091BB02E2
:10176000892B8093BB020C948C1BCF93E82F87307E
:1017700058F58091120190911301892B09F042C014
:10178000CE2F80E40E9413139093130180931201D3
:10179000892BB1F482E10E94EC12909313018093A3
:1017A0001201892B69F481E090E001C0880FCA958D
:1017B000EAF780950E94EC12909313018093120136
:1017C00084E98093BC001EC090E0FC013797E730AD
:1017D000F105C0F4E757FF4F0C944F29209A289841
:1017E00011C0219A29980EC0229A2A980BC0239AD8
:1017F0002B9808C0529A5A9805C0539A5B9802C019
:101800003E9A4698CF910895CF93DF93873008F0A2
:1018100047C08091120190911301892B09F049C0B2
:1018200080E40E9413139093130180931201892B7B
:1018300011F080E031C083E10E94EC12909313011B
:1018400080931201892BA9F781E40E9413139093CE
:10185000130180931201892B61F784E88093BC0007
:101860000E947B1AEC019091BC0097FD0EC00E9473
:101870007B1A8C1B9D0B84369105A8F38EEF9FEF8E
:101880009093130180931201D4CF8091BB00809577
:10189000109213011092120194E99093BC000AC0B7
:1018A0009FB18FB1807F869586959370892B8095A7
:1018B00001C080E0DF91CF910895EF92FF920F93E6
:1018C0001F93CF93DF9380910D0380FF2EC0EFB65F
:1018D000F090BC00F8948091BC008B7F8093BC009A
:1018E0008BB18C7F8BB95098589A5198599A35E0A2
:1018F0003A95F1F700008AB18C7F8AB985E08A9524
:10190000F1F70000519A5998E5E0EA95F1F70000E7
:10191000509A5898F5E0FA95F1F7000084E80E9493
:10192000A224C8E1D3E08E010DC080E090E0FC016C
:10193000E85EFC4F11821082128204968C3391056E
:10194000B1F7C5CFF3E004351F0731F0F8018191FD
:101950008F010E94A224F6CF5098589A35E03A950C
:10196000F1F700005198599A85E08A95F1F7000047
:10197000EFBEF092BC00579A8BB18F779BB1906805
:101980002FB7F894E3E0C435DE0789F0399148E0D9
:101990009BB9000000C037FF8BB9330F000000C0B7
:1019A00000C000C08BB900C04A9591F7EBCF2FBFA4
:1019B000DF91CF911F910F91FF90EF90089590913B
:1019C0000D0390FF0FC020E030E0F901E85EFC4F0E
:1019D0008183608342832C5F3F4F2C333105A9F70D
:1019E0000C945D0C089580910D0380FF02C08695D4
:1019F000089580E0089580910D03282F269530E00A
:101A00002115310519F48170826005C02532310538
:101A100024F08170886480930D030895CF93DF9341
:101A200000D000D0CDB7DEB7AB01BC0149835A83EB
:101A30006B837C830E94FB0C49815A816B817C8182
:101A400088E090E00F900F900F900F90DF91CF9172
:101A50000C940529EDE0F3E083E0808311828FEFA1
:101A600082838383148260817181828193810C944B
:101A70000E0DAF92BF92CF92DF92EF92FF920F9333
:101A80001F93CF93DF93D82EC62EE901E42FF0E009
:101A9000611106C0EA5AFC4F8491E82F482F7CC0A0
:101AA000E62EF12C26E0829FC00111240FEF10E0FA
:101AB000B8010E9427295BEA56039001579F300D19
:101AC00011242D0D311D2D0D311D822F880F280F52
:101AD000C8018E199F098E9FD0018F9FB00D9E9FC8
:101AE000B00D11249B2F2C9D60011124CD2CDD24E1
:101AF0005801AC18BD08AE9E6001AF9ED00CBE9ED2
:101B0000D00C11245801A21AB108AE9C9001AF9CD0
:101B1000300DBE9C300D1124232F3327021B130BD5
:101B20000E9F90010F9F300D1E9F300D1124832FAB
:101B30006230710591F04CF461157105F1F061307E
:101B40007105C9F4842F4D2D18C06430710571F0F2
:101B50004CF06630710589F00EC0E42F4B2F932FA7
:101B60008E2F0BC08D2DE42F4B2F03C0E42F432F5E
:101B70008B2F9E2F02C08B2F9D2DE42FF0E0EA5A71
:101B8000FC4F4491E82FF0E0EA5AFC4F8491E92F92
:101B9000F0E0EA5AFC4FE49149838883EA83DF91BD
:101BA000CF911F910F91FF90EF90DF90CF90BF905A
:101BB000AF900895CF93DF9300D000D0CDB7DEB7BC
:101BC00090910D0390FF0AC09E012F5F3F4F0E942E
:101BD000390D4B8169818A810E94DF0C0F900F9033
:101BE0000F900F90DF91CF9108955F926F927F9247
:101BF0008F929F92AF92BF92CF92DF92EF92FF921D
:101C00000F931F93CF93DF9300D000D0CDB7DEB7F3
:101C1000182F762E042F622E90910D0390FF6DC029
:101C2000E92FE695AE2FB0E0A05EBE4F8C91809379
:101C300012039E7F923061F49E012F5F3F4F812FF0
:101C40000E94390D4B8169818A810E94DF0C43C05B
:101C5000823019F4009110033EC0863019F41091BF
:101C60000E0339C08930D9F38931A9F5E9518E2F96
:101C70008170582EE695F0E0EA5AFB4FA590B4909B
:101C800088E1C82E83E0D82EE12CF12CBB249FE004
:101C9000892E912CEA9CC001EB9C900DFA9C900D32
:101CA0001124B4010E942729812F511002C0860FF0
:101CB00001C0861B9601402F672D0E94390D8FEFC2
:101CC000E81AF80A84E0C80ED11C8FE0E816F10487
:101CD00009F70E945D0C10930E0370920F0300939E
:101CE0001003662051F060910D0370910E038091F6
:101CF0000F03909110030E940E0D0F900F900F9004
:101D00000F90DF91CF911F910F91FF90EF90DF9097
:101D1000CF90BF90AF909F908F907F906F905F908B
:101D2000089590910D0390FF3DC09170811102C004
:101D3000926006C0853210F0986402C0880F982B1C
:101D400090930D03662351F060910D0370910E0383
:101D500080910F03909110030E940E0D60910D036E
:101D6000669570E04BE050E086E091E00E94822AA8
:101D7000892B19F01092130309C081E0809313039B
:101D80000E947B1A909308038093070381E080935D
:101D90000A0320E04091100360910F0380910E032D
:101DA0000C94F50D089561E00C94910EEDE0F3E0D4
:101DB00080818160808386950C94D30E80910D0381
:101DC0008695815009F484E261E00C94910E809133
:101DD0000D0386958F5F853208F081E061E00C94F9
:101DE000910E6091C8028CE090E00C94F328CF93A0
:101DF000DF9326E0729FF001112434E5839FE00D0C
:101E0000F11D1124E60FF11DEE0FFF1FE25AFE4FE8
:101E1000C591D491CE01C238D10549F1B0F4C13396
:101E2000D10509F464C048F4C932D10509F458C099
:101E3000CA32D10509F462C068C0C533D10509F4BE
:101E400048C0C933D10599F060C0C33ED10541F106
:101E500038F4C03ED10591F0C23ED105B1F055C075
:101E6000C63ED10521F1C73ED10561F14EC020919A
:101E7000DA0220FD14C221FD12C213C22091DA023F
:101E800020FF0FC289E390E00CC22091DA0222FF0A
:101E900008C28091DA0284FDB4C183EE90E001C2F1
:101EA0008091DA0282FFF5CF82EE90E0FAC12091B4
:101EB000DA0223FFF6C18091DA0284FDA2C187EE27
:101EC00090E0EFC18091DA0283FFF5CF86EE90E0DB
:101ED000E8C12091DA0225FFE4C189E290E0E1C186
:101EE0002091DA0225FFDDC185E390E0DAC120917F
:101EF000DA0226FFD6C18AE290E0D3C12091DA024D
:101F000026FFCFC181E390E0CCC1C11520E5D20707
:101F100008F047C0C11530E4D30708F034C1C83E0B
:101F2000D10518F5C03ED10508F0BBC1C83AD105AE
:101F300070F4C53AD10508F0B0C0C130D10509F43C
:101F4000B0C108F45EC1249708F45BC1AAC1CF3BBD
:101F5000D10508F4ADC0C03CD10508F452C1FE0162
:101F6000EE0FFF1FEA52FE4F02C1C11520E2D20759
:101F700060F4C11531E0D30708F093C1C03FD1052B
:101F800008F43FC1CE0190658CC1C11580E3D8072C
:101F900008F0F0C0FE01FF70EE0FFF1FEA5AFC4F81
:101FA000E6C0C11595E5D90708F044C0C11524E580
:101FB000D20708F000C1C11532E5D30710F5C115ED
:101FC00081E5D80708F0E3C02C2F237081E090E072
:101FD00002C0880F991F2A95E2F79C689E0174E061
:101FE000369527957A95E1F72370922BEC2FEF70B9
:101FF000E695E69530E2E39FF00111248E2B9F2BAE
:1020000050C18C2F86958695AE0143705527C1151A
:10201000D34508F0C1C090E2899F9001112481E06E
:1020200090E002C0880F991F4A95E2F7822B932B0C
:102030009C6837C1C1152AE5D207A0F4C11539E55E
:10204000D30708F0C6C0C11586E5D80708F4B8C0A4
:10205000C11598E5D90708F4D4C09C2F8827806F54
:10206000906A1FC1C1152BE5D20708F4CAC0CE0182
:10207000C1153CE5D30708F4C1C0905681159042C4
:1020800008F0BFC08D2F8F710E94730BFE01FF27D8
:10209000F0628F719F01382BAFC0C53AD10509F4AA
:1020A000B3C0C63AD10509F0B2C082E890E4F9C0E5
:1020B000C83AD10509F4AEC0C93AD10509F4ADC09A
:1020C000CA3AD10509F4ACC0CB3AD10509F4ABC08A
:1020D000CC3AD10509F4AAC0CB3BD10509F4A9C07B
:1020E000CC3BD10509F4A8C0CD3AD10509F4A7C06D
:1020F000C03BD10509F4A6C0CE3AD10509F4A5C06C
:10210000CF3AD10509F4A4C0C13BD10509F4A3C05D
:10211000C23BD10509F4A2C0C33BD10509F4A1C05B
:10212000C43BD10509F4A0C0C53BD10509F49FC04B
:10213000C63BD10509F49EC0C73BD10509F49DC03B
:10214000C83BD10509F49CC0C93BD10509F49BC02B
:10215000CD3BD10509F49AC0CE3BD10509F499C015
:10216000CA3BD10509F498C080E094E49AC08591F7
:10217000949197C09E013327C901D3FF02C0986C88
:1021800090C0906C8EC0CE019F70906A8AC09C2FC8
:102190008827816F906A85C090E2899F9001112401
:1021A00081E090E002C0880F991F4A95E2F7822BE8
:1021B000932B9A6876C09C2F8827846F906A71C091
:1021C0008C2F0E94730B8F7190E0982F882790625C
:1021D00068C08C2F8F700E94730BFE0194E0F695FF
:1021E000E7959A95E1F7EF70F0E0FE2FEE27F06AA1
:1021F0008F70806E9F01282BC90153C0992790666C
:1022000050C080E090E04DC081E890E44AC083E88F
:1022100090E447C082EE94E444C089EE94E441C067
:102220008AEE94E43EC085EB94E43BC086EB94E4F4
:1022300038C083EB94E435C084EB94E432C087EB80
:1022400094E42FC08CEC94E42CC08DEC94E429C071
:1022500083E895E426C08AE895E423C082E995E402
:1022600020C084E995E41DC081E296E41AC083E2AF
:1022700096E417C084E296E414C085E296E411C0A7
:1022800086E296E40EC087E296E40BC08FE694E403
:1022900008C080E794E405C08AE296E402C080EEBC
:1022A00090E0DF91CF91089580E290E09093130148
:1022B000809312018091F501811111C01092B90033
:1022C0008CE08093B80081E08093F5012FEF83EDDF
:1022D00090E3215080409040E1F700C0000080E48E
:1022E0000E9413139093130180931201892B09F01C
:1022F00040C080E00E94EC12909313018093120181
:10230000892BB9F580E00E94EC1290931301809321
:102310001201892B71F58FE30E94EC129093130147
:1023200080931201892B29F584E98093BC0080E415
:102330000E9413139093130180931201892BC9F407
:102340008CE00E94EC129093130180931201892B70
:1023500081F480E00E94EC129093130180931201AB
:10236000892B39F48FE30E94EC1290931301809330
:10237000120184E98093BC0080911201089556985F
:102380005E9825982D9826982E9827982F988FEF4D
:1023900090E0909389008093880090938B008093C5
:1023A0008A0090938D0080938C00259A2D9A2FEFB0
:1023B00080E792E0215080409040E1F700C00000AB
:1023C000269A2E9A2FEF80E792E02150804090408D
:1023D000E1F700C00000279A2F9A2FEF80E792E0E4
:1023E000215080409040E1F700C0000025982D98D2
:1023F0002FEF80E792E0215080409040E1F700C04D
:10240000000026982E982FEF80E792E02150804020
:102410009040E1F700C0000027982F9856985E98EA
:1024200025982D9826982E9827982F98089584B14E
:10243000807F84B985B1807F85B98AB1837F8AB96D
:102440008BB1837F8BB93E984698089580B38C708A
:1024500080BB81B3836F81BB0895AF92BF92CF924F
:10246000DF92EF92FF920F931F93CF93DF938091B0
:10247000120190911301892B91F08091F4018F5FEB
:102480008093F40181110BC00E94541190E090934D
:10249000130180931201892B11F40E94BF110CECDF
:1024A00012E023EDE22E22E0F22E6801C0E0D0E03F
:1024B00097E0A92EAC0E8C2F0E94B50B8A2D0E949E
:1024C000B50B8C2F0E94040CF6019081981721F017
:1024D0008083BB24B39401C0B12C8A2D0E94040CCC
:1024E000F7019081981719F0808381E001C080E0A6
:1024F000B82ADB290E941712CF5FFFEFCF1ADF0A3D
:102500008FEFE81AF80AC73099F60E947B1A6AEF33
:1025100070E00E9427299C01682F8091F301882395
:1025200009F44CC01092F301E091C602F091C70289
:10253000DF011E9690E07BEF8AEFE82EF12C808180
:102540008B3FA9F0482F50E0681728F06901C41AA2
:10255000D50AA60106C06701C41AD50AA601420F12
:10256000531F4F30510514F0708301C091E0319634
:10257000EA17FB0721F79093F301D11102C09111E3
:102580001FC0A091C602B091C7028091F301E0EE96
:10259000F2E02EE02E0F3081E80199918E014C91EE
:1025A0004B3F29F4391719F06C93908381E0119611
:1025B00031962E13F0CF8093F30102C0D111E1CFF9
:1025C00081E0DF91CF911F910F91FF90EF90DF900D
:1025D000CF90BF90AF900895CF93DF938093BB00CF
:1025E00084E88093BC000E947B1AEC019091BC00AF
:1025F00097FD0AC00E947B1A8C1B9D0B84369105A7
:10260000A8F38EEF9FEF0CC02091B900287F81E0E6
:1026100090E0283211F480E090E091958195910945
:10262000DF91CF9108950F931F93CF93DF93C82F1E
:102630001092BC0084EA8093BC000E947B1A8C013B
:102640009091BC0097FD0AC00E947B1A801B910BE1
:1026500084369105A8F38EEF9FEF2AC09091B900C0
:10266000987F983041F09091B900987F903119F09F
:102670008FEF9FEF1DC0C093BB0084E88093BC0028
:102680000E947B1AEC019091BC0097FD08C00E944B
:102690007B1A8C1B9D0B84369105A8F3DCCF8091AF
:1026A000B900887F883111F0803411F780E090E024
:1026B000DF91CF911F910F910895CF93DF93EC019C
:1026C00080EEFE01099581EEFE01DF91CF91099424
:1026D000CF92DF92FF920F931F93CF93DF931F92BE
:1026E000CDB7DEB7F82E8B0199830E94651D9981C5
:1026F00081111CC0CF2CD92E01151105B1F080918C
:10270000E80085FD0AC08091E8008E778093E8009C
:102710000E94651D882381F309C0F60181916F0134
:102720008093F10001501109E7CF80E00F90DF9115
:10273000CF911F910F91FF90DF90CF9008951F933D
:10274000CF93DF93CDB7DEB7AA970FB6F894DEBF6D
:102750000FBECDBFEEE1F2E088E08E0F9091F10068
:1027600091938E13FBCF80911F02833009F460C0D8
:1027700030F4813071F0823009F49CC0B3C08A30EB
:1027800009F488C08B3009F46BC0893009F0AAC005
:1027900020C080911E02813A09F0A4C08091E80017
:1027A000877F8093E8008091220290912302892BF9
:1027B00021F460E28AEF91E003C060E080E090E005
:1027C00070E00E94EB1D8091E8008B778093E80019
:1027D00089C080911E02813209F084C0809122025A
:1027E00090912302029708F07DC08091E800877FD6
:1027F0008093E8008091E80082FD05C080911C0272
:102800008111F8CF6FC02091F3008091F20090E029
:10281000922B029729F48091F1008B7F813021F473
:102820008091F1008093F9018091E8008B7756C088
:1028300080911E02813A09F055C080912202909148
:102840002302892B09F04EC08091E800877F809396
:10285000E8008091E80080FFFCCF8091110139C031
:1028600080911E028132F1F5809122029091230223
:10287000892BC1F58091E800877F8093E8000E9452
:10288000971D80912002809311011092F7010E9400
:10289000232728C080911E02813221F58091E80013
:1028A000877F8093E8000E94971D8091210280938A
:1028B000F80118C080911E02813AA1F48091E800CD
:1028C000877F8093E8008091E80080FFFCCF8091B3
:1028D000F8018093F1008091E8008E778093E80002
:1028E0000E94971D8091E80083FFD6C180911E024F
:1028F00090911F02492F50E04A30510508F0CCC199
:10290000FA01E057FF4F0C944F29803821F08238AC
:1029100009F0C2C108C080911A0290911B0299234C
:1029200089F082600FC0809122028F70873008F09A
:10293000B3C18093E9008091EB0085FB882780F983
:102940001092E9009091E800977F9093E8008093BF
:10295000F1001092F10074C1282F2D7F09F09CC165
:10296000882319F0823061F097C180912002813074
:1029700009F092C1933009F080E080931B022EC0D1
:102980008091200281112AC0809122028F702FEF46
:10299000280F263008F080C18093E9002091EB00D9
:1029A00020FF1CC0933021F48091EB00806214C0A2
:1029B0009091EB0090619093EB0021E030E0A90151
:1029C00002C0440F551F8A95E2F74093EA00109227
:1029D000EA008091EB0088608093EB001092E900A0
:1029E0008091E800877F2FC1811156C1109120028C
:1029F0001F778091E3008078812B8093E3008091A2
:102A0000E800877F8093E8000E94971D8091E8008E
:102A100080FFFCCF8091E30080688093E300111178
:102A200002C082E001C083E080931C0235C180585F
:102A3000823008F031C180912002909121028C3DBA
:102A400053E0950779F583E08A838AE289834FB75B
:102A5000F894DE01139620E03EE051E2E32FF0E02F
:102A600050935700E49120FF03C0E295EF703F5F61
:102A7000EF708E2F90E0EA3010F0C79601C0C0963C
:102A80008D939D932F5F243149F74FBF8091E800CC
:102A9000877F8093E8006AE270E0CE0101960E9491
:102AA000EB1DBDC04091220250912302292F3327F4
:102AB00023303105B9F06CF42130310509F4FBC045
:102AC0002230310509F0E8C08BE390E0EBE5F5E05A
:102AD00054C02132310509F433C02232310509F4E2
:102AE0003CC0DAC0992781309105D1F05CF4892B84
:102AF00009F0D2C0EEEDF5E0E4918E2F90E0EEED1E
:102B0000F5E038C08230910599F0039709F0C4C010
:102B1000E8EAF5E0E4918E2F90E0E8EAF5E02AC0DB
:102B2000E6ECF5E0E4918E2F90E0E6ECF5E022C0D3
:102B3000EEEAF5E0E4918E2F90E0EEEAF5E01AC0BF
:102B40004115510509F4BCC04130510509F0A4C03C
:102B500089E090E0E6E8F5E010C04115510509F480
:102B6000B4C04130510509F097C080EC90E0EBE52E
:102B7000F4E003C0009709F48FC02091E800277F9C
:102B80002093E8002091240230912502281739076C
:102B900008F4C90140E0009789F120911C0222232A
:102BA00009F43DC02530D9F12091E80023FD37C05C
:102BB0002091E80022FD2FC02091E80020FFEBCFFC
:102BC0004091F3002091F20030E0342B009759F04F
:102BD0002830310540F444914093F100319601973B
:102BE0002F5F3F4FF3CF41E02830310509F040E03F
:102BF0002091E8002E772093E800CDCF4111CDCF72
:102C00000AC080911C02882351F0853041F08091E8
:102C1000E80083FD04C08091E80082FFF2CF80913C
:102C2000E8008B778093E80037C08038A9F5809161
:102C3000E800877F8093E80080911D028093F10077
:102C40008091E8008E778093E8000E94971D24C051
:102C5000811122C0109120021230F0F48091E8001E
:102C6000877F8093E80010931D020E94971D111129
:102C700006C08091E30087FD02C081E001C084E0CE
:102C800080931C0242E061EC81E00E94B61D42E2AA
:102C900061EC82E00E94B61D8091E80083FF1AC0BB
:102CA0008091E800877F8093E8008091EB0080624C
:102CB0008093EB000FC082E190E0E6E9F5E05DCFA4
:102CC00089E090E0EDE6F5E058CF80E490E0EBE1BC
:102CD000F5E053CFAA960FB6F894DEBF0FBECDBF76
:102CE000DF91CF911F9108951F920F920FB60F920F
:102CF00011242F933F934F935F936F937F938F9301
:102D00009F93AF93BF93CF93DF93EF93FF93C091C4
:102D1000E900CF708091EC00D82FD17080FDD0E811
:102D20001092E9008091F000877F8093F000789402
:102D30000E949F131092E9008091F00088608093B8
:102D4000F000CD2BCF70C093E900FF91EF91DF91A0
:102D5000CF91BF91AF919F918F917F916F915F9133
:102D60004F913F912F910F900FBE0F901F9018958C
:102D7000E8EDF0E080818E7F80831092E200109277
:102D8000DA001092E100A0EEB0E08C9181608C93AB
:102D900080818F77808319BCA7EDB0E08C918E7F06
:102DA0008C9380818F7E80831092F6010895CF925C
:102DB000DF92EF92FF920F931F93CF93DF93C8EDB3
:102DC000D0E088818F7E8883E7EDF0E080818160AC
:102DD000808384E082BF81E08093F60188818E7FCA
:102DE000888302EE10E0F80110821092DA0081EE82
:102DF000C82ED12CF601108288818F778883888134
:102E00008068888388818F7D888319BC10921C021A
:102E100010921D0210921B0210921A0290EEE92EDF
:102E2000F12CF70180818B7F80838881816088838A
:102E300042E060E080E00E94B61DF60180818E7F56
:102E40008083F801808181608083808188608083B5
:102E5000F70180818E7F8083888180618883DF9104
:102E6000CF911F910F91FF90EF90DF90CF90089539
:102E70001F920F920FB60F9211242F933F934F93EF
:102E80005F936F937F938F939F93AF93BF93EF93D2
:102E9000FF938091E10082FF09C08091E20082FFF0
:102EA00005C08091E1008B7F8093E1008091DA0082
:102EB00080FF2AC08091D80080FF26C08091DA0070
:102EC0008E7F8093DA008091D90080FF18C080E166
:102ED00089BD82E189BD09B400FEFDCF81E0809308
:102EE0001C028091F60181110FC00E94B8160E9449
:102EF000D7168091E20084608093E20005C019BC7F
:102F000010921C021092F6018091E10080FF17C020
:102F10008091E20080FF13C08091E2008E7F809359
:102F2000E2008091E20080618093E2008091D8000D
:102F300080628093D80019BC85E080931C02809148
:102F4000E10084FF34C08091E20084FF30C080E162
:102F500089BD82E189BD09B400FEFDCF8091D80012
:102F60008F7D8093D8008091E1008F7E8093E10077
:102F70008091E2008F7E8093E2008091E200816088
:102F80008093E20080911D02882311F084E007C045
:102F90008091E30087FD02C081E001C083E080935F
:102FA0001C021092F7010E9423270E94292480917D
:102FB000E10083FF27C08091E20083FF23C080915E
:102FC000E100877F8093E10082E080931C021092F1
:102FD0001D028091E1008E7F8093E1008091E200EC
:102FE0008E7F8093E2008091E20080618093E20016
:102FF00042E060E080E00E94B61D8091F0008860B1
:103000008093F000FF91EF91BF91AF919F918F91CD
:103010007F916F915F914F913F912F910F900FBED4
:103020000F901F9018958091F9010895CF93DF9329
:1030300000D01F92CDB7DEB720911C02243031F5AD
:1030400023E02983805891099B838A8382E08093BF
:10305000E9008FEF9091E800815095FD06C095ED55
:103060009A95F1F700008111F5CF8091E80085FF76
:103070000DC040E050E063E070E0CE0101960E9498
:1030800068138091E8008E778093E8000F900F908E
:103090000F90DF91CF9108950F931F93CF93DF93FC
:1030A00000D01F92CDB7DEB78C010E944E1E823039
:1030B00011F0843021F584E089831B830A8382E048
:1030C0008093E9008FEF9091E800815095FD06C054
:1030D00095ED9A95F1F700008111F5CF8091E80008
:1030E00085FF0DC040E050E063E070E0CE01019646
:1030F0000E9468138091E8008E778093E8000F901B
:103100000F900F90DF91CF911F910F910895CF9362
:10311000DF93EC010E944E1E823011F08430F9F4EE
:1031200082E08093E9009FEF8091E800915085FD57
:1031300006C085ED8A95F1F700009111F5CF8091D9
:10314000E80085FF0CC040E050E066E070E0CE0192
:103150000E9468138091E8008E778093E800DF91E9
:10316000CF910895CF93DF93EC010E944E1E8230E1
:1031700011F08430D9F580911101882339F08091C4
:10318000DA0287FF03C060E282E002C068E081E00B
:103190008093E9008FEF9091E800815095FD06C083
:1031A00095ED9A95F1F700008111F5CF8091E80037
:1031B00085FF1CC080911101811105C040E050E0E5
:1031C00068E070E003C070E040E050E0CE010E9493
:1031D00068138091E8008E778093E80080E2FE011A
:1031E000AAEFB1E001900D928A95E1F7DF91CF91BE
:1031F0000895803F39F48091F10287FF6CC01092EE
:10320000F10269C0813F29F48091F1021816BCF3E4
:1032100062C09091F002823F29F497FF5CC0109247
:10322000F00259C0833F19F41916CCF354C0893FFA
:1032300041F48091F20218160CF04DC01092F20287
:103240004AC08A3F29F48091F20287FF44C0F6CF3A
:103250008B3F39F48091F30287FF3DC01092F30257
:103260003AC08C3F29F48091F3021816BCF333C0A6
:10327000843F21F48091EF028E7F17C0853F21F4B7
:103280008091EF028D7F11C0863F21F48091EF0283
:103290008B7F0BC0873F21F48091EF02877F05C0B1
:1032A000883F31F48091EF028F7E8093EF0213C04C
:1032B0008D3F21F48091C5028E7F0BC08E3F21F49B
:1032C0008091C5028D7F05C08F3F29F48091C50292
:1032D0008B7F8093C5028091F00281110EC0809196
:1032E000F10281110AC08091F202811106C0809121
:1032F000F302811102C01092F40208958091C50278
:1033000080FD16C081FD16C082FD18C08091F402B8
:10331000882391F0883290F428E0829FC001112424
:1033200068E270E00E943B29862F672B29F007C0D6
:1033300082E0089584E0089581E0089588E008958A
:103340008091C50280FD17C081FD17C082FD19C0A4
:103350008091F402882399F08C3398F423E2829FC1
:10336000C00111246CE370E00E943B29862F672B7B
:1033700049F481E0089588E0089581E1089585E0A9
:10338000089583E20895803F21F40E94A019819559
:1033900004C0813F29F40E94A0198093F10208958E
:1033A000823F21F40E94A019819504C0833F29F433
:1033B0000E94A0198093F0020895893F19F40E9499
:1033C0007E1905C08A3F31F40E947E198195809351
:1033D000F20208958B3F21F40E947E19819504C06A
:1033E0008C3F29F40E947E198093F3020895843F54
:1033F00021F48091EF02816017C0853F21F4809114
:10340000EF02826011C0863F21F48091EF02846058
:103410000BC0873F21F48091EF02886005C0883F90
:1034200031F48091EF0280618093EF0208958D3F27
:1034300021F48091C50281600BC08E3F21F4809100
:10344000C502826005C08F3F29F48091C502846067
:103450008093C502089578941F920F920FB60F9231
:1034600011248F939F93AF93BF938091C10290914A
:10347000C202A091C302B091C4020196A11DB11D68
:103480008093C1029093C202A093C302B093C4027E
:10349000BF91AF919F918F910F900FBE0F901F9092
:1034A0001895CF92DF92EF92FF920F931F932FB751
:1034B000F8944091C1025091C2026091C302709190
:1034C000C4022FBF6A017B01EE24FF248C0120E09F
:1034D00030E0C016D106E206F30610F4415051095F
:1034E0009A01281B390BC9011F910F91FF90EF9092
:1034F000DF90CF9008952FB7F8948091C1029091FA
:10350000C202A091C302B091C4022FBF0895E091FE
:10351000DD02F091DE02309749F082E08093EE0206
:103520000480F581E02D8EEE92E009950E947B1AD1
:103530009093F6028093F50208951F920F920FB6B2
:103540000F9211248F939F93AF93BF938091DF02CB
:10355000811113C08091C1029091C202A091C30257
:10356000B091C4024196A11DB11D8093C1029093F8
:10357000C202A093C302B093C402BF91AF919F91C6
:103580008F910F900FBE0F901F90189520911101F1
:10359000222321F02091DA0227FD04C0FC0132969B
:1035A000089619C0262F2695269526952E31C0F40B
:1035B000FC01E20FF11D677081E090E001C0880F0F
:1035C0006A95EAF7809592818923828308953196DE
:1035D000E817F90729F020812613F9CF1082F7CFD9
:1035E000089520911101222321F02091DA0227FD74
:1035F00005C0FC0132962FEF30E019C0262F26952A
:10360000269526952E3120F5FC01E20FF11D6770FD
:1036100081E090E001C0880F6A95EAF79281892BDA
:10362000828308952F3F39F03F5F363041F041915A
:103630004613F8CF0DC04111F7CF232FF5CF2F3F01
:1036400039F0FC01E20FF11D27FDFA956283089520
:10365000089580E090E00E94ED2821E08D3E9E4F8D
:1036600009F020E0822F08956DEE7EEF80E090E07B
:103670000E94112960E082E090E00E94F32860E05F
:1036800083E090E00E94F3281092BD021092BE02E7
:103690001092BF021092C00260E084E090E00E94AD
:1036A000F32860E085E090E00E94F32860E086E087
:1036B00090E00E94F3286FEF87E090E00E94F328EB
:1036C00040E050E0BA0188E090E00E94052960E007
:1036D0008DE090E00E94F32840E050E0BA0188E1DC
:1036E00090E00E94052960E087E190E00E94F328C5
:1036F00040E050E0BA018FE090E00E94052940E0F0
:1037000050E0BA0183E190E00C9405298091BC025D
:1037100081111092BC0208959091BB028091F70133
:10372000892B2091BA02982F922B90932602809198
:10373000BC028823D9F0892B809326028091110145
:10374000882331F08091DA0287FF02C08EE101C048
:1037500086E0E8E2F2E090E0815028F02191222317
:10376000D9F39F5FF9CF91110E94861BE091DD0292
:10377000F091DE023097A9F080911101882359F071
:103780008091DA0287FF07C080912602809327028A
:1037900085E0809326020280F381E02D86E292E0AC
:1037A00009940895BF92CF92DF92EF92FF920F9308
:1037B0001F93CF93DF938C01C090BD02D090BE02C7
:1037C000E090BF02F090C0028091B5029091B602E5
:1037D000A091B702B091B802C82AD92AEA2AFB2AD6
:1037E000CFE1D0E0D701C6010C2E04C0B695A79555
:1037F000979587950A94D2F780FF07C0BC2EB80131
:103800008C2F0E94F70E019719F4219758F7B12CCD
:103810008B2DDF91CF911F910F91FF90EF90DF9053
:10382000CF90BF900895CF93DF93EC010E94D21BFD
:10383000BE010E94F70EDF91CF910895292F220F2C
:10384000920F990F890F682F669566956695982F48
:10385000977085E0689FB001112440E050E080E05F
:10386000FA01E60FF71FE258FD4F208130E0092EE4
:1038700002C0369527950A94E2F721703327042E6B
:1038800001C0220F0A94EAF7822B4F5F5F4F453049
:10389000510531F70895292F220F920F990F890FA3
:1038A000A82FA695A695A695877051E001C0550F43
:1038B0008A95EAF785E0A89FD001112420E030E046
:1038C00070E0F901EA0FFB1FE258FD4F4081CB0188
:1038D000022E02C0969587950A94E2F78170992787
:1038E000819584278523842780832F5F3F4F253050
:1038F000310539F708950F931F93AB01BC01CB013C
:10390000AA27BB270097A105B10511F0E0E103C08C
:10391000DB01CA01E0E0092F1A2F2B2F33270115F5
:1039200011052105310519F0E85FD901C8018C01A5
:103930009D01F4E03695279517950795FA95D1F7EF
:10394000011511052105310519F0EC5FD901C801F8
:103950008C019D01F2E03695279517950795FA950C
:10396000D1F7011511052105310519F0EE5FD901D7
:10397000C801B695A79597958795892B8A2B8B2B90
:1039800009F0EF5F56985E9825982D9826982E9806
:1039900027982F988E2F90E0FC013197E730F105A2
:1039A000A8F4E656FF4F0C944F29259A2D9A0EC085
:1039B000259A2D9A269A2E9A09C0259A2D9A04C0E6
:1039C000259A2D9A269A2E9A279A2F9A4093B502D5
:1039D0005093B6026093B7027093B8021F910F9193
:1039E0000C9408270F931F9341E050E060E070E0D3
:1039F00004C0440F551F661F771F8A95D2F7409564
:103A00005095609570958091B5029091B602A09105
:103A1000B702B091B8028A019B01082319232A2317
:103A20003B23C901B8011F910F910C947B1C20917D
:103A3000B902809582238093B902982F977079F408
:103A400030E0482F082E000C550B2417350739F0AD
:103A50008595859585950E94F21C1092B90208956E
:103A60000F931F9341E050E060E070E004C0440F0A
:103A7000551F661F771F8A95D2F78091B5029091E6
:103A8000B602A091B702B091B8028A019B01082B3F
:103A9000192B2A2B3B2BC901B8011F910F910C94B4
:103AA0007B1C6093BD027093BE028093BF02909313
:103AB000C0020C94082780917D0290914C028917D6
:103AC00019F08F5F8770FBCF08952091E40030914B
:103AD000E50095E64091EC00842F817040FF22C004
:103AE0008091E80080FD1CC080911C02882391F029
:103AF000853091F08091EB0085FD10C04091E4008D
:103B00005091E5004217530729F39A01915011F79C
:103B100084E0089582E0089583E0089581E00895A7
:103B200080E008954091E80042FFDECF0895809143
:103B30001E0287FF11C08091E80082FD05C08091C0
:103B40001C028111F8CF11C08091E8008B770BC067
:103B500080911C02882349F08091E80080FFF8CF13
:103B60008091E8008E778093E8000895982F973031
:103B700058F59093E900981739F07091EC00209176
:103B8000ED005091F00003C0242F762F50E021FF6C
:103B900019C03091EB003E7F3093EB003091ED0087
:103BA0003D7F3093ED003091EB0031603093EB00BE
:103BB0007093EC002093ED005093F0002091EE0004
:103BC00027FF07C09F5FD3CF8F708093E90081E00C
:103BD000089580E00895209124023091250226174F
:103BE000370748F06115710539F42091E8002E7708
:103BF0002093E80001C0B90140E061157105A9F109
:103C000020911C02222309F443C0253009F442C04C
:103C10002091E80023FD40C02091E80022FD32C041
:103C20002091E80020FFE9CF4091F3002091F200BD
:103C300030E0342BFC01CF016115710559F02830BB
:103C4000310540F481918093F100615071092F5F3B
:103C50003F4FF1CF41E02830310509F040E020919D
:103C6000E8002E772093E800C8CF4111C9CF0AC0E1
:103C700080911C02882361F0853061F08091E8001A
:103C800083FD0AC08091E80082FFF2CF80E00895B2
:103C900082E0089583E0089581E0089580911403FF
:103CA000811107C080911C02843011F081E00895D9
:103CB00082E00895CF93DF93CDB7DEB72C970FB690
:103CC000F894DEBF0FBECDBF84B7877F84BF0FB629
:103CD000F894A895809160008861809360001092AC
:103CE00060000FBE80E8809361001092610085B78C
:103CF000806885BF85B7806885BF0E94B8160E941E
:103D0000D7168091E20084608093E20078948091DD
:103D10001C028823A1F01091E9001F709091EC0023
:103D2000892F817090FD80E8182B1092E900809116
:103D3000E80083FD0E949F131F701093E90082E04A
:103D400084BD93E095BD9AEF97BD80936E000E946D
:103D5000541190E090931301809312010E94171266
:103D60000E942612ACECB2E0E0EEF2E05EE0D52E6E
:103D7000DE0E11921D92DE12FCCF8EE090E00E94CA
:103D800055298093C6029093C702FC010E962BEF33
:103D90002193E817F907E1F70E94291B811102C05E
:103DA0000E94341B8CE090E00E94DF2890E0A0E0AD
:103DB000B0E08093C8029093C902A093CA02B09366
:103DC000CB0289EA8093800089E080938100249867
:103DD0002C983F988AB18F7C8AB96E98479A8BB19C
:103DE00080638BB9769A0E94BF110E94291B8111B2
:103DF00002C00E94341B82E090E00E94DF28809382
:103E0000F80284E090E00E94DF2890E09093DB02CB
:103E10008093DA0283E090E00E94DF28682F70E050
:103E200080E090E00E94511D8091DC02811138C039
:103E30008091F80281608093F8020E94291B811111
:103E400004C00E94341B0E942A0D88E090E00E946A
:103E5000E72860930D0370930E0380930F039093F4
:103E600010036E7F71F40E942A0D88E090E00E949A
:103E7000E72860930D0370930E0380930F039093D4
:103E800010030E94FB0C1092130380910D0380FF1E
:103E900004C060E086950E94910E81E08093DC0270
:103EA00084E191E09093DE028093DD0242EEE42E05
:103EB00045E0F42E80911C02853009F047C08091C6
:103EC0001C02843021F11092DF0220E488E190E0AE
:103ED0000FB6F894A895809360000FBE2093600001
:103EE00083B7817F846083BF83B7816083BF789409
:103EF000889583B78E7F83BF0FB6F894A89580917D
:103F00006000886180936000109260000FBE809115
:103F10001B02882309F4CECF0E94541190E09093A5
:103F20001301809312010E9417120E942612E0EEE4
:103F3000F2E01192DE12FDCF0E942D12E0EEF2E0CF
:103F40008191811184C1DE12FBCFB4CF0E942D126A
:103F5000E9EFF2E0A0EEB2E000E010E0302F2D91AA
:103F600041914227B9F180E090E050E0682F5A017A
:103F7000082E02C0B594A7940A94E2F7A0FE26C0CA
:103F800089833A8381E090E05C0102C0AA0CBB1CEB
:103F90006A95E2F7822F90E08A219B2121E0892B0C
:103FA00009F420E02B830E947B1A8160782F9D8387
:103FB0008C8349815A816B818D810E942723F8016E
:103FC000E750FD4F8081A826A0821AC00196863056
:103FD000910561F60F5F1F4F0E30110509F0BECF3E
:103FE0008FEF8E838F8318860E947B1A8160782FD3
:103FF0009A8789874E815F8168858A850E942723F9
:104000008091F5029091F6020E94511A9C019091C4
:10401000F402992321F02431310508F478C080910D
:10402000F0021091F10281110BC0111126C12091F3
:10403000F202211122C12091F30221111EC167C099
:104040009F3F19F09F5F9093F402181624F40E948A
:10405000A0198093F0028091F00287FF05C00E94B2
:10406000A01981958093F002111624F40E94A019E2
:104070008093F1028091F10287FF05C00E94A01990
:1040800081958093F1023091F0023323E1F0209189
:10409000F1022223C1F045EB3403C0011124892F22
:1040A000990F990B009709F481E08093F00235EBAA
:1040B0002303C0011124892F990F990B009709F44C
:1040C00081E08093F1028091F202181624F40E949C
:1040D0007E198093F2028091F20287FF05C00E9450
:1040E0007E1981958093F2028091F302181624F4D0
:1040F0000E947E198093F3028091F30287FF05C02E
:104100000E947E1981958093F3020E94871A109174
:10411000F7020E942924181721F00E942924809375
:10412000F70280911303882309F4C4CE809112030F
:10413000E0910D03E695E81BE0930903823049F412
:10414000F0E0E051FA4FE4910E2F10E023E133E26A
:1041500048C0863049F4F0E0E351FA4FE4910E2F65
:1041600010E023E033E23DC0893051F4E695F0E001
:10417000E651FA4FE4910E2F10E027E932E231C008
:104180008F3051F4E695F0E0E951FA4FE4910E2FAB
:1041900010E027E232E225C0853149F4F0E0EC512D
:1041A000FA4FE4910E2F10E02BEC31E21AC0883167
:1041B00079F0833231F4F7010591149121EC32E268
:1041C00010C0843251F404EF11E02EE531E209C051
:1041D00008EE13E026E931E204C000ED17E021E427
:1041E00031E280910A038823A9F010920A032B87F9
:1041F0003C870E947B1AA80140955095840F951F1B
:10420000909308038093070310920C0310920B0302
:104210003C852B8580910703909108032B873C8771
:104220000E94511A2B853C858017910708F442CED5
:10423000E0910703F09108030E0F1F1F109308036E
:104240000093070387E093E0F901099533CE80E1FD
:1042500089BD82E189BD09B400FEFDCF8091D800FF
:104260008F7D8093D8008091E00082608093E00091
:104270008091E00081FDFCCF1DCE9F3F09F0E2CE92
:10428000EACE0895882319F05198599A02C0519A9C
:1042900059985098589A95E09A95F1F70000509ADD
:1042A000589895E09A95F1F70000882311F0519AFB
:1042B000599885E08A95F1F700000895EF92FF92F2
:1042C0000F931F93CF93DF937C01C8E1D3E000E00D
:1042D00010E0F7018481073011051CF4882339F0C0
:1042E00002C0811104C09E014091100302C09E01D2
:1042F00040E060910F0380910E030E94390D0F5F23
:104300001F4F24960F30110521F70E945D0CF70115
:10431000248130E02F5F3F4F217033272483DF91CA
:10432000CF911F910F91FF90EF900895EF92FF9220
:104330000F931F93CF93DF93EC012C813D812F5F6F
:104340003F4F217033273D832C8388E1E82E83E0A3
:10435000F82E10E005E5812F86954C815D81480F90
:10436000511D842F817097014091100360910F03BC
:10437000809F802D11240E94390D1F5F84E0E80E7C
:10438000F11C1F3041F7DF91CF911F910F91FF90EA
:10439000EF900C945D0C0F931F93CF93DF9380E00D
:1043A00090E0FC01E85EFC4F1182108212820496BC
:1043B0008C339105B1F7C0E0D0E00FE010E0CE0102
:1043C000B8010E943B29FC0180911603082E000CC5
:1043D000990BEE0FFF1FEE0FFF1FC817D907A4F0B0
:1043E00080911F01082E000C990B8C179D0764F01B
:1043F0009F01285E3C4F4091100360910F03809114
:104400000E030E94390D05C0E85EFC4F1182108238
:1044100012822196CF30D10591F60E945D0C8091D9
:104420001E0190911603980F9093160320911F017F
:10443000280F20931F01121614F49E301CF0819552
:1044400080931E01DF91CF911F910F910895AF923C
:10445000BF92CF92DF92EF92FF920F931F93CF9371
:10446000DF93FC01828180FF03C0BB24BA9402C0A9
:10447000BB24B39428E1E22E23E0F22E0AE113E0FC
:10448000C0E0D0E0F80131971082F7011082F80106
:10449000108294E0C92ED12CA12C809115038A0D95
:1044A00087FD815F082E000C990BC817D90791F47E
:1044B000809110038C9DA0018D9D500D1124559568
:1044C000479555954795970160910F0380910E038D
:1044D0000E94390DAB0CF1E0CF1AD108F1F621960C
:1044E00084E0E80EF11C0C5F1F4FCF30D10551F670
:1044F0000E945D0C8091150391E0B91206C08111F4
:1045000002C08EE007C0815005C090E00196BE0158
:104510000E943B2980931503DF91CF911F910F914A
:10452000FF90EF90DF90CF90BF90AF900895EF9203
:10453000FF921F93CF93DF93EC0188E1E82E83E095
:10454000F82E10E08C8197014091100360910F03C9
:10455000810F0E94390D1F5E84E0E80EF11C1F3FA1
:1045600089F70E945D0C8A819C8180FF02C09F5F59
:1045700001C091509C83DF91CF911F91FF90EF90EC
:1045800008950F931F93CF93DF9300D000D0CDB742
:10459000DEB78C018091170381110AC09E012F5F45
:1045A0003F4F4FEF6FEF0E94390D8A8180931703C1
:1045B000F8018481813051F028F0823061F440911B
:1045C00017030AC08091170340E007C060911703EA
:1045D00040E080E003C040E080E060E00E94DF0C4B
:1045E000F801248130E0C901019663E070E00E9487
:1045F0003B2984830F900F900F900F90DF91CF9104
:104600001F910F910895CF93DF93EC01EDE0F3E05C
:10461000438162818C810E94DA0D8C818F5F8C8353
:10462000DF91CF910895CF93DF93EC01EC81F0E01F
:10463000EC50FA4F4491EDE0F3E0628181810E94F9
:10464000DA0D8C818F5F8C83DF91CF910895EF928B
:10465000FF920F931F93CF93DF93CDB7DEB767978A
:104660000FB6F894DEBF0FBECDBF4B8B5C8B6D8B4E
:104670007E8B8F8B0E891F8901151105C1F15F3F5C
:1046800011F44F3FA1F1E42EF12CA1E0B0E0042E93
:1046900001C0AA0F0A94EAF7852F90E0662319F06B
:1046A0002091690306C09C01265A3C4FF9012081E4
:1046B0002A232223A9F046E0489F9001499F300D0C
:1046C0001124F701E20FF31FEE0FFF1FEB5BFE4F0C
:1046D00040815181FC01E65AFC4F9081A92B06C014
:1046E000FC01E65AFC4FA0958081A823A08386E0B8
:1046F000FE013D96DF01982F1D929A95E9F74D87AF
:104700005E876F87198B088BDE01179601900D92DB
:104710008A95E1F7CE0107960E943E25811137C0A8
:1047200086E0FE013796DE01119601900D928A9582
:10473000E1F7FF81E8856A857B856115710539F1AF
:10474000EF3F11F4FF3F19F120914C0230E0C90115
:1047500001968770992740917D0250E08417950754
:1047600079F1F983EA837D836C8396E0929FD0018F
:10477000939FB00D1124A35BBD4FFE0131960190B4
:104780000D929A95E1F780934C020E945B1D16E012
:1047900080917D0290914C02891711F1189FC00100
:1047A0001124835B9D4F0E943E258823C9F0809190
:1047B0007D0290E001968770992780937D02E8CF73
:1047C0001092F7010E94232710924C0210927D0252
:1047D000E6E4F2E086E0DF011D928A95E9F7D7CFA3
:1047E00067960FB6F894DEBF0FBECDBFDF91CF91B5
:1047F0001F910F91FF90EF900895209158033091F1
:1048000059038217930771F09093590380935803CB
:10481000E091DD02F091DE02309721F00084F18515
:10482000E02D099408952091560330915703821783
:10483000930771F09093570380935603E091DD0244
:10484000F091DE02309721F00680F781E02D099487
:104850000895E091DD02F091DE02309721F00190A1
:10486000F081E02D099480E008950F931F93CF937A
:10487000DF93C62FD42F022FFC0182818823C9F039
:104880006093EF010E947B1A909355038093540329
:1048900080E28C0F883008F050C0C77081E001C002
:1048A000880FCA95EAF7DF91CF911F910F910C9471
:1048B00041271091EF01161330C08091540390915D
:1048C00055030E94511A883C910538F5C0E2CD0F7E
:1048D0001D17B9F080E2810F883040F4177081E035
:1048E00001C0880F1A95EAF70E943627C83048F4AD
:1048F00081E09D2F977001C0880F9A95EAF70E947A
:104900004127802F0E94B227C830B8F4D77081E0C9
:1049100001C0880FDA95EAF70AC080E28C0F883070
:1049200060F4C77081E001C0880FCA95EAF7DF9193
:10493000CF911F910F910C943627DF91CF911F914A
:104940000F910895CF93DF93D82FC8E08D2F8078F3
:104950000E944221DD0FC150C9F780E00E94422130
:1049600085E08A95F1F7000085E08A95F1F700006F
:1049700080E0DF91CF91089580914B0282958F70F6
:1049800009F054C080914802882309F44FC08091F7
:104990007D02A0914C0260914602709147024091C5
:1049A000490250914A02B6E08A1709F43FC090E0EC
:1049B00041155105C1F17F3F11F46F3FA1F1B89F3F
:1049C000F001B99FF00D1124E35BFD4F21817213BB
:1049D0002AC02081621327C02281211124C0238193
:1049E00034812417350710F421503109241B350B6D
:1049F000283C3105C0F420914B022F702061209398
:104A00004B0226E0289FF001299FF00D1124EE5A59
:104A1000FD4F80818F708061808386E492E00E94E8
:104A200099030C945B1D01968770BECF08950E9478
:104A3000131C292F2F7092959F70E92FF0E0329769
:104A4000EE30F105B8F4EF55FF4F0C944F29803F3D
:104A500099F018F4803E70F40FC0843F59F40CC0F4
:104A6000803E50F0813F31F407C0822F86958695B5
:104A70008695089580E0089581E00895BF92CF92D1
:104A8000DF92EF92FF920F931F93CF93DF93CDB7F7
:104A9000DEB761970FB6F894DEBF0FBECDBF8C01B5
:104AA00085E0F801DE011D9601900D928A95E1F7EF
:104AB000D8013C9111962C9111971296EC90129777
:104AC0001396CD90DC901497509146026091470266
:104AD0008091490290914A02009709F44FC16F3FBB
:104AE00019F45F3F09F44AC1B0904802BB2009F4B1
:104AF000ECC040914B02C816D90628F0F601E81B1D
:104B0000F90BCF0104C0809590958C0D9D1DFF245D
:104B1000F394883C910548F0F12C407F09F09FC048
:104B200086E492E00E94990321C1842F807F09F0DE
:104B300044C0621312C0531310C0E1100EC04F7076
:104B4000406140934B0286E492E00E949903809179
:104B50004B02D80115968C932EC0CD2819F12F3F0A
:104B600011F43F3FF9F0FE2CE1101CC080917D0252
:104B700040914C0256E0841709F458C090E0589FC9
:104B8000F001599FF00D1124E35BFD4F6181261365
:104B900006C06081361303C06281611103C00196B3
:104BA0008770E9CFFE2CEE2009F421C180914B02E1
:104BB000816080934B02F12C1AC162130AC0531317
:104BC00008C0E11006C080914B02D80115968C9365
:104BD000B0C03D872E878D859E850E94172588232E
:104BE000D1F1EE20C1F120914B02822F82958F707E
:104BF00090E0029774F08091460290914702988766
:104C00008F831986DB86CA862C87CE0107960E9481
:104C1000990386E0F801A6E4B2E001900D928A952E
:104C2000E1F70E94BC24FF24F394E1C03D872E8766
:104C30008D859E850E94131C292F22952F7030E0B0
:104C4000223031050CF0C7C09F7009F0C1C0805EF2
:104C5000883008F4CCC0C8010E949903E4CF6213E5
:104C600014C0531312C0E11010C080914B02F80120
:104C70008583C8010E94990386E0E6E4F2E0DF0143
:104C80001D928A95E9F7FB2CB2C03D872E878D8552
:104C90009E850E9417258823F1F2EE20E1F22091F3
:104CA0004B02822F82958F7090E002970CF4B1CF67
:104CB00080914602909147029A8389831B82DD820C
:104CC000CC822E83CE010196A2CFC816D90638F029
:104CD000C81AD90AB8ECCB16D10450F007C0809599
:104CE00090958C0D9D1D883C910510F0F12C3EC0D7
:104CF000FE2CEE2009F4AFCF621327C0531325C05A
:104D000020914B0220FD18C0822F82958F70482F72
:104D100050E04115510581F0F80125834F305105D0
:104D200041F08F5F982F9295907F822F8F70892B03
:104D30008583C8010E94990386E0F801A6E4B2E0E9
:104D400001900D928A95E1F752C03D872E878D859F
:104D50009E850E94172581115CCF80914B02816056
:104D600080934B02C8010E94990341C0E6E4F2E03F
:104D700086E0DF011D928A95E9F739C0EE2009F43B
:104D80006ACF3D872E878D859E850E941725F82E38
:104D9000882309F460CF86E0F801A6E4B2E0019030
:104DA0000D928A95E1F780914602909147020E9408
:104DB000131C92959F70963041F48091690391E0A5
:104DC000892780936903909368030E94BC240FC0D5
:104DD00081113DCF0CC0243031050CF03CCF9F70C9
:104DE00009F435CFF8019581907F09F030CF8F2DF0
:104DF00061960FB6F894DEBF0FBECDBFDF91CF91A5
:104E00001F910F91FF90EF90DF90CF90BF9008958A
:104E10001092BB021092BA020E948C1BEEEEF2E0DE
:104E200086E0DF011D928A95E9F71092F402109254
:104E3000C5020E94871A80E090E00E94132480E05F
:104E400090E00C94FD2380911101882331F0809132
:104E5000DA0287FF02C08EE101C086E0E8E2F2E0FC
:104E6000DF011D928A95E9F70C940827882341F009
:104E700080959091F70189238093F7010C948C1B06
:104E80000895882339F09091F701892B8093F701D9
:104E90000C948C1B0895882309F463C0823869F44C
:104EA0000E94292481FF5DC069E386E292E00E94AE
:104EB000F11A0E948C1B69E30EC0833891F40E94A2
:104EC000292480FF4EC063E586E292E00E94F11A39
:104ED0000E948C1B63E586E292E00E94C61A0C9445
:104EE0008C1B843869F40E94292482FF3AC067E44D
:104EF00086E292E00E94F11A0E948C1B67E4EBCFDD
:104F00009CEF980F913A10F4682FE5CF90E2980F3C
:104F1000983088F4877021E030E0A90102C0440F86
:104F2000551F8A95E2F7CA0180959091F701892370
:104F30008093F701D4CF9BE5980F933020F480E065
:104F400090E00C94132498E5980F973120F480E0BA
:104F500090E00C94FD23803F20F00E94F9180C94FF
:104F6000871A0895CF93C82F0E94C527C93349F4E3
:104F70002FEF83EC99E0215080409040E1F700C092
:104F800000008C2FCF910C944B27882309F416C175
:104F90008238B1F40E94292481FD10C169E386E2C0
:104FA00092E00E94F11A0E948C1B2FEF41EE54E018
:104FB000215040405040E1F700C0000069E317C0B5
:104FC0008338D9F40E94292480FDF8C063E586E285
:104FD00092E00E94F11A0E948C1B8FEF91EE24E068
:104FE000815090402040E1F700C0000063E586E278
:104FF00092E00E94C61A0C948C1B8438B1F40E9473
:10500000292482FDDBC067E486E292E00E94F11A67
:105010000E948C1B4FEF51EE84E041505040804085
:10502000E1F700C0000067E4E2CF9CEF980F913AEF
:1050300030F4682F86E292E00E94F11ADCCF90E211
:10504000980F983080F4877021E030E0A90102C009
:10505000440F551F8A95E2F7CA019091F701892BF9
:105060008093F701C8CF9BE5980F933070F4853A91
:1050700029F0863A31F083E890E005C081E890E0BD
:1050800002C082E890E00C94132498E5980F9731C1
:1050900008F08EC0883A09F445C0893A09F445C041
:1050A0008A3A09F445C08B3A09F445C08C3A09F4B0
:1050B00045C08B3B09F445C08C3B09F445C08D3A93
:1050C00009F445C0803B09F445C08E3A09F445C057
:1050D0008F3A09F445C0813B09F445C0823B09F48D
:1050E00045C0833B09F445C0843B09F445C0853B7A
:1050F00009F445C0863B09F445C0873B09F445C027
:10510000883B09F445C0893B09F445C08D3B09F44F
:1051100045C08E3B09F445C08A3B09F445C080E098
:1051200090E044C082EE90E041C089EE90E03EC045
:105130008AEE90E03BC085EB90E038C086EB90E0D3
:1051400035C083EB90E032C084EB90E02FC087EB5A
:1051500090E02CC08CEC90E029C08DEC90E026C053
:1051600083E891E023C08AE891E020C082E991E0E1
:105170001DC084E991E01AC081E292E017C083E289
:1051800092E014C084E292E011C085E292E00EC089
:1051900086E292E00BC087E292E008C08FE690E0E2
:1051A00005C080E790E002C08AE292E00C94FD2303
:1051B000803F20F00E94C3190C94871A0895F99932
:1051C000FECF92BD81BDF89A992780B50895A6E1DA
:1051D000B0E044E050E00C941929A8E1B0E042E0CE
:1051E00050E00C941929262FF999FECF92BD81BD6C
:1051F000F89A019700B4021639F01FBA20BD0FB615
:10520000F894FA9AF99A0FBE08950396272F0E94F0
:10521000F4280E94F328252F0E94F428242F0C94B0
:10522000F4280196272F0E94F4280C94F328DC011F
:10523000CB01FC01F999FECF06C0F2BDE1BDF89AA1
:10524000319600B40D9241505040B8F70895AA1B12
:10525000BB1B51E107C0AA1FBB1FA617B70710F061
:10526000A61BB70B881F991F5A95A9F78095909593
:10527000BC01CD01089597FB072E16F4009407D0CA
:1052800077FD09D00E94272907FC05D03EF49095B0
:1052900081959F4F0895709561957F4F0895EE0F0A
:1052A000FF1F0590F491E02D0994CF93DF93823096
:1052B000910510F482E090E0E0916C03F0916D03B1
:1052C00020E030E0C0E0D0E0309711F14081518122
:1052D00048175907C0F04817590761F48281938134
:1052E000209719F09B838A832BC090936D03809342
:1052F0006C0326C02115310519F04217530718F425
:105300009A01BE01DF01EF010280F381E02DDCCFC5
:105310002115310509F1281B390B2430310590F492
:1053200012968D919C9113976115710521F0FB01E7
:105330009383828304C090936D0380936C03FD017B
:10534000329644C0FD01E20FF31F819391932250E6
:1053500031092D933C933AC020916A0330916B033D
:10536000232B41F4209102013091030130936B0310
:1053700020936A032091000130910101211531052C
:1053800041F42DB73EB74091040150910501241B13
:10539000350BE0916A03F0916B03E217F307A0F479
:1053A0002E1B3F0B2817390778F0AC014E5F5F4F7B
:1053B0002417350748F04E0F5F1F50936B0340933F
:1053C0006A038193919302C0E0E0F0E0CF01DF91A6
:1053D000CF9108950F931F93CF93DF93009709F414
:1053E0008CC0FC0132971382128200916C031091E1
:1053F0006D030115110581F420813181820F931F06
:1054000020916A0330916B032817390779F5F093DF
:105410006B03E0936A0371C0D80140E050E0AE171F
:10542000BF0750F412962D913C911397AD012115B1
:10543000310509F1D901F3CF9D01DA0133832283CC
:1054400060817181860F971F8217930769F4EC01C1
:1054500028813981260F371F2E5F3F4F31832083EC
:105460008A819B8193838283452B29F4F0936D037A
:10547000E0936C0342C01396FC93EE931297ED01F8
:10548000499159919E01240F351FE217F30771F4DA
:1054900080819181840F951F029611969C938E9323
:1054A0008281938113969C938E931297E0E0F0E0B3
:1054B000D80112968D919C911397009719F0F801DD
:1054C0008C01F6CF8D919C9198012E5F3F4F820FFA
:1054D000931F20916A0330916B032817390769F4F1
:1054E000309729F410926D0310926C0302C013825E
:1054F000128210936B0300936A03DF91CF911F9187
:105500000F910895FC014150504030F00190061673
:10551000D1F73197CF010895882799270895F894F6
:02552000FFCFBB
:1055220000006E03200001191A1B1C1D1E1F2021E2
:10553200220120001318B218871816184C180102FD
:105542000001020202020606060909090909090FF9
:105552000F0F0F0F0F1515151819191919191919F8
:105562001919192324000D010D020D030D040D0557
:105572000D000C010C020C030C040C050C000B01B9
:105582000B020B030B040B050B000A010A020A03B0
:105592000A040A050A0009010902090309040905A6
:1055A20009000801080208030804080508000701A9
:1055B20007020703070407050700060106020603A0
:1055C2000604060506000501050205030504050596
:1055D2000500040104020403040404050400030199
:1055E2000302030303040305030002010202020390
:1055F2000204020502000101010201030104010586
:0E56020001000001000200030004000500008A
:00000001FF
