:100000000C946F020C948C020C948C020C948C0255
:100010000C948C020C948C020C948C020C948C0228
:100020000C948C020C948C020C94A4130C94E0128B
:100030000C9409170C948C020C948C020C948C0276
:100040000C948C020C948C020C948C020C948C02F8
:100050000C948C020C9497160C948C020C948C02C9
:100060000C948C020C948C020C948C020C948C02D8
:100070000C948C020C948C020C948C020C948C02C8
:100080000C948C020C948C020C948C020C948C02B8
:100090000C948C020C948C020C948C020C948C02A8
:1000A0000C948C020C948C020C948C026F047104DE
:1000B0007C0473047504770479047B047E04800453
:1000C00082048D048404860488048A048C048F04CA
:1000D000C505C505030603063F065F0631088A0805
:1000E000A1068A088E078E079B079B079B079B0725
:1000F0009B079B079B079B079B079B079B079B07F0
:100100009B079B079B079B07AC07D407D907E00712
:10011000F8075E096109640967096A096D097009D0
:10012000930D980DA20D960D9B0DA00D9E0DF11037
:100130001811B8121811B81260118311B812811277
:1001400094121F1D1F1D321D321D281D321D321D10
:10015000321D1F1D1F1D2D1D321D321D2D1D2D0079
:100160002B00E300E100350000001E001400040035
:100170001D00010001001F001A0016001B000100F5
:10018000E000200008000700060000042C00210009
:10019000150009001900A8000100220017000A003C
:1001A000050000005201AA00260200002F000000F6
:1001B0001409AA002702000030000000E20023001A
:1001C0001C000B0011000000220A240018000D0082
:1001D000100001512C0C25000C000E0036000251BD
:1001E0002900260012000F00370001002A00270016
:1001F00013003300387101004C002E00310028003C
:1002000034000100000001000100010001000100B4
:1002100000003A00010001000100010001003B0064
:10022000010001000100010001003C00010001008B
:100230000100010001003D0001000100010001007A
:1002400001003E000100010001000000010001006A
:10025000010000002F020000010001000100000069
:100260003002000001003F000100500001000000CA
:1002700001004000010051000100010001004100A7
:1002800001005200010001000100420001004F0086
:10029000010001004C004300010001003100010099
:1002A00001004400450001000100010000000100C0
:1002B0000100010001000100000001000100010037
:1002C0000100010001000100010001000100010026
:1002D0000100010001000100010001000100010016
:1002E0000100010001000100010001000100010006
:1002F00001000000010001000100000001000000F9
:1003000001000100010000000100000001000100E7
:100310000100FB0001000000010001000100F900E4
:1003200001000100010001000100FA0001000100CC
:10033000010001000100FC000100010001000100BA
:1003400001000100010001000100010001000100A5
:1003500001000100000005010902A1018502090157
:10036000A10005091901290515002501950575014B
:10037000810295017503810105010930093115815B
:10038000257F95027508810609381581257F95011D
:1003900075088106050C0A38021581257F950175BF
:1003A000088106C0C005010980A10185031601006E
:1003B0002603001A81002A8300751095018100C070
:1003C000050C0901A1018504160100269C021A01F1
:1003D000002A9C02751095018100C005010906A143
:1003E000018505050719E029E71500250195087520
:1003F00001810205081901290595057501910295EC
:1004000001750391010507190029EF1500250195D4
:10041000F075018102C005010906A101050719E077
:1004200029E71500250195087501810295017508D8
:1004300081010508190129059505750191029501AC
:10044000750391010507190029FF150026FF009586
:100450000675088100C009023B00020100A0FA09EC
:1004600004000001030101000921110100012240E3
:10047000000705810308000A0904010001030000C8
:100480000009211101000122C0000705820320009C
:100490000A1201100100000008EDFE07130100011F
:1004A00002030104033000000016034500720067D8
:1004B000006F0044006F007800200045005A0000E3
:1004C0000016034500720067006F0044006F00785B
:1004D00000200045005A0000000403090400112414
:1004E0001FBECFEFDAE0DEBFCDBF11E0A0E0B1E08C
:1004F000E4E6F6E402C005900D92AC3BB107D9F7F3
:1005000022E0ACEBB1E001C01D92A43FB207E1F7DD
:100510000E946D1A0C9430230C9400008F929F92CD
:10052000AF92BF92CF92DF92EF92FF920F931F9301
:10053000CF93DF93CDB7DEB728970FB6F894DEBF21
:100540000FBECDBFFC01F080118183819481892B86
:1005500009F421C61F3F21F40FEFF01609F41BC662
:100560006F0185E0DE01119601900D928A95E1F709
:10057000F601228189819A81222349F00E94501834
:10058000082F682F89819A810E94C91803C00E9490
:100590009C18082F26E0129FF001112434E5039FD8
:1005A000E00DF11D1124EF0DF11DEE0FFF1FE25ABA
:1005B000FE4F05911491F6018281073FFCE51F076C
:1005C00009F040C0882309F441C09091AF0281E056
:1005D000890F8770987F853020F4892B8093AF0234
:1005E00002C09093AF028091AF0287702FEF829F7D
:1005F000C001112495958795959587959927909396
:1006000089008093880090938B0080938A00909358
:100610008D0080938C004091AF025091B0026091A8
:10062000B1027091B2028FE090E00E94B32160911C
:1006300098027091990280919A0290919B020E9477
:10064000340D04C00A3F3CE5130781F1F6018281B5
:10065000882379F0033E8CE5180709F44FC008F0B1
:1006600042C0013EECE51E07C1F51092AB020E94AC
:10067000D10A17FFB7C0F6018281811145C005314B
:10068000FCE51F0708F4FFC00C3D9CE5190709F4C1
:10069000CDC108F4D3C10D3D2CE5120709F411C2F8
:1006A0000E3D1C4509F016C2F6018281882309F42B
:1006B00072C528960FB6F894DEBF0FBECDBFDF918E
:1006C000CF911F910F91FF90EF90DF90CF90BF904F
:1006D000AF909F908F900C949517023EFCE51F07FA
:1006E00041F681E00EC0043E2CE5120749F0053EBC
:1006F0003CE5130709F0BDCF84E003C082E001C0F0
:1007000083E08093AB02B3CF8091DA018093BC0188
:100710001092DA018091AB02813071F048F08230A2
:10072000D1F08430F1F486EE0E94AA1F88E117C050
:1007300082EE0E94BD1F15C081E199E00E94C90FA1
:1007400088E10E94BD1F88E10E94431F81E099E07B
:100750000E94C90F06C082EE0E94BD1F87E50E945D
:10076000AA1F8FE39CE90197F1F700C00000780110
:10077000E894F7F85CE0A52EB12CC7010A2C02C062
:10078000969587950A94E2F7282F2F7041F0822FD3
:1007900090E02A3010F44D9604C0069702C087E21C
:1007A00090E00E94AA1F94E0A91AB108ECEFAE16DF
:1007B000EFEFBE0611F78091AB02813039F040F0C7
:1007C000823031F0843051F488E206C08CE204C0FB
:1007D00082EE0E94431F02C00E94AA1F8091BC01AA
:1007E0008093DA01003FFCE51F07B1F180F4083D7A
:1007F0003CE51307C9F0093D8CE51807C9F1073D31
:100800009CE51907C1F526E241EE61EE10C0023FFA
:10081000ECE51E0749F120F1033F2CE5120759F5DD
:1008200027E245EE66EE03C027E245EE65EEC6011F
:1008300028960FB6F894DEBF0FBECDBFDF91CF91E3
:100840001F910F91FF90EF90DF90CF90BF90AF90EE
:100850009F908F900C94900E26E241EE60EEE7CFD1
:1008600027E245EE64EEE3CF26E241EE62EEDFCF13
:1008700028E241E0DBCFF6018281882309F4CCC075
:100880001092BD01FCCE02302CE5120708F46CC0BA
:10089000F6018281882309F41DC180E090E00E9466
:1008A0009B218D3E9E4F11F00E94951784E090E0B1
:1008B0000E948D2190E09093C2028093C102F801C2
:1008C000E350FC45E231F10530F4EA5AFF4F8091E4
:1008D000C1020C94FD218091C102816027C0826019
:1008E00025C0846023C0806121C080621FC08064F5
:1008F0001DC080681BC08460886018C08E7F16C0D1
:100900008D7F14C08B7F12C08F7E10C08F7D0EC074
:100910008F7B0CC08F770AC08B7F877F07C087FBD8
:10092000222720F991E0922790FB87F98093C1025A
:100930006091C10284E090E00E94A1211092DA014E
:1009400028960FB6F894DEBF0FBECDBFDF91CF91D2
:100950001F910F91FF90EF90DF90CF90BF90AF90DD
:100960009F908F900C941B1F01153CE5130709F015
:1009700044C0F6018281882309F40DC41092DA0183
:100980000E941B1FFFEF04E31CE0F15000401040E9
:10099000E1F700C00000F89481E08093E00080E27D
:1009A0008093D8001092C9008FE19EE40197F1F77F
:1009B00000C000001DBA109268001CBC10BE1FBA17
:1009C00010927A0010926E0010926F0010927100D7
:1009D000109272001092C9001092BC0014B817B89F
:1009E0001AB81DB810BA1092BC0015B818B81BB8C8
:1009F0001EB811BA0C94003FCEC301301C4509F05B
:100A000069C0F6018281882309F4C5C38091DE02A2
:100A100081608093DE02BFC30531FCE51F0708F447
:100A200068C00C3D9CE5190709F041C0F6018281C0
:100A3000882309F4B0C31092ED02ADC306311C4502
:100A400009F048C09091DA01F6018281882381F093
:100A50009A7A81E009F480E08093BE01811102C09E
:100A600069E201C065E389E092E00E945D170BC076
:100A70008091BE01811102C069E201C065E389E095
:100A800092E00E94321728960FB6F894DEBF0FBE90
:100A9000CDBFDF91CF911F910F91FF90EF90DF902D
:100AA000CF90BF90AF909F908F900C940A180D3DFF
:100AB000ECE51E0708F465C30D3D2CE5120709F0AF
:100AC00065C3F6018281882309F465C382E08093BF
:100AD000ED0261C3F6018281008111818823D1F08A
:100AE000C8010E945018F82E682FC8010E94C9182A
:100AF00015C002302CE5120708F0CACE01153CE5FE
:100B0000130709F436CF01301C4509F47ACFF601FA
:100B100000811181C8010E949C18F82EB8018F2D08
:100B20000E94D70A182F382FF601258122952F70A1
:100B30000281011110929E0280919C028770A9F09F
:100B4000002399F080E2810F883078F082E02F83D3
:100B500038879E830E942A1980919C028770EE2418
:100B6000E3942F8138859E818111E12CA92EA294D6
:100B70004FE0A422B12CFCE0AF16B10408F0CAC2C9
:100B8000F501E859FF4F0C94FD21892F807F9F705C
:100B9000F92E882319F0F29480EFF8220023B9F09F
:100BA000FF2009F448C280E2810F883010F0311133
:100BB00006C09091DA01F92AF092DA0105C090910D
:100BC0009E02F92AF0929E020E940A1834C2812FD6
:100BD00038870E94431F3885FF2009F49BC2105EAE
:100BE000F094183010F0311106C09091DA01F9221A
:100BF000F092DA0105C090919E02F922F0929E02D5
:100C00000E940A1887C2492F407F892F8F70403277
:100C100011F08295807F332319F03130E9F025C03F
:100C2000002381F030919F02222351F0213041F4C2
:100C3000982F932B391709F46DC290939F026AC2C3
:100C4000832B81C1222319F0213009F463C28E83E2
:100C50000E9404188E817DC1002321F0223008F00B
:100C600059C271C1211156C274C1002321F022233F
:100C700009F469C1E0C1222309F46BC1EEC1292F37
:100C800026952695237030E02115310521F021307D
:100C9000310559F03FC2002319F0812F937002C033
:100CA00080E090E00E94AF0A43C2002319F0812F38
:100CB000937002C080E090E00E94990A39C200233C
:100CC000F9F0153F51F0163F71F0143FA9F48091EF
:100CD000BF019091C00181600BC08091BF019091D4
:100CE000C001826005C08091BF019091C001846005
:100CF0009093C0018093BF01812F0E942F161EC0C8
:100D0000153F51F0163F71F0143FA9F48091BF01D7
:100D10009091C0018E7F0BC08091BF019091C00166
:100D20008D7F05C08091BF019091C0018B7F909312
:100D3000C0018093BF01812F0E9465150E94F316A8
:100D4000F7C1892F837009F071C00111EFC1812FA4
:100D5000829586958770880F880F412F4F7050E0DD
:100D600060E070E04A015B01082E04C0880C991C09
:100D7000AA1CBB1C0A94D2F714FF12C00FE010E0AB
:100D800020E030E004C0000F111F221F331F8A959E
:100D9000D2F7B901A801409550956095709503C0B0
:100DA00040E050E0BA01969596959370892F90E0B7
:100DB00082309105E9F08330910579F10091A0022C
:100DC0001091A1022091A2023091A302019759F043
:100DD000482959296A297B29CB01BA01602371234B
:100DE0008223932320C0802A912AA22AB32A15C0E5
:100DF000482959296A297B298091A0029091A10252
:100E0000A091A202B091A3028A019B010827192791
:100E10002A273B27C901B80106C0CB01BA016829BE
:100E200079298A299B290E94641980C1002319F01D
:100E3000892F817001C08695882309F477C1812F9D
:100E4000829586958770880F880F412F4F7050E0EC
:100E500060E070E04A015B01082E04C0880C991C18
:100E6000AA1CBB1C0A94D2F714FF12C00FE010E0BA
:100E700020E030E004C0000F111F221F331F8A95AD
:100E8000D2F7B901A801409550956095709503C0BF
:100E900040E050E0BA01969596959370892F90E0C6
:100EA00082309105E9F08330910579F10091980243
:100EB0001091990220919A0230919B02019759F06A
:100EC000482959296A297B29CB01BA01602371235A
:100ED0008223932320C0802A912AA22AB32A15C0F4
:100EE000482959296A297B29809198029091990271
:100EF000A0919A02B0919B028A019B0108271927B1
:100F00002A273B27C901B80106C0CB01BA016829CD
:100F100079298A299B290E94F91808C1412F50E09C
:100F2000FA01E05EF109E531F10508F07FC0EC5807
:100F3000FF4F0C94FD211F70892F8F71002331F01A
:100F40000E944319812F0E94391FE4C00E94051995
:100F5000812F0E942E1FDEC0002311F12111DAC063
:100F6000292F2F7181E090E0A0E0B0E0AC01BD013D
:100F700004C0440F551F661F771F2A95D2F7809132
:100F8000980290919902A0919A02B0919B028A01D5
:100F90009B01082719272A273B27C901B80125C02B
:100FA000223008F0B7C0DCCF002329F0892F8F71E1
:100FB0002EC00023D9F3892F8F710E940519AAC072
:100FC000002381F0292F2F7181E090E0A0E0B0E0B4
:100FD000BC01CD0104C0660F771F881F991F2A9599
:100FE000D2F703C060E070E0CB010E94F91892C014
:100FF000002381F0192F1F71812F0E94431928E0CF
:10100000129FC0011124836080939C02812F0E9453
:10101000431980C081E02F830E942A192F8122303A
:1010200008F478C082E00E942A1974C0002339F0C5
:10103000222309F4BBCF812F0E94BD1F6BC0222346
:1010400009F4B9CF193349F43FEF87EE93E03150FB
:1010500080409040E1F700C00000812F0E94431FB4
:1010600059C0323FB1F028F4303F49F0313FF9F038
:1010700028C0343FB9F058F0353F71F022C000234A
:1010800009F456C09091EF0281E0892708C081E001
:1010900008270093EF024CC001114AC081E0809301
:1010A000EF0246C0011144C01092EF0241C000237C
:1010B00029F08091EE02882329F329C0222311F31D
:1010C00037C08091EE022223C1F0882341F0909135
:1010D000EF0281E089278093EF021092EE02812FC8
:1010E000002319F00E94BD1F23C00E94431F86E009
:1010F000F60111928A95E9F71BC08823C9F0011106
:1011000017C09091EF0281E089278093EF0210923F
:10111000EE020EC0F8E0AF16B10441F04CF01AE058
:10112000A11AB10822E0A216B10410F40E94C50A67
:10113000EE2089F180919C0280FD2DC0F601128283
:101140008595859585950E944319C6010E948E025A
:1011500080919C0285958595859528960FB6F89483
:10116000DEBF0FBECDBFDF91CF911F910F91FF90DA
:10117000EF90DF90CF90BF90AF909F908F900C94A6
:10118000051906311C4509F45DCCC1CC0E3D1C454A
:1011900009F48ACABCCC28960FB6F894DEBF0FBEFD
:1011A000CDBFDF91CF911F910F91FF90EF90DF9016
:1011B000CF90BF90AF909F908F9008959091C10273
:1011C00092FF0DC0282F2871283019F4877F846082
:1011D00006C0282F2471243011F48B7F886093FF80
:1011E0000DC0282F2871283119F4877E846106C02C
:1011F000282F2471243111F48B7E886194FD877E21
:101200000895282F277081E090E001C0880F2A956B
:10121000EAF7809590919E02892380939E020C9418
:101220000A18282F277081E090E001C0880F2A95C6
:10123000EAF790919E02892B80939E020C940A18E3
:10124000CF93E82F873080F58091070190910801B6
:10125000892B09F047C0CE2F64E670E080E40E943D
:10126000DD209093080180930701892BD1F464E677
:1012700070E082E10E94342190930801809307017D
:10128000892B79F481E090E001C0880FCA95EAF7D4
:1012900064E670E080950E94342190930801809369
:1012A0000701CF910C94892190E0FC013797E7303A
:1012B000F105C0F4E757FF4F0C94FD21209A2898C0
:1012C00011C0219A29980EC0229A2A980BC0239AFD
:1012D0002B9808C0529A5A9805C0539A5B9802C03E
:1012E0003E9A4698CF910895CF93873008F03FC03B
:1012F0008091070190910801892B09F041C064E6B3
:1013000070E080E40E94DD20909308018093070143
:10131000892B11F0C0E027C064E670E083E10E94F1
:1013200034219093080180930701892B99F764E693
:1013300070E081E40E94DD20909308018093070112
:10134000892B41F784E690E00E94642197FF05C055
:101350009093080180930701DDCFC82FC0951092AC
:101360000801109207010E9489218C2F0AC09FB1A9
:101370008FB1807F869586959370892B809501C06B
:1013800080E0CF910895EF92FF920F931F93CF9338
:10139000DF93CDB7DEB767970FB6F894DEBF0FBE09
:1013A000CDBF4B8B5C8B6D8B7E8B8F8B0E891F899A
:1013B00001151105C1F15F3F11F44F3FA1F1E42E7A
:1013C000F12CA1E0B0E0042E01C0AA0F0A94EAF7C4
:1013D000852F90E0662319F02091EF0206C09C0152
:1013E00025533E4FF90120812A232223A9F046E00C
:1013F000489F9001499F300D1124F701E20FF31F20
:10140000EE0FFF1FED5EFE4F40815181FC01E55361
:10141000FE4F9081A92B06C0FC01E553FE4FA0951D
:101420008081A823A08386E0FE013D96DF01982FEE
:101430001D929A95E9F74D875E876F87198B088B08
:10144000DE01179601900D928A95E1F7CE0107967D
:101450000E94361D811137C086E0FE013796DE01FD
:10146000119601900D928A95E1F7FF81E8856A85D2
:101470007B856115710539F1EF3F11F4FF3F19F1DB
:1014800020912F0230E0C901019687709927409181
:10149000600250E08417950779F1F983EA837D8330
:1014A0006C8396E0929FD001939FB00D1124A05DB4
:1014B000BD4FFE01319601900D929A95E1F7809310
:1014C0002F020E946E1916E08091600290912F0207
:1014D000891711F1189FC0011124805D9D4F0E9452
:1014E000361D8823C9F08091600290E001968770D4
:1014F000992780936002E8CF1092DA010E941B1FA7
:1015000010922F0210926002E9E2F2E086E0DF0121
:101510001D928A95E9F7D7CF67960FB6F894DEBF8C
:101520000FBECDBFDF91CF911F910F91FF90EF9034
:1015300008952091C9013091CA018217930771F073
:101540009093CA018093C901E091C302F091C40253
:10155000309721F00084F185E02D099408952091C1
:10156000C7013091C8018217930771F09093C801A9
:101570008093C701E091C302F091C402309721F03B
:101580000680F781E02D09940895E091C302F0915F
:10159000C402309721F00190F081E02D099480E0A1
:1015A00008956091AB028CE090E00C94A121CF9360
:1015B000DF9326E0729FF001112434E5839FE00D54
:1015C000F11D1124E60FF11DEE0FFF1FE25AFE4F31
:1015D000C591D491CE01C238D10549F1B0F4C133DF
:1015E000D10509F464C048F4C932D10509F458C0E2
:1015F000CA32D10509F462C068C0C533D10509F407
:1016000048C0C933D10599F060C0C33ED10541F14E
:1016100038F4C03ED10591F0C23ED105B1F055C0BD
:10162000C63ED10521F1C73ED10561F14EC02091E2
:10163000C10220FD14C221FD12C213C22091C102B9
:1016400020FF0FC289E390E00CC22091C10222FF6B
:1016500008C28091C10284FDB4C183EE90E001C252
:101660008091C10282FFF5CF82EE90E0FAC1209115
:10167000C10223FFF6C18091C10284FDA2C187EEA1
:1016800090E0EFC18091C10283FFF5CF86EE90E03C
:10169000E8C12091C10225FFE4C189E290E0E1C1E7
:1016A0002091C10225FFDDC185E390E0DAC12091E0
:1016B000C10226FFD6C18AE290E0D3C12091C102C7
:1016C00026FFCFC181E390E0CCC1C11520E5D20750
:1016D00008F047C0C11530E4D30708F034C1C83E54
:1016E000D10518F5C03ED10508F0BBC1C83AD105F7
:1016F00070F4C53AD10508F0B0C0C130D10509F485
:10170000B0C108F45EC1249708F45BC1AAC1CF3B05
:10171000D10508F4ADC0C03CD10508F452C1FE01AA
:10172000EE0FFF1FEA52FE4F02C1C11520E2D207A1
:1017300060F4C11531E0D30708F093C1C03FD10573
:1017400008F43FC1CE0190658CC1C11580E3D80774
:1017500008F0F0C0FE01FF70EE0FFF1FEA5AFC4FC9
:10176000E6C0C11595E5D90708F044C0C11524E5C8
:10177000D20708F000C1C11532E5D30710F5C11535
:1017800081E5D80708F0E3C02C2F237081E090E0BA
:1017900002C0880F991F2A95E2F79C689E0174E0A9
:1017A000369527957A95E1F72370922BEC2FEF7001
:1017B000E695E69530E2E39FF00111248E2B9F2BF6
:1017C00050C18C2F86958695AE0143705527C11563
:1017D000D34508F0C1C090E2899F9001112481E0B7
:1017E00090E002C0880F991F4A95E2F7822B932B55
:1017F0009C6837C1C1152AE5D207A0F4C11539E5A7
:10180000D30708F0C6C0C11586E5D80708F4B8C0EC
:10181000C11598E5D90708F4D4C09C2F8827806F9C
:10182000906A1FC1C1152BE5D20708F4CAC0CE01CA
:10183000C1153CE5D30708F4C1C09056811590420C
:1018400008F0BFC08D2F8F710E94DE08FE01FF27B8
:10185000F0628F719F01382BAFC0C53AD10509F4F2
:10186000B3C0C63AD10509F0B2C082E890E4F9C02D
:10187000C83AD10509F4AEC0C93AD10509F4ADC0E2
:10188000CA3AD10509F4ACC0CB3AD10509F4ABC0D2
:10189000CC3AD10509F4AAC0CB3BD10509F4A9C0C3
:1018A000CC3BD10509F4A8C0CD3AD10509F4A7C0B5
:1018B000C03BD10509F4A6C0CE3AD10509F4A5C0B4
:1018C000CF3AD10509F4A4C0C13BD10509F4A3C0A6
:1018D000C23BD10509F4A2C0C33BD10509F4A1C0A4
:1018E000C43BD10509F4A0C0C53BD10509F49FC094
:1018F000C63BD10509F49EC0C73BD10509F49DC084
:10190000C83BD10509F49CC0C93BD10509F49BC073
:10191000CD3BD10509F49AC0CE3BD10509F499C05D
:10192000CA3BD10509F498C080E094E49AC085913F
:10193000949197C09E013327C901D3FF02C0986CD0
:1019400090C0906C8EC0CE019F70906A8AC09C2F10
:101950008827816F906A85C090E2899F9001112449
:1019600081E090E002C0880F991F4A95E2F7822B30
:10197000932B9A6876C09C2F8827846F906A71C0D9
:101980008C2F0E94DE088F7190E0982F882790623C
:1019900068C08C2F8F700E94DE08FE0194E0F695DF
:1019A000E7959A95E1F7EF70F0E0FE2FEE27F06AE9
:1019B0008F70806E9F01282BC90153C099279066B4
:1019C00050C080E090E04DC081E890E44AC083E8D8
:1019D00090E447C082EE94E444C089EE94E441C0B0
:1019E0008AEE94E43EC085EB94E43BC086EB94E43D
:1019F00038C083EB94E435C084EB94E432C087EBC9
:101A000094E42FC08CEC94E42CC08DEC94E429C0B9
:101A100083E895E426C08AE895E423C082E995E44A
:101A200020C084E995E41DC081E296E41AC083E2F7
:101A300096E417C084E296E414C085E296E411C0EF
:101A400086E296E40EC087E296E40BC08FE694E44B
:101A500008C080E794E405C08AE296E402C080EE04
:101A600090E0DF91CF910895CF92DF92EF92FF92B5
:101A70000F931F936C01EE24FF24C114D104E104E1
:101A8000F10411F0E0E103C06B017C01E0E03327D9
:101A90002F2D1E2D0D2D011511052105310519F0D4
:101AA000E85F6801790197018601F4E03695279592
:101AB00017950795FA95D1F70115110521053105FF
:101AC00019F0EC5F680179019701860152E03695C3
:101AD0002795179507955A95D1F7011511052105F9
:101AE000310519F0EE5F680179019701860136959D
:101AF000279517950795012B022B032B09F0EF5F14
:101B000056985E9825982D9826982E9827982F9865
:101B10000E2F10E0F8013197E730F105A8F4E057F7
:101B2000FF4F0C94FD21259A2D9A0EC0259A2D9ACF
:101B3000269A2E9A09C0259A2D9A04C0259A2D9A84
:101B4000269A2E9A279A2F9A1F910F91FF90EF9025
:101B5000DF90CF90089580E290E090930801809309
:101B600007018091C40181110EC00E94D72081E03D
:101B70008093C4012FEF83ED90E32150804090408B
:101B8000E1F700C0000064E670E080E40E94DD2020
:101B90009093080180930701892B09F04EC064E6F9
:101BA00070E080E00E943421909308018093070147
:101BB000892B09F042C064E670E080E00E94342185
:101BC0009093080180930701892BB9F564E670E0D2
:101BD0008FE30E9434219093080180930701892BA1
:101BE00061F50E94892164E670E080E40E94DD20B6
:101BF0009093080180930701892BF9F464E670E063
:101C00008CE00E9434219093080180930701892B76
:101C1000A1F464E670E080E00E9434219093080112
:101C200080930701892B49F464E670E08FE30E94FA
:101C3000342190930801809307010E9489218091AB
:101C40000701089556985E9825982D9826982E9805
:101C500027982F988FEF90E09093890080938800C9
:101C600090938B0080938A0090938D0080938C00DA
:101C7000259A2D9A2FEF80E792E0215080409040E6
:101C8000E1F700C00000269A2E9A2FEF80E792E03D
:101C9000215080409040E1F700C00000279A2F9A21
:101CA0002FEF80E792E0215080409040E1F700C0A4
:101CB000000025982D982FEF80E792E0215080407A
:101CC0009040E1F700C0000026982E982FEF80E7A3
:101CD00092E0215080409040E1F700C0000027983A
:101CE0002F9856985E9825982D9826982E98279884
:101CF0002F98089584B1807F84B985B1807F85B99C
:101D00008AB1837F8AB98BB1837F8BB93E9846981D
:101D1000089580B38C7080BB81B3836F81BB0895BD
:101D20000F931F93CF93DF93C62FD42F022FFC0165
:101D300082818823C9F06093BD010E94E7169093C9
:101D4000C6018093C50180E28C0F883008F050C036
:101D5000C77081E001C0880FCA95EAF7DF91CF9183
:101D60001F910F910C94391F1091BD01161330C0B3
:101D70008091C5019091C6010E94BD16883C9105D5
:101D800038F5C0E2CD0F1D17B9F080E2810F883021
:101D900040F4177081E001C0880F1A95EAF70E949D
:101DA0002E1FC83048F481E09D2F977001C0880F26
:101DB0009A95EAF70E94391F802F0E94AA1FC83007
:101DC000B8F4D77081E001C0880FDA95EAF70AC04D
:101DD00080E28C0F883060F4C77081E001C0880F0A
:101DE000CA95EAF7DF91CF911F910F910C942E1FA6
:101DF000DF91CF911F910F9108959F92AF92BF9263
:101E0000CF92DF92EF92FF920F931F93CF93DF93C6
:101E10008091070190910801892B91F08091C30175
:101E20008F5F8093C30181110BC00E94AB0D90E0C6
:101E30009093080180930701892B11F40E94220ED0
:101E400003EB12E02AEBE22E22E0F22E6801C0E062
:101E5000912C97E0A92EAC0E8C2F0E9420098A2D80
:101E60000E9420098C2F0E947409F6019081981716
:101E700021F08083BB24B39401C0B12C8A2D0E9431
:101E80007409F7019081981719F0808381E001C0EF
:101E900080E0B82A9B280E947A0ECF5FFFEFCF1A0E
:101EA000DF0A8FEFE81AF80AC73099F60E94E716A2
:101EB0006AEF70E00E94D5219C01682F8091C201D9
:101EC0008823E9F11092C201E091A902F091AA02DF
:101ED000DF011E9690E07BEF8AEFE82EF12C8081E7
:101EE0008B3FA9F0482F50E0681728F0E901C41B88
:101EF000D50BAE0106C06701C41AD50AA601420F70
:101F0000531F4F30510514F0708301C091E031969A
:101F1000EA17FB0721F79093C201911002C09111BB
:101F200010C01092C101A091A902B091AA02909193
:101F3000C201E6ECF2E080E03EE03E0F07C0911007
:101F4000F0CF8091C1018111ECCF16C0E801299139
:101F50008E014081421741F04C914B3F21F46C932C
:101F6000208391E001C081E0119631963E13EECFBF
:101F70009093C2018093C101892DDF91CF911F9170
:101F80000F91FF90EF90DF90CF90BF90AF909F9018
:101F90000895CF93DF93EC0180EEFE01099581EE69
:101FA000FE01DF91CF910994CF92DF92FF920F93C0
:101FB0001F93CF93DF931F92CDB7DEB7F82E8B011F
:101FC00099830E947819998181111CC0CF2CD92E38
:101FD00001151105B1F08091E80085FD0AC08091DE
:101FE000E8008E778093E8000E947819882381F3B7
:101FF00009C0F60181916F018093F1000150110930
:10200000E7CF80E00F90DF91CF911F910F91FF906C
:10201000DF90CF9008951F93CF93DF93CDB7DEB7B6
:10202000AA970FB6F894DEBF0FBECDBFE1E0F2E095
:1020300088E08E0F9091F10091938E13FBCF8091E9
:102040000202833009F460C030F4813071F08230D4
:1020500009F49CC0B3C08A3009F488C08B3009F4FD
:102060006BC0893009F0AAC020C080910102813A7A
:1020700009F0A4C08091E800877F8093E8008091F8
:10208000050290910602892B21F460E28DED91E02A
:1020900003C060E080E090E070E00E94FE19809153
:1020A000E8008B778093E80089C08091010281323B
:1020B00009F084C08091050290910602029708F011
:1020C0007DC08091E800877F8093E8008091E800E0
:1020D00082FD05C08091FF018111F8CF6FC0209172
:1020E000F3008091F20090E0922B029729F4809106
:1020F000F1008B7F813021F48091F1008093DC012D
:102100008091E8008B7756C080910102813A09F0F6
:1021100055C08091050290910602892B09F04EC0AE
:102120008091E800877F8093E8008091E80080FF3D
:10213000FCCF8091060139C0809101028132F1F516
:102140008091050290910602892BC1F58091E800EB
:10215000877F8093E8000E94AA19809103028093F0
:1021600006011092DA010E941B1F28C08091010213
:10217000813221F58091E800877F8093E8000E94FA
:10218000AA19809104028093DB0118C0809101029A
:10219000813AA1F48091E800877F8093E8008091E4
:1021A000E80080FFFCCF8091DB018093F1008091FB
:1021B000E8008E778093E8000E94AA198091E800D9
:1021C00083FFD6C18091010290910202492F50E015
:1021D0004A30510508F0CCC1FA01E956FF4F0C9482
:1021E000FD21803821F0823809F0C2C108C08091F9
:1021F000FD019091FE01992389F082600FC08091CA
:1022000005028F70873008F0B3C18093E900809198
:10221000EB0085FB882780F91092E9009091E80097
:10222000977F9093E8008093F1001092F10074C1C1
:10223000282F2D7F09F09CC1882319F0823061F08E
:1022400097C180910302813009F092C1933009F067
:1022500080E08093FE012EC08091030281112AC08C
:10226000809105028F702FEF280F263008F080C173
:102270008093E9002091EB0020FF1CC0933021F4F3
:102280008091EB00806214C09091EB00906190937C
:10229000EB0021E030E0A90102C0440F551F8A95F0
:1022A000E2F74093EA001092EA008091EB00886028
:1022B0008093EB001092E9008091E800877F2FC1A6
:1022C000811156C1109103021F778091E30080783D
:1022D000812B8093E3008091E800877F8093E80062
:1022E0000E94AA198091E80080FFFCCF8091E30052
:1022F00080688093E300111102C082E001C083E096
:102300008093FF0135C18058823008F031C180913F
:102310000302909104028C3D53E0950779F583E028
:102320008A838AE289834FB7F894DE01139620E00E
:102330003EE051E2E32FF0E050935700E49120FF9C
:1023400003C0E295EF703F5FEF708E2F90E0EA30B0
:1023500010F0C79601C0C0968D939D932F5F2431D6
:1023600049F74FBF8091E800877F8093E8006AE2D9
:1023700070E0CE0101960E94FE19BDC04091050299
:1023800050910602292F332723303105B9F06CF420
:102390002130310509F4FBC02230310509F0E8C0D5
:1023A0008BE390E0E6E5F4E054C02132310509F416
:1023B00033C02232310509F43CC0DAC0992781309C
:1023C0009105D1F05CF4892B09F0D2C0E9EDF4E07D
:1023D000E4918E2F90E0E9EDF4E038C08230910571
:1023E00099F0039709F0C4C0E3EAF4E0E4918E2F7A
:1023F00090E0E3EAF4E02AC0E1ECF4E0E4918E2F0F
:1024000090E0E1ECF4E022C0E9EAF4E0E4918E2F00
:1024100090E0E9EAF4E01AC04115510509F4BCC0A6
:102420004130510509F0A4C089E090E0E1E8F4E012
:1024300010C04115510509F4B4C04130510509F0EF
:1024400097C080EC90E0E6E5F3E003C0009709F464
:102450008FC02091E800277F2093E8002091070299
:10246000309108022817390708F4C90140E00097A5
:1024700089F12091FF01222309F43DC02530D9F1D3
:102480002091E80023FD37C02091E80022FD2FC0F5
:102490002091E80020FFEBCF4091F3002091F20063
:1024A00030E0342B009759F02830310540F4449146
:1024B0004093F100319601972F5F3F4FF3CF41E0FA
:1024C0002830310509F040E02091E8002E77209374
:1024D000E800CDCF4111CDCF0AC08091FF01882304
:1024E00051F0853041F08091E80083FD04C0809177
:1024F000E80082FFF2CF8091E8008B778093E800BC
:1025000037C08038A9F58091E800877F8093E80084
:10251000809100028093F1008091E8008E77809393
:10252000E8000E94AA1924C0811122C01091030260
:102530001230F0F48091E800877F8093E8001093D8
:1025400000020E94AA19111106C08091E30087FDC4
:1025500002C081E001C084E08093FF0142E061ECB1
:1025600081E00E94C91942E261EC82E00E94C9192F
:102570008091E80083FF1AC08091E800877F8093F4
:10258000E8008091EB0080628093EB000FC082E155
:1025900090E0E1E9F4E05DCF89E090E0E8E6F4E086
:1025A00058CF80E490E0E6E1F4E053CFAA960FB66E
:1025B000F894DEBF0FBECDBFDF91CF911F9108957C
:1025C0001F920F920FB60F9211242F933F934F93A8
:1025D0005F936F937F938F939F93AF93BF93CF93AB
:1025E000DF93EF93FF93C091E900CF708091EC00EF
:1025F000D82FD17080FDD0E81092E9008091F000D2
:10260000877F8093F00078940E940B101092E9006D
:102610008091F00088608093F000CD2BCF70C09344
:10262000E900FF91EF91DF91CF91BF91AF919F9121
:102630008F917F916F915F914F913F912F910F906B
:102640000FBE0F901F901895E8EDF0E080818E7F0F
:1026500080831092E2001092DA001092E100A0EE66
:10266000B0E08C9181608C9380818F77808319BCDE
:10267000A7EDB0E08C918E7F8C9380818F7E8083DC
:102680001092D9010895CF92DF92EF92FF920F93AB
:102690001F93CF93DF93C8EDD0E088818F7E88832E
:1026A000E7EDF0E080818160808384E082BF81E09B
:1026B0008093D90188818E7F888302EE10E0F80133
:1026C00010821092DA0081EEC82ED12CF601108211
:1026D00088818F77888388818068888388818F7DCF
:1026E000888319BC1092FF01109200021092FE0123
:1026F0001092FD0190EEE92EF12CF70180818B7F85
:10270000808388818160888342E060E080E00E946D
:10271000C919F60180818E7F8083F80180818160F4
:102720008083808188608083F70180818E7F8083B1
:10273000888180618883DF91CF911F910F91FF90F5
:10274000EF90DF90CF9008951F920F920FB60F92E7
:1027500011242F933F934F935F936F937F938F93A6
:102760009F93AF93BF93EF93FF938091E10082FF1C
:1027700009C08091E20082FF05C08091E1008B7F5B
:102780008093E1008091DA0080FF2AC08091D80018
:1027900080FF26C08091DA008E7F8093DA008091DE
:1027A000D90080FF18C080E189BD82E189BD09B4EC
:1027B00000FEFDCF81E08093FF018091D90181115E
:1027C0000FC00E9424130E9443138091E200846092
:1027D0008093E20005C019BC1092FF011092D9014C
:1027E0008091E10080FF17C08091E20080FF13C05C
:1027F0008091E2008E7F8093E2008091E200806110
:102800008093E2008091D80080628093D80019BC48
:1028100085E08093FF018091E10084FF34C08091C6
:10282000E20084FF30C080E189BD82E189BD09B446
:1028300000FEFDCF8091D8008F7D8093D8008091DD
:10284000E1008F7E8093E1008091E2008F7E809393
:10285000E2008091E20081608093E20080910002BA
:10286000882311F084E007C08091E30087FD02C057
:1028700081E001C083E08093FF011092DA010E94A1
:102880001B1F0E94C50A8091E10083FF27C0809131
:10289000E20083FF23C08091E100877F8093E10005
:1028A00082E08093FF01109200028091E1008E7F10
:1028B0008093E1008091E2008E7F8093E20080911E
:1028C000E20080618093E20042E060E080E00E94EC
:1028D000C9198091F00088608093F000FF91EF911A
:1028E000BF91AF919F918F917F916F915F914F9128
:1028F0003F912F910F900FBE0F901F9018958091D0
:10290000DC010895CF93DF9300D01F92CDB7DEB7DF
:102910002091FF01243031F523E02983805891096B
:102920009B838A8382E08093E9008FEF9091E80097
:10293000815095FD06C095ED9A95F1F70000811143
:10294000F5CF8091E80085FF0DC040E050E063E0E6
:1029500070E0CE0101960E94D40F8091E8008E773E
:102960008093E8000F900F900F90DF91CF91089522
:102970000F931F93CF93DF9300D01F92CDB7DEB795
:102980008C010E94611A823011F0843021F584E0BC
:1029900089831B830A8382E08093E9008FEF909103
:1029A000E800815095FD06C095ED9A95F1F700007D
:1029B0008111F5CF8091E80085FF0DC040E050E027
:1029C00063E070E0CE0101960E94D40F8091E80090
:1029D0008E778093E8000F900F900F90DF91CF914A
:1029E0001F910F910895CF93DF93EC010E94611A1C
:1029F000823011F08430F9F482E08093E9009FEF97
:102A00008091E800915085FD06C085ED8A95F1F72B
:102A100000009111F5CF8091E80085FF0CC040E0E7
:102A200050E066E070E0CE010E94D40F8091E80093
:102A30008E778093E800DF91CF910895CF93DF9355
:102A4000EC010E94611A823011F08430D9F5809136
:102A50000601882339F08091C10287FF03C060E23C
:102A600082E002C068E081E08093E9008FEF9091FE
:102A7000E800815095FD06C095ED9A95F1F70000AC
:102A80008111F5CF8091E80085FF1CC0809106017F
:102A9000811105C040E050E068E070E003C070E0E4
:102AA00040E050E0CE010E94D40F8091E8008E7784
:102AB0008093E80080E2FE01ADEDB1E001900D925F
:102AC0008A95E1F7DF91CF910895803F39F48091A5
:102AD000D70287FF6CC01092D70269C0813F29F4EA
:102AE0008091D7021816BCF362C09091D602823F43
:102AF00029F497FF5CC01092D60259C0833F19F4A5
:102B00001916CCF354C0893F41F48091D8021816AD
:102B10000CF04DC01092D8024AC08A3F29F480912F
:102B2000D80287FF44C0F6CF8B3F39F48091D90299
:102B300087FF3DC01092D9023AC08C3F29F48091A2
:102B4000D9021816BCF333C0843F21F48091D5021A
:102B50008E7F17C0853F21F48091D5028D7F11C0F3
:102B6000863F21F48091D5028B7F0BC0873F21F4F3
:102B70008091D502877F05C0883F31F48091D502CE
:102B80008F7E8093D50213C08D3F21F48091A802DF
:102B90008E7F0BC08E3F21F48091A8028D7F05C0EF
:102BA0008F3F29F48091A8028B7F8093A8028091A7
:102BB000D60281110EC08091D70281110AC0809186
:102BC000D802811106C08091D902811102C01092F1
:102BD000DA0208958091A80280FD16C081FD16C01A
:102BE00082FD18C08091DA02882391F0883290F437
:102BF00028E0829FC001112468E270E00E94E92170
:102C0000862F672B29F007C082E0089584E008959D
:102C100081E0089588E008958091A80280FD17C0A2
:102C200081FD17C082FD19C08091DA02882399F0D6
:102C30008C3398F423E2829FC00111246CE370E08E
:102C40000E94E921862F672B49F481E0089588E0EE
:102C5000089581E1089585E0089583E20895803F15
:102C600021F40E940C16819504C0813F29F40E9432
:102C70000C168093D7020895823F21F40E940C160F
:102C8000819504C0833F29F40E940C168093D602DC
:102C90000895893F19F40E94EA1505C08A3F31F46E
:102CA0000E94EA1581958093D80208958B3F21F404
:102CB0000E94EA15819504C08C3F29F40E94EA1510
:102CC0008093D9020895843F21F48091D5028160D8
:102CD00017C0853F21F48091D502826011C0863FE4
:102CE00021F48091D50284600BC0873F21F480914C
:102CF000D502886005C0883F31F48091D50280619B
:102D00008093D50208958D3F21F48091A8028160BF
:102D10000BC08E3F21F48091A802826005C08F3FD6
:102D200029F48091A80284608093A8020895789481
:102D30001F920F920FB60F9211248F939F93AF9310
:102D4000BF938091A4029091A502A091A602B09198
:102D5000A7020196A11DB11D8093A4029093A50224
:102D6000A093A602B093A702BF91AF919F918F91BC
:102D70000F900FBE0F901F901895CF92DF92EF9299
:102D8000FF920F931F932FB7F8944091A402509194
:102D9000A5026091A6027091A7022FBF6A017B0174
:102DA000EE24FF248C0120E030E0C016D106E206BC
:102DB000F30610F4415051099A01281B390BC9013F
:102DC0001F910F91FF90EF90DF90CF9008952FB754
:102DD000F8948091A4029091A502A091A602B091CE
:102DE000A7022FBF0895E091C302F091C40230976B
:102DF00049F082E08093D4020480F581E02D84EDD7
:102E000092E009950E94E7169093DC028093DB0222
:102E100008951F920F920FB60F9211248F939F93D4
:102E2000AF93BF938091C502811113C08091A4021A
:102E30009091A502A091A602B091A7024196A11D72
:102E4000B11D8093A4029093A502A093A602B09313
:102E5000A702BF91AF919F918F910F900FBE0F90DE
:102E60001F90189520910601222321F02091C10284
:102E700027FD04C0FC013296089619C0262F26951E
:102E8000269526952E31C0F4FC01E20FF11D6770E6
:102E900081E090E001C0880F6A95EAF78095928101
:102EA0008923828308953196E817F90729F0208154
:102EB0002613F9CF1082F7CF08952091060122231F
:102EC00021F02091C10227FD05C0FC0132962FEFB1
:102ED00030E019C0262F2695269526952E3120F50F
:102EE000FC01E20FF11D677081E090E001C0880FE6
:102EF0006A95EAF79281892B828308952F3F39F0F2
:102F00003F5F363041F041914613F8CF0DC041117B
:102F1000F7CF232FF5CF2F3F39F0FC01E20FF11D42
:102F200027FDFA956283089508956DEE7EEF80E0A7
:102F300090E00E94BF2160E082E090E00E94A12129
:102F400060E083E090E00E94A1211092A002109224
:102F5000A1021092A2021092A30260E084E090E02D
:102F60000E94A12160E085E090E00E94A12160E044
:102F700086E090E00E94A1216FEF87E090E00E9440
:102F8000A12140E050E0BA0188E090E00E94B32126
:102F900060E08DE090E00E94A12140E050E0BA01A5
:102FA00088E190E00E94B32160E087E190E00E9418
:102FB000A12140E050E0BA018CE190E00E94B321F1
:102FC00060E080E290E00E94A1211092AF02109296
:102FD000B0021092B1021092B20284E0806180933C
:102FE000AF024091AF025091B0026091B102709176
:102FF000B2028FE090E00E94B32140E050E0BA01BD
:1030000083E190E00C94B32180919F028111109292
:103010009F02089590919E028091DA01892B209160
:103020009D02982F922B9093090280919F028823F2
:10303000D9F0892B8093090280910601882331F011
:103040008091C10287FF02C08EE101C086E0EBE003
:10305000F2E090E0815028F021912223D9F39F5F84
:10306000F9CF91110E940418E091C302F091C402BB
:103070003097A9F080910601882359F08091C10210
:1030800087FF07C08091090280930A0285E0809340
:1030900009020280F381E02D89E092E0099408950D
:1030A000BF92CF92DF92EF92FF920F931F93CF9335
:1030B000DF938C01C090A002D090A102E090A20208
:1030C000F090A3028091980290919902A0919A02A7
:1030D000B0919B02C82AD92AEA2AFB2ACFE1D0E084
:1030E000D701C6010C2E04C0B695A7959795879574
:1030F0000A94D2F780FF07C0BC2EB8018C2F0E9423
:10310000D70A019719F4219758F7B12C8B2DDF912D
:10311000CF911F910F91FF90EF90DF90CF90BF90D4
:103120000895CF93DF93EC010E945018BE010E94D6
:10313000D70ADF91CF910895292F220F920F990F6F
:10314000890F682F669566956695982F977085E02C
:10315000689FB001112440E050E080E0FA01E60FE2
:10316000F71FEF59FD4F208130E0092E02C0369540
:1031700027950A94E2F721703327042E01C0220F0D
:103180000A94EAF7822B4F5F5F4F4530510531F7C4
:103190000895292F220F920F990F890FA82FA69516
:1031A000A695A695877051E001C0550F8A95EAF75C
:1031B00085E0A89FD001112420E030E070E0F90103
:1031C000EA0FFB1FEF59FD4F4081CB01022E02C0D9
:1031D000969587950A94E2F78170992781958427BF
:1031E0008523842780832F5F3F4F2530310539F7B2
:1031F00008950E94340D6093980270939902809311
:103200009A0290939B020C94001F0F931F9341E02E
:1032100050E060E070E004C0440F551F661F771F48
:103220008A95D2F740955095609570958091980257
:1032300090919902A0919A02B0919B028A019B0100
:10324000082319232A233B23C901B8011F910F9199
:103250000C94F91820919C028095822380939C0203
:10326000982F977079F430E0482F082E000C550BFA
:103270002417350739F08595859585950E940519A0
:1032800010929C0208950F931F9341E050E060E07C
:1032900070E004C0440F551F661F771F8A95D2F750
:1032A0008091980290919902A0919A02B0919B020C
:1032B0008A019B01082B192B2A2B3B2BC901B80132
:1032C0001F910F910C94F9186093A0027093A102C2
:1032D0008093A2029093A3020C94001F809160023D
:1032E00090912F02891719F08F5F8770FBCF089597
:1032F0002091E4003091E50095E64091EC00842FA8
:10330000817040FF22C08091E80080FD1CC0809148
:10331000FF01882391F0853091F08091EB0085FDCD
:1033200010C04091E4005091E5004217530729F383
:103330009A01915011F784E0089582E0089583E0A6
:10334000089581E0089580E008954091E80042FFEB
:10335000DECF08958091010287FF11C08091E800BF
:1033600082FD05C08091FF018111F8CF11C08091CD
:10337000E8008B770BC08091FF01882349F0809192
:10338000E80080FFF8CF8091E8008E778093E80016
:103390000895982F973058F59093E900981739F0D1
:1033A0007091EC002091ED005091F00003C0242FAB
:1033B000762F50E021FF19C03091EB003E7F309313
:1033C000EB003091ED003D7F3093ED003091EB004C
:1033D00031603093EB007093EC002093ED0050933C
:1033E000F0002091EE0027FF07C09F5FD3CF8F70C2
:1033F0008093E90081E0089580E00895209107021C
:10340000309108022617370748F06115710539F425
:103410002091E8002E772093E80001C0B90140E038
:1034200061157105A9F12091FF01222309F443C020
:10343000253009F442C02091E80023FD40C02091CE
:10344000E80022FD32C02091E80020FFE9CF409142
:10345000F3002091F20030E0342BFC01CF01611524
:10346000710559F02830310540F481918093F100C5
:10347000615071092F5F3F4FF1CF41E02830310596
:1034800009F040E02091E8002E772093E800C8CFB3
:103490004111C9CF0AC08091FF01882361F08530B6
:1034A00061F08091E80083FD0AC08091E80082FF0E
:1034B000F2CF80E0089582E0089583E0089581E0EE
:1034C00008958091ED02811107C08091FF01843041
:1034D00011F081E0089582E00895CF93DF93CDB796
:1034E000DEB72A970FB6F894DEBF0FBECDBF84B704
:1034F000877F84BF0FB6F894A8958091600088619B
:1035000080936000109260000FBE80E8809361009D
:103510001092610085B7806885BF85B7806885BFD8
:103520000E9424130E9443138091E20084608093E0
:10353000E20078948091FF018823A1F01091E900C6
:103540001F709091EC00892F817090FD80E8182BFE
:103550001092E9008091E80083FD0E940B101F701B
:103560001093E90082E084BD93E095BD9AEF97BD8A
:1035700080936E000E94AB0D90E0909308018093C1
:1035800007010E947A0E0E94890EA3EBB2E0E6ECDE
:10359000F2E01EE0F12EFE0E11921D92FE12FCCF03
:1035A0008EE090E00E9403228093A9029093AA02E9
:1035B000FC010E962BEF2193E817F907E1F780E065
:1035C00090E00E949B218D3E9E4F11F00E94951726
:1035D0008CE090E00E948D2190E0A0E0B0E080932C
:1035E000AB029093AC02A093AD02B093AE0289EA15
:1035F0008093800089E08093810024982C983F98E4
:103600008AB18F7C8AB96E98479A8BB180638BB9E7
:10361000769A8FE090E00E9495216093AF027093BC
:10362000B0028093B1029093B20267703FEF639F44
:10363000B0011124759567957595679577277093F7
:1036400089006093880070938B0060938A00709368
:103650008D0060938C000E94220E80E090E00E941A
:103660009B218D3E9E4F11F00E94951782E090E0C5
:103670000E948D218093DE0284E090E00E948D21E3
:1036800090E09093C2028093C10283E090E00E9498
:103690008D21682F70E080E090E00E94641989E03D
:1036A00091E09093C4028093C30299249394EE24F2
:1036B000EA94CC24C394D12C50E1452E62E1562EDD
:1036C00078E1A72EB12CE0E48E2E8091FF018530A9
:1036D00009F043C08091FF01843009F11092C502C6
:1036E0000FB6F894A895A09260000FBE809260007B
:1036F00083B7817F846083BF83B7816083BF789401
:10370000889583B78E7F83BF0FB6F894A895809174
:103710006000886180936000109260000FBE80910D
:10372000FE01882391F20E94AB0D90E09093080176
:10373000809307010E947A0E0E94890EE6ECF2E067
:103740001192FE12FDCF0E94FD0EE6ECF2E0819197
:103750008111F2C0FE12FBCFB8CF0E94FD0EEFED3B
:10376000F2E0A6ECB2E000E010E0702F6D91219144
:103770002627B1F180E090E030E0782EA901082EF4
:1037800002C0559547950A94E2F740FF25C089830A
:103790007A83C60102C0880F991F7A94E2F73C0130
:1037A000862F90E08621972121E0892B09F420E0E3
:1037B0002B830E94E7168160782F9D838C8349813B
:1037C0005A816B818D810E94C309F801E152FD4F3E
:1037D00080816826608219C001968630910569F65D
:1037E0000F5F1F4F0E30110509F0BFCFEE82EF8241
:1037F00018860E94E7168160782F9A8789874E8104
:103800005F8168858A850E94C3098091DB0290915F
:10381000DC020E94BD169C019091DA02992321F0EE
:103820002431310508F47CC08091D6021091D70272
:1038300081110BC0111194C02091D802211190C0A8
:103840002091D90221118CC06BC09F3F19F09F5F5E
:103850009093DA02181624F40E940C168093D60274
:103860008091D60287FF05C00E940C168195809337
:10387000D602111624F40E940C168093D702809170
:10388000D70287FF05C00E940C1681958093D7024E
:103890003091D602332301F12091D7022223E1F0A7
:1038A00045EB3403C0011124892F990F990B009720
:1038B00019F08093D60202C09092D60235EB230312
:1038C000C0011124892F990F990B009719F080934B
:1038D000D70202C09092D7028091D802181624F421
:1038E0000E94EA158093D8028091D80287FF05C014
:1038F0000E94EA1581958093D8028091D90218160A
:1039000024F40E94EA158093D9028091D90287FF9E
:1039100005C00E94EA1581958093D9020E94F31692
:103920001091DD020E94C50A181709F4CECE0E943C
:10393000C50A8093DD02C9CE49BC59BC09B400FE5A
:10394000FDCF8091D8008F7D8093D8008091E000DA
:1039500082608093E0008091E00081FDFCCFB5CED5
:103960009F3F09F074CF7CCF80912E0282958F709B
:1039700009F054C080912B02882309F44FC0809134
:103980006002A0912F026091290270912A02409159
:103990002C0250912D02B6E08A1709F43FC090E046
:1039A00041155105C1F17F3F11F46F3FA1F1B89F5F
:1039B000F001B99FF00D1124E05DFD4F21817213DC
:1039C0002AC02081621327C02281211124C02381B3
:1039D00034812417350710F421503109241B350B8D
:1039E000283C3105C0F420912E022F7020612093D5
:1039F0002E0226E0289FF001299FF00D1124EB5C98
:103A0000FD4F80818F708061808389E292E00E9407
:103A10008E020C946E1901968770BECF08950E9495
:103A20009118292F2F7092959F70E92FF0E032970F
:103A3000EE30F105B8F4EF55FF4F0C94FD21803FB7
:103A400099F018F4803E70F40FC0843F59F40CC014
:103A5000803E50F0813F31F407C0822F86958695D5
:103A60008695089580E0089581E00895BF92CF92F1
:103A7000DF92EF92FF920F931F93CF93DF93CDB717
:103A8000DEB761970FB6F894DEBF0FBECDBF8C01D5
:103A900085E0F801DE011D9601900D928A95E1F70F
:103AA000D8013C9111962C9111971296EC90129797
:103AB0001396CD90DC9014975091290260912A02C0
:103AC00080912C0290912D02009709F44FC16F3F15
:103AD00019F45F3F09F44AC1B0902B02BB2009F4EE
:103AE000ECC040912E02C816D90628F0F601E81B5A
:103AF000F90BCF0104C0809590958C0D9D1DFF247E
:103B0000F394883C910548F0F12C407F09F09FC068
:103B100089E292E00E948E0221C1842F807F09F009
:103B200044C0621312C0531310C0E1100EC04F7096
:103B3000406140932E0289E292E00E948E028091C1
:103B40002E02D80115968C932EC0CD2819F12F3F47
:103B500011F43F3FF9F0FE2CE1101CC0809160028F
:103B600040912F0256E0841709F458C090E0589F06
:103B7000F001599FF00D1124E05DFD4F6181261386
:103B800006C06081361303C06281611103C00196D3
:103B90008770E9CFFE2CEE2009F421C180912E021E
:103BA000816080932E02F12C1AC162130AC0531354
:103BB00008C0E11006C080912E02D80115968C93A2
:103BC000B0C03D872E878D859E850E940F1D88235E
:103BD000D1F1EE20C1F120912E02822F82958F70BB
:103BE00090E0029774F08091290290912A029887C0
:103BF0008F831986DB86CA862C87CE0107960E94A2
:103C00008E0286E0F801A9E2B2E001900D928A9559
:103C1000E1F70E94B41CFF24F394E1C03D872E8796
:103C20008D859E850E949118292F22952F7030E056
:103C3000223031050CF0C7C09F7009F0C1C0805E12
:103C4000883008F4CCC0C8010E948E02E4CF621311
:103C500014C0531312C0E11010C080912E02F8015D
:103C60008583C8010E948E0286E0E9E2F2E0DF016E
:103C70001D928A95E9F7FB2CB2C03D872E878D8572
:103C80009E850E940F1D8823F1F2EE20E1F2209123
:103C90002E02822F82958F7090E002970CF4B1CFA4
:103CA0008091290290912A029A8389831B82DD8266
:103CB000CC822E83CE010196A2CFC816D90638F049
:103CC000C81AD90AB8ECCB16D10450F007C08095B9
:103CD00090958C0D9D1D883C910510F0F12C3EC0F7
:103CE000FE2CEE2009F4AFCF621327C0531325C07A
:103CF00020912E0220FD18C0822F82958F70482FB0
:103D000050E04115510581F0F80125834F305105F0
:103D100041F08F5F982F9295907F822F8F70892B23
:103D20008583C8010E948E0286E0F801A9E2B2E014
:103D300001900D928A95E1F752C03D872E878D85BF
:103D40009E850E940F1D81115CCF80912E028160A3
:103D500080932E02C8010E948E0241C0E9E2F2E087
:103D600086E0DF011D928A95E9F739C0EE2009F45B
:103D70006ACF3D872E878D859E850E940F1DF82E68
:103D8000882309F460CF86E0F801A9E2B2E001904F
:103D90000D928A95E1F78091290290912A020E9462
:103DA000911892959F70963041F48091EF0291E0C6
:103DB00089278093EF029093EE020E94B41C0FC0FB
:103DC00081113DCF0CC0243031050CF03CCF9F70E9
:103DD00009F435CFF8019581907F09F030CF8F2D10
:103DE00061960FB6F894DEBF0FBECDBFDF91CF91C5
:103DF0001F910F91FF90EF90DF90CF90BF900895AB
:103E000010929E0210929D020E940A18E4EDF2E0C8
:103E100086E0DF011D928A95E9F71092DA0210928E
:103E2000A8020E94F31680E090E00E94AF0A80E0B2
:103E300090E00C94990A80910601882331F08091DA
:103E4000C10287FF02C08EE101C086E0EBE0F2E034
:103E5000DF011D928A95E9F70C94001F882341F039
:103E600080959091DA0189238093DA010C940A18E5
:103E70000895882339F09091DA01892B8093DA0133
:103E80000C940A180895882309F463C0823869F4F1
:103E90000E94C50A81FF5DC069E389E092E00E944B
:103EA0005D170E940A1869E30EC0833891F40E94DE
:103EB000C50A80FF4EC063E589E092E00E945D176D
:103EC0000E940A1863E589E092E00E9432170C9480
:103ED0000A18843869F40E94C50A82FF3AC067E470
:103EE00089E092E00E945D170E940A1867E4EBCF18
:103EF0009CEF980F913A10F4682FE5CF90E2980F5D
:103F0000983088F4877021E030E0A90102C0440FA6
:103F1000551F8A95E2F7CA0180959091DA018923AD
:103F20008093DA01D4CF9BE5980F933020F480E0A2
:103F300090E00C94AF0A98E5980F973120F480E058
:103F400090E00C94990A803F20F00E9465150C9433
:103F5000F3160895CF93C82F0E94BD1FC93349F4AB
:103F60002FEF87EE93E0215080409040E1F700C0B2
:103F700000008C2FCF910C94431F882309F416C1A5
:103F80008238B1F40E94C50A81FD10C169E389E05D
:103F900092E00E945D170E940A182FEF41EE54E054
:103FA000215040405040E1F700C0000069E317C0D5
:103FB0008338D9F40E94C50A80FDF8C063E589E022
:103FC00092E00E945D170E940A188FEF91EE24E0A4
:103FD000815090402040E1F700C0000063E589E097
:103FE00092E00E9432170C940A188438B1F40E94AF
:103FF000C50A82FDDBC067E489E092E00E945D179C
:104000000E940A184FEF51EE84E04150504080402A
:10401000E1F700C0000067E4E2CF9CEF980F913A0F
:1040200030F4682F89E092E00E945D17DCCF90E2C7
:10403000980F983080F4877021E030E0A90102C029
:10404000440F551F8A95E2F7CA019091DA01892B36
:104050008093DA01C8CF9BE5980F933070F4853ACE
:1040600029F0863A31F083E890E005C081E890E0DD
:1040700002C082E890E00C94AF0A98E5980F97315F
:1040800008F08EC0883A09F445C0893A09F445C061
:104090008A3A09F445C08B3A09F445C08C3A09F4D0
:1040A00045C08B3B09F445C08C3B09F445C08D3AB3
:1040B00009F445C0803B09F445C08E3A09F445C077
:1040C0008F3A09F445C0813B09F445C0823B09F4AD
:1040D00045C0833B09F445C0843B09F445C0853B9A
:1040E00009F445C0863B09F445C0873B09F445C047
:1040F000883B09F445C0893B09F445C08D3B09F470
:1041000045C08E3B09F445C08A3B09F445C080E0B8
:1041100090E044C082EE90E041C089EE90E03EC065
:104120008AEE90E03BC085EB90E038C086EB90E0F3
:1041300035C083EB90E032C084EB90E02FC087EB7A
:1041400090E02CC08CEC90E029C08DEC90E026C073
:1041500083E891E023C08AE891E020C082E991E001
:104160001DC084E991E01AC081E292E017C083E2A9
:1041700092E014C084E292E011C085E292E00EC0A9
:1041800086E292E00BC087E292E008C08FE690E002
:1041900005C080E790E002C08AE292E00C94990AA0
:1041A000803F20F00E942F160C94F3160895109271
:1041B000B9008CE08093B8000895EF92FF920F93BE
:1041C0001F93CF93DF93182FEB011092BC0084EA6A
:1041D0008093BC000E94E7167C019091BC0097FD83
:1041E0000EC0CF3F8FEFD807C1F30E94E7168E199C
:1041F0009F098C179D0788F38EEF9FEF2EC090913B
:10420000B900987F983041F09091B900987F903133
:1042100019F08FEF9FEF21C01093BB0084E88093CB
:10422000BC000E94E7168C019091BC0097FD0CC069
:10423000CF3F8FEFD807C1F30E94E716801B910B89
:104240008C179D0788F3D8CF8091B900887F88317B
:1042500011F08034F1F680E090E0DF91CF911F9172
:104260000F91FF90EF9008950F931F93CF93DF93DB
:10427000EB018093BB0084E88093BC000E94E716AA
:104280008C019091BC0097FD0EC0CF3F8FEFD807F7
:10429000C1F30E94E716801B910B8C179D0788F3D2
:1042A0008EEF9FEF0CC02091B900287F81E090E055
:1042B000283211F480E090E0919581959109DF9189
:1042C000CF911F910F9108950F931F93CF93DF9379
:1042D000EC0184E88093BC000E94E7168C01909169
:1042E000BC0097FD0EC0CF3F8FEFD807C1F30E94EF
:1042F000E716801B910B8C179D0788F38EEF9FEFBD
:1043000003C08091BB0090E0DF91CF911F910F918E
:10431000089584E98093BC000895F999FECF92BD79
:1043200081BDF89A992780B50895A6E1B0E044E0F0
:1043300050E00C94C721A8E1B0E042E050E00C94BA
:10434000C721262FF999FECF92BD81BDF89A01971A
:1043500000B4021639F01FBA20BD0FB6F894FA9ACD
:10436000F99A0FBE08950396272F0E94A2210E945A
:10437000A121252F0E94A221242F0C94A221019675
:10438000272F0E94A2210C94A121DC01CB01FC016A
:10439000F999FECF06C0F2BDE1BDF89A319600B49E
:1043A0000D9241505040B8F70895AA1BBB1B51E134
:1043B00007C0AA1FBB1FA617B70710F0A61BB70B95
:1043C000881F991F5A95A9F780959095BC01CD013A
:1043D000089597FB072E16F4009407D077FD09D0B7
:1043E0000E94D52107FC05D03EF4909581959F4F02
:1043F0000895709561957F4F0895EE0FFF1F05900A
:10440000F491E02D0994CF93DF938230910510F45D
:1044100082E090E0E091F202F091F30220E030E0DF
:10442000C0E0D0E0309711F1408151814817590721
:10443000C0F04817590761F482819381209719F0E1
:104440009B838A832BC09093F3028093F20226C051
:104450002115310519F04217530718F49A01BE01CE
:10446000DF01EF010280F381E02DDCCF2115310562
:1044700009F1281B390B2430310590F412968D91E7
:104480009C9113976115710521F0FB019383828341
:1044900004C09093F3028093F202FD01329644C06F
:1044A000FD01E20FF31F81939193225031092D9367
:1044B0003C933AC02091F0023091F102232B41F459
:1044C00020910201309103013093F1022093F00218
:1044D00020910001309101012115310541F42DB7E2
:1044E0003EB74091040150910501241B350BE0912A
:1044F000F002F091F102E217F307A0F42E1B3F0B3C
:104500002817390778F0AC014E5F5F4F2417350745
:1045100048F04E0F5F1F5093F1024093F0028193D9
:10452000919302C0E0E0F0E0CF01DF91CF910895D8
:104530000F931F93CF93DF93009709F48CC0FC0176
:104540003297138212820091F2021091F302011548
:10455000110581F420813181820F931F2091F00297
:104560003091F1022817390779F5F093F102E093C1
:10457000F00271C0D80140E050E0AE17BF0750F420
:1045800012962D913C911397AD012115310509F13A
:10459000D901F3CF9D01DA013383228360817181D8
:1045A000860F971F8217930769F4EC0128813981E0
:1045B000260F371F2E5F3F4F318320838A819B81D7
:1045C00093838283452B29F4F093F302E093F20264
:1045D00042C01396FC93EE931297ED0149915991C5
:1045E0009E01240F351FE217F30771F4808191813A
:1045F000840F951F029611969C938E9382819381CE
:1046000013969C938E931297E0E0F0E0D8011296F7
:104610008D919C911397009719F0F8018C01F6CFBA
:104620008D919C9198012E5F3F4F820F931F209197
:10463000F0023091F1022817390769F4309729F414
:104640001092F3021092F20202C0138212821093AF
:10465000F1020093F002DF91CF911F910F91089525
:04466000F894FFCFFC
:104664000000F40220000120007F141E15F31482C0
:1046740014B814000D010D020D030D040D050D00F9
:104684000C010C020C030C040C050C000B010B02B6
:104694000B030B040B050B000A010A020A030A04AC
:1046A4000A050A00090109020903090409050900A8
:1046B40008010802080308040805080007010702A6
:1046C400070307040705070006010602060306049C
:1046D4000605060005010502050305040505050098
:1046E4000401040204030404040504000301030296
:1046F400030303040305030002010202020302048C
:104704000205020001010102010301040105010087
:0C4714000001000200030004000500008A
:00000001FF
