:100000000C946F020C948C020C948C020C948C0255
:100010000C948C020C948C020C948C020C948C0228
:100020000C948C020C948C020C9409130C944512C1
:100030000C946E160C948C020C948C020C948C0212
:100040000C948C020C948C020C948C020C948C02F8
:100050000C948C020C94FC150C948C020C948C0265
:100060000C948C020C948C020C948C020C948C02D8
:100070000C948C020C948C020C948C020C948C02C8
:100080000C948C020C948C020C948C020C948C02B8
:100090000C948C020C948C020C948C020C948C02A8
:1000A0000C948C020C948C020C948C028A048C04A8
:1000B00097048E04900492049404960499049B047B
:1000C0009D04A8049F04A104A304A504A704AA04F2
:1000D0004C054C058A058A05C605E605B8071108D2
:1000E00028061108150715072207220722072207ED
:1000F00022072207220722072207220722072207B8
:10010000220722072207220733075B0760076707DA
:100110007F07D608D908DC08DF08E208E508E80808
:1001200056107D101D127D101D12C510E8101D12F5
:10013000E611F9119B18A018AA189E18A318A81860
:10014000A618B01CB01CC31CC31CB91CC31CC31C08
:10015000C31CB01CB01CBE1CC31CC31CBE1C29008D
:100160002B00E300E100A80000001E0014000400C2
:100170001D00AA002D001F001A0016001B00A90078
:10018000E000200008000700060050002C002100BD
:1001900015000900190052002E00220017000A0065
:1001A000050000005201350001510000000F000061
:1001B00014094C000151000000070000E200230078
:1001C0001C000B0011000000200B240018000D0083
:1001D00010005100B30025000C000E0036004F0047
:1001E0002C00260012000F0037002F00E700270028
:1001F000130033423871300017192A0031002800EB
:10020000E50034000000350001000100010001009C
:1002100000003A001E0220022202010001003B0001
:100220001F0221022302010001003C002F022602CE
:100230002F00010001003D003002270230000100C4
:1002400001003E00310235003502000001000100CE
:100250000100000001000000010001000100000099
:100260000100000001003F00520051002402000084
:1002700001004000240021001E0001000100410097
:10028000250022001F003700010042002600230045
:10029000200027000100430025022E0231002E001D
:1002A00001004400450001000100010000000100C0
:1002B0000100010001000100000001000100010037
:1002C00001000100010001000100F2000100010035
:1002D00001000100F000F1000100F4000100010044
:1002E0000100F3000100F500010001000100010020
:1002F00001000000010001000100000001000000F9
:1003000001000100010000000100000001000100E7
:1003100001000100010000000100010001000100D6
:100320000100A9000100010001000100AC00AA00C9
:10033000B600010001000100AB00A80001000100AF
:100340000100010001000100010001000100AE00F8
:1003500001000100000005010902A1018502090157
:10036000A10005091901290515002501950575014B
:10037000810295017503810105010930093115815B
:10038000257F95027508810609381581257F95011D
:1003900075088106050C0A38021581257F950175BF
:1003A000088106C0C005010980A10185031601006E
:1003B0002603001A81002A8300751095018100C070
:1003C000050C0901A1018504160100269C021A01F1
:1003D000002A9C02751095018100C005010906A143
:1003E000018505050719E029E71500250195087520
:1003F00001810205081901290595057501910295EC
:1004000001750391010507190029EF1500250195D4
:10041000F075018102C005010906A101050719E077
:1004200029E71500250195087501810295017508D8
:1004300081010508190129059505750191029501AC
:10044000750391010507190029FF150026FF009586
:100450000675088100C009023B00020100A0FA09EC
:1004600004000001030101000921110100012240E3
:10047000000705810308000A0904010001030000C8
:100480000009211101000122C0000705820320009C
:100490000A1201100100000008EDFE07130100011F
:1004A00002030104033000000016034500720067D8
:1004B000006F0044006F007800200045005A0000E3
:1004C0000016034500720067006F0044006F00785B
:1004D00000200045005A0000000403090400112414
:1004E0001FBECFEFDAE0DEBFCDBF11E0A0E0B1E08C
:1004F000EEE0F4E402C005900D92AC3BB107D9F7F1
:1005000022E0ACEBB1E001C01D92AF3EB207E1F7D3
:100510000E94201A0C9405220C9400008F929F9246
:10052000AF92BF92CF92DF92EF92FF920F931F9301
:10053000CF93DF93CDB7DEB728970FB6F894DEBF21
:100540000FBECDBFFC01F080118183819481892B86
:1005500009F49EC51F3F21F40FEFF01609F498C56A
:100560006F0185E0DE01119601900D928A95E1F709
:10057000F601228189819A81222349F00E949817ED
:10058000082F682F89819A810E94111803C00E9448
:10059000E417082F26E0129FF001112434E5039F91
:1005A000E00DF11D1124EF0DF11DEE0FFF1FE25ABA
:1005B000FE4F05911491F6018281063FFCE51F076D
:1005C000A1F5882309F464C51CC01092BD01F60191
:1005D00092810531FCE51F0708F40CC10C3DECE5E8
:1005E0001E0709F465C108F413C10D3D3CE513076E
:1005F00009F464C10E3D1C4509F005C2992309F4B4
:1006000047C528960FB6F894DEBF0FBECDBFDF9169
:10061000CF911F910F91FF90EF90DF90CF90BF90FF
:10062000AF909F908F900C94FA16882319F1033E97
:100630002CE51207C1F050F4013E8CE5180781F05B
:10064000023E9CE51907B1F481E010C0043EECE5E0
:100650001E0759F0053EFCE51F0761F484E006C063
:100660001092AA0205C082E001C083E08093AA0232
:100670000E94C00A17FF73C0F6018281882309F423
:100680006EC08091D9018093BC011092D9018091F4
:10069000AA02813071F048F08230D1F08430F1F458
:1006A00086EE0E943B1F88E117C082EE0E944E1F1B
:1006B00015C08EE898E00E942E0F88E10E944E1F20
:1006C00088E10E94D41E8EE798E00E942E0F06C09B
:1006D00082EE0E944E1F87E50E943B1F8FE39CE93C
:1006E0000197F1F700C000007801E894F7F85CE0AA
:1006F000A52EB12CC7010A2C02C0969587950A94A5
:10070000E2F7282F2F7041F0822F90E02A3010F46A
:100710004D9604C0069702C087E290E00E943B1FFE
:1007200094E0A91AB108ECEFAE16EFEFBE0611F790
:100730008091AA02813039F040F0823031F084306B
:1007400051F488E206C08CE204C082EE0E94D41EFE
:1007500002C00E943B1F8091BC018093D901003FE1
:10076000FCE51F07C1F188F4083D3CE51307D9F00B
:10077000093D8CE51807D9F1073D9CE5190709F0FB
:1007800024CF26E241EE61EE11C0023FECE51E07E8
:1007900051F128F1033F2CE5120709F016CF27E2AB
:1007A00046EE66EE03C027E245EE65EEC6012896EA
:1007B0000FB6F894DEBF0FBECDBFDF91CF911F9172
:1007C0000F91FF90EF90DF90CF90BF90AF909F90F0
:1007D0008F900C94530A26E240EE60EEE7CF27E2BA
:1007E00044EE64EEE3CF26E242EE62EEDFCF28E293
:1007F00041E0DBCF02302CE5120708F066C001159E
:100800003CE5130751F001301C4509F448C0FBC01A
:1008100006311C4509F4C3C0F6C0992309F438C455
:100820001092D9010E94AC1E9FEFE4E3FCE09150CE
:10083000E040F040E1F700C00000F89481E08093D0
:10084000E00080E28093D8001092C9008FE19EE41E
:100850000197F1F700C000001DBA109268001CBC9F
:1008600010BE1FBA10927A0010926E0010926F00A4
:1008700010927100109272001092C9001092BC0088
:1008800014B817B81AB81DB810BA1092BC0015B831
:1008900018B81BB81EB811BA0C94003FF9C39923BD
:1008A00009F4F6C38091D90281608093D902F0C324
:1008B000992309F4EDC31092E802EAC3992309F4DD
:1008C000E7C382E08093E802E3C3992309F49BC065
:1008D00080E090E00E9470208D3E9E4F11F00E94BB
:1008E000FA1684E090E00E94682090E09093BD02A8
:1008F0008093BC02F801E350FC45E231F10530F48D
:10090000EA5AFF4F8091BC020C94D2208091BC0225
:10091000816027C0826025C0846023C0806121C0BF
:1009200080621FC080641DC080681BC084608860B6
:1009300018C08E7F16C08D7F14C08B7F12C08F7E33
:1009400010C08F7D0EC08F7B0CC08F770AC08B7F4D
:10095000877F07C087FB222720F991E0922790FB31
:1009600087F98093BC026091BC0284E090E00E9411
:1009700076201092D90128960FB6F894DEBF0FBEEC
:10098000CDBFDF91CF911F910F91FF90EF90DF903E
:10099000CF90BF90AF909F908F900C94AC1E8091A1
:1009A000D901992389F0982F9A7A81E009F480E09F
:1009B0008093BE01811102C069E201C065E388E055
:1009C00092E00E94C2160BC08091BE01811102C04C
:1009D00069E201C065E388E092E00E9497162896DC
:1009E0000FB6F894DEBF0FBECDBFDF91CF911F9140
:1009F0000F91FF90EF90DF90CF90BF90AF909F90BE
:100A00008F900C945217F60100811181992349F0BF
:100A1000C8010E949817F82E682FC8010E9411186B
:100A200004C0C8010E94E417F82EB8018F2D0E945F
:100A3000C60A182F382FF601258122952F700281C2
:100A4000011110929D0280919B028770A9F00023F2
:100A500099F080E2810F883078F082E02F83388728
:100A60009E830E94DD1880919B028770EE24E394A0
:100A70002F8138859E818111E12CA92EA2944FE00F
:100A8000A422B12CFCE0AF16B10408F0CAC2F501F3
:100A9000E859FF4F0C94D220892F807F9F70F92E48
:100AA000882319F0F29480EFF8220023B9F0FF2098
:100AB00009F448C280E2810F883010F0311106C07D
:100AC0009091D901F92AF092D90105C090919D0227
:100AD000F92AF0929D020E94521734C2812F388762
:100AE0000E94D41E3885FF2009F49BC2105EF0944A
:100AF000183010F0311106C09091D901F922F0920E
:100B0000D90105C090919D02F922F0929D020E94A8
:100B1000521787C2492F407F892F8F70403211F0C2
:100B20008295807F332319F03130E9F025C000230E
:100B300081F030919E02222351F0213041F4982F10
:100B4000932B391709F46DC290939E026AC2832BCE
:100B500081C1222319F0213009F463C28E830E94DF
:100B60004C178E817DC1002321F0223008F059C23C
:100B700071C1211156C274C1002321F0222309F44E
:100B800069C1E0C1222309F46BC1EEC1292F26956A
:100B90002695237030E02115310521F021303105F3
:100BA00059F03FC2002319F0812F937002C080E0FA
:100BB00090E00E94310A43C2002319F0812F937004
:100BC00002C080E090E00E941B0A39C20023F9F0C5
:100BD000153F51F0163F71F0143FA9F48091BF0109
:100BE0009091C00181600BC08091BF019091C001C4
:100BF000826005C08091BF019091C0018460909394
:100C0000C0018093BF01812F0E9494151EC0153F23
:100C100051F0163F71F0143FA9F48091BF019091FB
:100C2000C0018E7F0BC08091BF019091C0018D7F6C
:100C300005C08091BF019091C0018B7F9093C0014E
:100C40008093BF01812F0E94CA140E945816F7C1D9
:100C5000892F837009F071C00111EFC1812F829536
:100C600086958770880F880F412F4F7050E060E0A5
:100C700070E04A015B01082E04C0880C991CAA1C74
:100C8000BB1C0A94D2F714FF12C00FE010E020E062
:100C900030E004C0000F111F221F331F8A95D2F7C6
:100CA000B901A801409550956095709503C040E04A
:100CB00050E0BA01969596959370892F90E0823016
:100CC0009105E9F08330910579F100919F0210912F
:100CD000A0022091A1023091A202019759F0482967
:100CE00059296A297B29CB01BA0160237123822308
:100CF000932320C0802A912AA22AB32A15C048290A
:100D000059296A297B2980919F029091A002A09184
:100D1000A102B091A2028A019B01082719272A2764
:100D20003B27C901B80106C0CB01BA01682979295E
:100D30008A299B290E94171980C1002319F0892F45
:100D4000817001C08695882309F477C1812F82952F
:100D500086958770880F880F412F4F7050E060E0B4
:100D600070E04A015B01082E04C0880C991CAA1C83
:100D7000BB1C0A94D2F714FF12C00FE010E020E071
:100D800030E004C0000F111F221F331F8A95D2F7D5
:100D9000B901A801409550956095709503C040E059
:100DA00050E0BA01969596959370892F90E0823025
:100DB0009105E9F08330910579F100919702109146
:100DC00098022091990230919A02019759F048298E
:100DD00059296A297B29CB01BA0160237123822317
:100DE000932320C0802A912AA22AB32A15C0482919
:100DF00059296A297B298091970290919802A091A4
:100E00009902B0919A028A019B01082719272A2783
:100E10003B27C901B80106C0CB01BA01682979296D
:100E20008A299B290E94411808C1412F50E0FA01EC
:100E3000E05EF109E531F10508F07FC0EC58FF4FA5
:100E40000C94D2201F70892F8F71002331F00E94E3
:100E5000F618812F0E94CA1EE4C00E94B818812F84
:100E60000E94BF1EDEC0002311F12111DAC0292F1C
:100E70002F7181E090E0A0E0B0E0AC01BD0104C0C2
:100E8000440F551F661F771F2A95D2F7809197024E
:100E900090919802A0919902B0919A028A019B01C7
:100EA000082719272A273B27C901B80125C0223066
:100EB00008F0B7C0DCCF002329F0892F8F712EC036
:100EC0000023D9F3892F8F710E94B818AAC000237C
:100ED00081F0292F2F7181E090E0A0E0B0E0BC010B
:100EE000CD0104C0660F771F881F991F2A95D2F77E
:100EF00003C060E070E0CB010E94411892C0002363
:100F000081F0192F1F71812F0E94F61828E0129F7F
:100F1000C0011124836080939B02812F0E94F618E8
:100F200080C081E02F830E94DD182F81223008F4D9
:100F300078C082E00E94DD1874C0002339F02223BB
:100F400009F4BBCF812F0E944E1F6BC0222309F4EE
:100F5000B9CF193349F43FEF83EC99E03150804029
:100F60009040E1F700C00000812F0E94D41E59C0BC
:100F7000323FB1F028F4303F49F0313FF9F028C05A
:100F8000343FB9F058F0353F71F022C0002309F426
:100F900056C09091EA0281E0892708C081E00827C5
:100FA0000093EA024CC001114AC081E08093EA023A
:100FB00046C0011144C01092EA0241C0002329F04A
:100FC0008091E902882329F329C0222311F337C035
:100FD0008091E9022223C1F0882341F09091EA0236
:100FE00081E089278093EA021092E902812F002391
:100FF00019F00E944E1F23C00E94D41E86E0F60105
:1010000011928A95E9F71BC08823C9F0011117C016
:101010009091EA0281E089278093EA021092E90226
:101020000EC0F8E0AF16B10441F04CF01AE0A11A7E
:10103000B10822E0A216B10410F40E94470AEE2083
:1010400039F180919B0280FD23C0F60112828595C3
:10105000859585950E94F618C6010E948E028091A2
:101060009B0285958595859528960FB6F894DEBFE9
:101070000FBECDBFDF91CF911F910F91FF90EF90E9
:10108000DF90CF90BF90AF909F908F900C94B81846
:1010900028960FB6F894DEBF0FBECDBFDF91CF917B
:1010A0001F910F91FF90EF90DF90CF90BF90AF9086
:1010B0009F908F9008959091BC0292FF0DC0282FB1
:1010C0002871283019F4877F846006C0282F247186
:1010D000243011F48B7F886093FF0DC0282F287176
:1010E000283119F4877E846106C0282F24712431A9
:1010F00011F48B7E886194FD877E0895282F2770D8
:1011000081E090E001C0880F2A95EAF780959091E0
:101110009D02892380939D020C945217282F2770DB
:1011200081E090E001C0880F2A95EAF790919D0236
:10113000892B80939D020C945217CF93E82F873010
:1011400058F58091070190910801892B09F042C060
:10115000CE2F80E40E94E40E909308018093070153
:10116000892BB1F482E10E94BD0E90930801809317
:101170000701892B69F481E090E001C0880FCA95CE
:10118000EAF780950E94BD0E9093080180930701B5
:1011900084E98093BC001EC090E0FC013797E730E3
:1011A000F105C0F4E757FF4F0C94D220209A2898FD
:1011B00011C0219A29980EC0229A2A980BC0239A0E
:1011C0002B9808C0529A5A9805C0539A5B9802C04F
:1011D0003E9A4698CF910895CF93DF93873008F0D9
:1011E00047C08091070190910801892B09F049C0FF
:1011F00080E40E94E40E9093080180930701892BFC
:1012000011F080E031C083E10E94BD0E909308018F
:1012100080930701892BA9F781E40E94E40E909343
:10122000080180930701892B61F784E88093BC0053
:101230000E944C16EC019091BC0097FD0EC00E94DC
:101240004C168C1B9D0B84369105A8F38EEF9FEFF7
:101250009093080180930701D4CF8091BB008095C3
:10126000109208011092070194E99093BC000AC003
:101270009FB18FB1807F869586959370892B8095DD
:1012800001C080E0DF91CF910895EF92FF920F931C
:101290001F93CF93DF93CDB7DEB767970FB6F89460
:1012A000DEBF0FBECDBF4B8B5C8B6D8B7E8B8F8B70
:1012B0000E891F8901151105C1F15F3F11F44F3FE0
:1012C000A1F1E42EF12CA1E0B0E0042E01C0AA0FA0
:1012D0000A94EAF7852F90E0662319F02091EA023C
:1012E00006C09C0126533E4FF90120812A23222368
:1012F000A9F046E0489F9001499F300D1124F70165
:10130000E20FF31FEE0FFF1FED5EFE4F4081518194
:10131000FC01E653FE4F9081A92B06C0FC01E65369
:10132000FE4FA0958081A823A08386E0FE013D9614
:10133000DF01982F1D929A95E9F74D875E876F8799
:10134000198B088BDE01179601900D928A95E1F7B3
:10135000CE0107960E94C71C811137C086E0FE01AE
:101360003796DE01119601900D928A95E1F7FF8183
:10137000E8856A857B856115710539F1EF3F11F4C8
:10138000FF3F19F120912E0230E0C90101968770CC
:10139000992740915F0250E08417950779F1F9830E
:1013A000EA837D836C8396E0929FD001939FB00D7A
:1013B0001124A15DBD4FFE01319601900D929A95C9
:1013C000E1F780932E020E94211916E080915F02BE
:1013D00090912E02891711F1189FC0011124815D8F
:1013E0009D4F0E94C71C8823C9F080915F0290E046
:1013F00001968770992780935F02E8CF1092D901F8
:101400000E94AC1E10922E0210925F02E8E2F2E0FF
:1014100086E0DF011D928A95E9F7D7CF67960FB670
:10142000F894DEBF0FBECDBFDF91CF911F910F911A
:10143000FF90EF9008952091C8013091C901821763
:10144000930771F09093C9018093C801E091BE02A7
:10145000F091BF02309721F00084F185E02D0994CE
:1014600008952091C6013091C7018217930771F04A
:101470009093C7018093C601E091BE02F091BF0234
:10148000309721F00680F781E02D09940895E091CE
:10149000BE02F091BF02309721F00190F081E02D63
:1014A000099480E008950F931F93CF93DF93C62F85
:1014B000D42F022FFC0182818823C9F06093BD01E3
:1014C0000E944C169093C5018093C40180E28C0F5A
:1014D000883008F050C0C77081E001C0880FCA95FD
:1014E000EAF7DF91CF911F910F910C94CA1E1091D2
:1014F000BD01161330C08091C4019091C5010E94B6
:101500002216883C910538F5C0E2CD0F1D17B9F0C1
:1015100080E2810F883040F4177081E001C0880FAD
:101520001A95EAF70E94BF1EC83048F481E09D2F4B
:10153000977001C0880F9A95EAF70E94CA1E802F03
:101540000E943B1FC830B8F4D77081E001C0880FFB
:10155000DA95EAF70AC080E28C0F883060F4C77031
:1015600081E001C0880FCA95EAF7DF91CF911F9102
:101570000F910C94BF1EDF91CF911F910F91089591
:101580006091AA028CE090E00C947620CF93DF93D8
:1015900026E0729FF001112434E5839FE00DF11DD8
:1015A0001124E60FF11DEE0FFF1FE25AFE4FC59109
:1015B000D491CE01C238D10549F1B0F4C133D1057F
:1015C00009F464C048F4C932D10509F458C0CA32DC
:1015D000D10509F462C068C0C533D10509F448C01B
:1015E000C933D10599F060C0C33ED10541F138F44B
:1015F000C03ED10591F0C23ED105B1F055C0C63E06
:10160000D10521F1C73ED10561F14EC02091BC0248
:1016100020FD14C221FD12C213C22091BC0220FF82
:101620000FC289E390E00CC22091BC0222FF08C2E5
:101630008091BC0284FDB4C183EE90E001C2809130
:10164000BC0282FFF5CF82EE90E0FAC12091BC028D
:1016500023FFF6C18091BC0284FDA2C187EE90E019
:10166000EFC18091BC0283FFF5CF86EE90E0E8C128
:101670002091BC0225FFE4C189E290E0E1C1209104
:10168000BC0225FFDDC185E390E0DAC12091BC02F8
:1016900026FFD6C18AE290E0D3C12091BC0226FF8A
:1016A000CFC181E390E0CCC1C11520E5D20708F09D
:1016B00047C0C11530E4D30708F034C1C83ED10596
:1016C00018F5C03ED10508F0BBC1C83AD10570F489
:1016D000C53AD10508F0B0C0C130D10509F4B0C198
:1016E00008F45EC1249708F45BC1AAC1CF3BD105C1
:1016F00008F4ADC0C03CD10508F452C1FE01EE0FA4
:10170000FF1FEA52FE4F02C1C11520E2D20760F46A
:10171000C11531E0D30708F093C1C03FD10508F4EB
:101720003FC1CE0190658CC1C11580E3D80708F098
:10173000F0C0FE01FF70EE0FFF1FEA5AFC4FE6C03B
:10174000C11595E5D90708F044C0C11524E5D207B5
:1017500008F000C1C11532E5D30710F5C11581E5C8
:10176000D80708F0E3C02C2F237081E090E002C07E
:10177000880F991F2A95E2F79C689E0174E03695C0
:1017800027957A95E1F72370922BEC2FEF70E69571
:10179000E69530E2E39FF00111248E2B9F2B50C180
:1017A0008C2F86958695AE0143705527C115D3457C
:1017B00008F0C1C090E2899F9001112481E090E07F
:1017C00002C0880F991F4A95E2F7822B932B9C68E1
:1017D00037C1C1152AE5D207A0F4C11539E5D307F1
:1017E00008F0C6C0C11586E5D80708F4B8C0C11511
:1017F00098E5D90708F4D4C09C2F8827806F906A99
:101800001FC1C1152BE5D20708F4CAC0CE01C1150E
:101810003CE5D30708F4C1C090568115904208F00A
:10182000BFC08D2F8F710E945B08FE01FF27F06201
:101830008F719F01382BAFC0C53AD10509F4B3C0F1
:10184000C63AD10509F0B2C082E890E4F9C0C83ABE
:10185000D10509F4AEC0C93AD10509F4ADC0CA3A00
:10186000D10509F4ACC0CB3AD10509F4ABC0CC3AF0
:10187000D10509F4AAC0CB3BD10509F4A9C0CC3BE2
:10188000D10509F4A8C0CD3AD10509F4A7C0C03BE1
:10189000D10509F4A6C0CE3AD10509F4A5C0CF3AC6
:1018A000D10509F4A4C0C13BD10509F4A3C0C23BD2
:1018B000D10509F4A2C0C33BD10509F4A1C0C43BC2
:1018C000D10509F4A0C0C53BD10509F49FC0C63BB2
:1018D000D10509F49EC0C73BD10509F49DC0C83BA2
:1018E000D10509F49CC0C93BD10509F49BC0CD3B8F
:1018F000D10509F49AC0CE3BD10509F499C0CA3B81
:10190000D10509F498C080E094E49AC0859194913F
:1019100097C09E013327C901D3FF02C0986C90C0C5
:10192000906C8EC0CE019F70906A8AC09C2F8827D1
:10193000816F906A85C090E2899F9001112481E0B7
:1019400090E002C0880F991F4A95E2F7822B932BF3
:101950009A6876C09C2F8827846F906A71C08C2FFC
:101960000E945B088F7190E0982F8827906268C072
:101970008C2F8F700E945B08FE0194E0F695E7952E
:101980009A95E1F7EF70F0E0FE2FEE27F06A8F7086
:10199000806E9F01282BC90153C09927906650C0C3
:1019A00080E090E04DC081E890E44AC083E890E494
:1019B00047C082EE94E444C089EE94E441C08AEECC
:1019C00094E43EC085EB94E43BC086EB94E438C0DD
:1019D00083EB94E435C084EB94E432C087EB94E469
:1019E0002FC08CEC94E42CC08DEC94E429C083E8E7
:1019F00095E426C08AE895E423C082E995E420C0F6
:101A000084E995E41DC081E296E41AC083E296E47D
:101A100017C084E296E414C085E296E411C086E221
:101A200096E40EC087E296E40BC08FE694E408C00B
:101A300080E794E405C08AE296E402C080EE90E07C
:101A4000DF91CF91089580E290E090930801809318
:101A500007018091C301811111C01092B9008CE07F
:101A60008093B80081E08093C3012FEF83ED90E372
:101A7000215080409040E1F700C0000080E40E94C7
:101A8000E40E9093080180930701892B09F040C070
:101A900080E00E94BD0E9093080180930701892B7E
:101AA000B9F580E00E94BD0E909308018093070174
:101AB000892B71F58FE30E94BD0E909308018093EE
:101AC0000701892B29F584E98093BC0080E40E94FA
:101AD000E40E9093080180930701892BC9F48CE0F0
:101AE0000E94BD0E9093080180930701892B81F419
:101AF00080E00E94BD0E9093080180930701892B1E
:101B000039F48FE30E94BD0E909308018093070182
:101B100084E98093BC0080910701089556985E98EF
:101B200025982D9826982E9827982F988FEF90E03B
:101B3000909389008093880090938B0080938A0013
:101B400090938D0080938C00259A2D9A2FEF80E73B
:101B500092E0215080409040E1F700C00000269ABA
:101B60002E9A2FEF80E792E0215080409040E1F7DD
:101B700000C00000279A2F9A2FEF80E792E02150B3
:101B800080409040E1F700C0000025982D982FEF8D
:101B900080E792E0215080409040E1F700C00000D3
:101BA00026982E982FEF80E792E0215080409040B9
:101BB000E1F700C0000027982F9856985E98259866
:101BC0002D9826982E9827982F98089584B1807F75
:101BD00084B985B1807F85B98AB1837F8AB98BB199
:101BE000837F8BB93E984698089580B38C7080BBF4
:101BF00081B3836F81BB08959F92AF92BF92CF92C2
:101C0000DF92EF92FF920F931F93CF93DF93809118
:101C1000070190910801892B91F08091C2018F5F9B
:101C20008093C20181110BC00E94230D90E090931C
:101C3000080180930701892B11F40E948E0D0EEA92
:101C400012E025EBE22E22E0F22E6801C0E0912C9A
:101C500097E0A92EAC0E8C2F0E949D088A2D0E9421
:101C60009D088C2F0E94EC08F6019081981721F0B6
:101C70008083BB24B39401C0B12C8A2D0E94EC0850
:101C8000F7019081981719F0808381E001C080E00E
:101C9000B82A9B280E94E60DCF5FFFEFCF1ADF0A1C
:101CA0008FEFE81AF80AC73099F60E944C166AEFCF
:101CB00070E00E94AA209C01682F8091C1018823B6
:101CC00009F44CC01092C101E091A802F091A90260
:101CD000DF011E9690E07BEF8AEFE82EF12C8081E9
:101CE0008B3FA9F0482F50E0681728F0E901C41B8A
:101CF000D50BAE0106C06701C41AD50AA601420F72
:101D0000531F4F30510514F0708301C091E031969C
:101D1000EA17FB0721F79093C101911002C09111BE
:101D20001FC0A091A802B091A9028091C101E1EC6D
:101D3000F2E02EE02E0F3081E80199918E014C9156
:101D40004B3F29F4391719F06C93908381E0119679
:101D500031962E13F0CF8093C10102C09110E1CFD4
:101D6000892DDF91CF911F910F91FF90EF90DF9020
:101D7000CF90BF90AF909F900895CF93DF938093C3
:101D8000BB0084E88093BC000E944C16EC0190914B
:101D9000BC0097FD0AC00E944C168C1B9D0B84361C
:101DA0009105A8F38EEF9FEF0CC02091B900287F1A
:101DB00081E090E0283211F480E090E091958195E7
:101DC0009109DF91CF9108950F931F93CF93DF93E4
:101DD000C82F1092BC0084EA8093BC000E944C166D
:101DE0008C019091BC0097FD0AC00E944C16801B8C
:101DF000910B84369105A8F38EEF9FEF2AC0909146
:101E0000B900987F983041F09091B900987F903157
:101E100019F08FEF9FEF1DC0C093BB0084E8809343
:101E2000BC000E944C16EC019091BC0097FD08C0CC
:101E30000E944C168C1B9D0B84369105A8F3DCCFB9
:101E40008091B900887F883111F0803411F780E0EB
:101E500090E0DF91CF911F910F910895CF93DF9381
:101E6000EC0180EEFE01099581EEFE01DF91CF913C
:101E70000994CF92DF92FF920F931F93CF93DF933A
:101E80001F92CDB7DEB7F82E8B0199830E942B19D4
:101E9000998181111CC0CF2CD92E01151105B1F0EB
:101EA0008091E80085FD0AC08091E8008E778093DC
:101EB000E8000E942B19882381F309C0F601819163
:101EC0006F018093F10001501109E7CF80E00F907E
:101ED000DF91CF911F910F91FF90DF90CF900895E8
:101EE0001F93CF93DF93CDB7DEB7AA970FB6F894C1
:101EF000DEBF0FBECDBFE0E0F2E088E08E0F909134
:101F0000F10091938E13FBCF80910102833009F48D
:101F100060C030F4813071F0823009F49CC0B3C0ED
:101F20008A3009F488C08B3009F46BC0893009F01D
:101F3000AAC020C080910002813A09F0A4C080911B
:101F4000E800877F8093E800809104029091050269
:101F5000892B21F460E28CED91E003C060E080E029
:101F600090E070E00E94B1198091E8008B77809337
:101F7000E80089C080910002813209F084C080911C
:101F8000040290910502029708F07DC08091E8005C
:101F9000877F8093E8008091E80082FD05C08091F2
:101FA000FE018111F8CF6FC02091F3008091F20003
:101FB00090E0922B029729F48091F1008B7F813081
:101FC00021F48091F1008093DB018091E8008B7710
:101FD00056C080910002813A09F055C080910402F8
:101FE00090910502892B09F04EC08091E800877F0F
:101FF0008093E8008091E80080FFFCCF809106018B
:1020000039C0809100028132F1F5809104029091F3
:102010000502892BC1F58091E800877F8093E80055
:102020000E945D1980910202809306011092D901ED
:102030000E94AC1E28C080910002813221F580915F
:10204000E800877F8093E8000E945D198091030279
:102050008093DA0118C080910002813AA1F4809146
:10206000E800877F8093E8008091E80080FFFCCF44
:102070008091DA018093F1008091E8008E7780935F
:10208000E8000E945D198091E80083FFD6C180912D
:10209000000290910102492F50E04A30510508F0AA
:1020A000CCC1FA01E057FF4F0C94D220803821F0C8
:1020B000823809F0C2C108C08091FC019091FD01F5
:1020C000992389F082600FC0809104028F7087305D
:1020D00008F0B3C18093E9008091EB0085FB88276D
:1020E00080F91092E9009091E800977F9093E800C2
:1020F0008093F1001092F10074C1282F2D7F09F018
:102100009CC1882319F0823061F097C1809102024E
:10211000813009F092C1933009F080E08093FD0195
:102120002EC08091020281112AC0809104028F701A
:102130002FEF280F263008F080C18093E90020910E
:10214000EB0020FF1CC0933021F48091EB008062F3
:1021500014C09091EB0090619093EB0021E030E08F
:10216000A90102C0440F551F8A95E2F74093EA0087
:102170001092EA008091EB0088608093EB0010924F
:10218000E9008091E800877F2FC1811156C110912D
:1021900002021F778091E3008078812B8093E30017
:1021A0008091E800877F8093E8000E945D1980910C
:1021B000E80080FFFCCF8091E30080688093E3001B
:1021C000111102C082E001C083E08093FE0135C19D
:1021D0008058823008F031C1809102029091030250
:1021E0008C3D53E0950779F583E08A838AE2898301
:1021F0004FB7F894DE01139620E03EE051E2E32F62
:10220000F0E050935700E49120FF03C0E295EF7097
:102210003F5FEF708E2F90E0EA3010F0C79601C05C
:10222000C0968D939D932F5F243149F74FBF8091C6
:10223000E800877F8093E8006AE270E0CE010196B3
:102240000E94B119BDC04091040250910502292F8E
:10225000332723303105B9F06CF42130310509F40E
:10226000FBC02230310509F0E8C08BE390E0E6E5E1
:10227000F4E054C02132310509F433C02232310573
:1022800009F43CC0DAC0992781309105D1F05CF4A3
:10229000892B09F0D2C0E9EDF4E0E4918E2F90E0B3
:1022A000E9EDF4E038C08230910599F0039709F028
:1022B000C4C0E3EAF4E0E4918E2F90E0E3EAF4E0B6
:1022C0002AC0E1ECF4E0E4918E2F90E0E1ECF4E040
:1022D00022C0E9EAF4E0E4918E2F90E0E9EAF4E02C
:1022E0001AC04115510509F4BCC04130510509F02F
:1022F000A4C089E090E0E1E8F4E010C04115510588
:1023000009F4B4C04130510509F097C080EC90E069
:10231000E6E5F3E003C0009709F48FC02091E800E0
:10232000277F2093E80020910602309107022817AA
:10233000390708F4C90140E0009789F12091FE01B6
:10234000222309F43DC02530D9F12091E80023FD76
:1023500037C02091E80022FD2FC02091E80020FF27
:10236000EBCF4091F3002091F20030E0342B009746
:1023700059F02830310540F444914093F1003196F2
:1023800001972F5F3F4FF3CF41E02830310509F02F
:1023900040E02091E8002E772093E800CDCF411156
:1023A000CDCF0AC08091FE01882351F0853041F0E5
:1023B0008091E80083FD04C08091E80082FFF2CFA5
:1023C0008091E8008B778093E80037C08038A9F5CA
:1023D0008091E800877F8093E8008091FF018093DF
:1023E000F1008091E8008E778093E8000E945D19EB
:1023F00024C0811122C0109102021230F0F48091A9
:10240000E800877F8093E8001093FF010E945D1928
:10241000111106C08091E30087FD02C081E001C078
:1024200084E08093FE0142E061EC81E00E947C192F
:1024300042E261EC82E00E947C198091E80083FF17
:102440001AC08091E800877F8093E8008091EB00BC
:1024500080628093EB000FC082E190E0E1E9F4E05C
:102460005DCF89E090E0E8E6F4E058CF80E490E0CA
:10247000E6E1F4E053CFAA960FB6F894DEBF0FBEA4
:10248000CDBFDF91CF911F9108951F920F920FB68C
:102490000F9211242F933F934F935F936F937F93EA
:1024A0008F939F93AF93BF93CF93DF93EF93FF935C
:1024B000C091E900CF708091EC00D82FD17080FDE1
:1024C000D0E81092E9008091F000877F8093F000BF
:1024D00078940E94700F1092E9008091F00088605B
:1024E0008093F000CD2BCF70C093E900FF91EF9166
:1024F000DF91CF91BF91AF919F918F917F916F911C
:102500005F914F913F912F910F900FBE0F901F90B1
:102510001895E8EDF0E080818E7F80831092E200D4
:102520001092DA001092E100A0EEB0E08C91816090
:102530008C9380818F77808319BCA7EDB0E08C915C
:102540008E7F8C9380818F7E80831092D801089536
:10255000CF92DF92EF92FF920F931F93CF93DF936F
:10256000C8EDD0E088818F7E8883E7EDF0E0808140
:102570008160808384E082BF81E08093D80188817C
:102580008E7F888302EE10E0F80110821092DA004C
:1025900081EEC82ED12CF601108288818F77888336
:1025A00088818068888388818F7D888319BC109298
:1025B000FE011092FF011092FD011092FC0190EEBD
:1025C000E92EF12CF70180818B7F808388818160E7
:1025D000888342E060E080E00E947C19F6018081FF
:1025E0008E7F8083F8018081816080838081886014
:1025F0008083F70180818E7F8083888180618883DA
:10260000DF91CF911F910F91FF90EF90DF90CF90CE
:1026100008951F920F920FB60F9211242F933F939C
:102620004F935F936F937F938F939F93AF93BF93DA
:10263000EF93FF938091E10082FF09C08091E20057
:1026400082FF05C08091E1008B7F8093E100809143
:10265000DA0080FF2AC08091D80080FF26C08091D8
:10266000DA008E7F8093DA008091D90080FF18C055
:1026700080E189BD82E189BD09B400FEFDCF81E022
:102680008093FE018091D80181110FC00E948912B0
:102690000E94A8128091E20084608093E20005C04D
:1026A00019BC1092FE011092D8018091E10080FFC8
:1026B00017C08091E20080FF13C08091E2008E7FFE
:1026C0008093E2008091E20080618093E20080913B
:1026D000D80080628093D80019BC85E08093FE0109
:1026E0008091E10084FF34C08091E20084FF30C01B
:1026F00080E189BD82E189BD09B400FEFDCF8091F2
:10270000D8008F7D8093D8008091E1008F7E8093E8
:10271000E1008091E2008F7E8093E2008091E200F0
:1027200081608093E2008091FF01882311F084E0B2
:1027300007C08091E30087FD02C081E001C083E013
:102740008093FE011092D9010E94AC1E0E94470A9C
:102750008091E10083FF27C08091E20083FF23C0C6
:102760008091E100877F8093E10082E08093FE0109
:102770001092FF018091E1008E7F8093E1008091B3
:10278000E2008E7F8093E2008091E200806180937E
:10279000E20042E060E080E00E947C198091F0005D
:1027A00088608093F000FF91EF91BF91AF919F916E
:1027B0008F917F916F915F914F913F912F910F90EA
:1027C0000FBE0F901F9018958091DB010895CF9355
:1027D000DF9300D01F92CDB7DEB72091FE012430E9
:1027E00031F523E02983805891099B838A8382E015
:1027F0008093E9008FEF9091E800815095FD06C02D
:1028000095ED9A95F1F700008111F5CF8091E800E0
:1028100085FF0DC040E050E063E070E0CE0101961E
:102820000E94390F8091E8008E778093E8000F9026
:102830000F900F90DF91CF9108950F931F93CF9337
:10284000DF9300D01F92CDB7DEB78C010E94141A1F
:10285000823011F0843021F584E089831B830A8360
:1028600082E08093E9008FEF9091E800815095FD20
:1028700006C095ED9A95F1F700008111F5CF809192
:10288000E80085FF0DC040E050E063E070E0CE015D
:1028900001960E94390F8091E8008E778093E800BE
:1028A0000F900F900F90DF91CF911F910F9108958E
:1028B000CF93DF93EC010E94141A823011F0843020
:1028C000F9F482E08093E9009FEF8091E800915055
:1028D00085FD06C085ED8A95F1F700009111F5CFD1
:1028E0008091E80085FF0CC040E050E066E070E0B9
:1028F000CE010E94390F8091E8008E778093E80026
:10290000DF91CF910895CF93DF93EC010E94141AC9
:10291000823011F08430D9F580910601882339F096
:102920008091BC0287FF03C060E282E002C068E0E1
:1029300081E08093E9008FEF9091E800815095FD50
:1029400006C095ED9A95F1F700008111F5CF8091C1
:10295000E80085FF1CC080910601811105C040E0A0
:1029600050E068E070E003C070E040E050E0CE016D
:102970000E94390F8091E8008E778093E80080E212
:10298000FE01ACEDB1E001900D928A95E1F7DF9187
:10299000CF910895803F39F48091D20287FF6CC0B7
:1029A0001092D20269C0813F29F48091D202181698
:1029B000BCF362C09091D102823F29F497FF5CC0C2
:1029C0001092D10259C0833F19F41916CCF354C0A8
:1029D000893F41F48091D30218160CF04DC010923B
:1029E000D3024AC08A3F29F48091D30287FF44C0B2
:1029F000F6CF8B3F39F48091D40287FF3DC010920F
:102A0000D4023AC08C3F29F48091D4021816BCF34A
:102A100033C0843F21F48091D0028E7F17C0853F60
:102A200021F48091D0028D7F11C0863F21F48091E6
:102A3000D0028B7F0BC0873F21F48091D002877F2B
:102A400005C0883F31F48091D0028F7E8093D00200
:102A500013C08D3F21F48091A7028E7F0BC08E3F63
:102A600021F48091A7028D7F05C08F3F29F48091CA
:102A7000A7028B7F8093A7028091D10281110EC0A3
:102A80008091D20281110AC08091D302811106C0C7
:102A90008091D402811102C01092D50208958091D4
:102AA000A70280FD16C081FD16C082FD18C080916E
:102AB000D502882391F0883290F428E0829FC001EB
:102AC000112468E270E00E94BE20862F672B29F057
:102AD00007C082E0089584E0089581E0089588E0C9
:102AE00008958091A70280FD17C081FD17C082FD67
:102AF00019C08091D502882399F08C3398F423E291
:102B0000829FC00111246CE370E00E94BE20862FDA
:102B1000672B49F481E0089588E0089581E10895E4
:102B200085E0089583E20895803F21F40E947115A5
:102B3000819504C0813F29F40E9471158093D202CF
:102B40000895823F21F40E947115819504C0833F4E
:102B500029F40E9471158093D1020895893F19F4D8
:102B60000E944F1505C08A3F31F40E944F15819590
:102B70008093D30208958B3F21F40E944F158195D5
:102B800004C08C3F29F40E944F158093D40208950D
:102B9000843F21F48091D002816017C0853F21F4E9
:102BA0008091D002826011C0863F21F48091D002D2
:102BB00084600BC0873F21F48091D002886005C0FB
:102BC000883F31F48091D00280618093D0020895D3
:102BD0008D3F21F48091A70281600BC08E3F21F4CC
:102BE0008091A702826005C08F3F29F48091A702DF
:102BF00084608093A702089578941F920F920FB675
:102C00000F9211248F939F93AF93BF938091A30250
:102C10009091A402A091A502B091A6020196A11DD7
:102C2000B11D8093A3029093A402A093A502B09338
:102C3000A602BF91AF919F918F910F900FBE0F9001
:102C40001F901895CF92DF92EF92FF920F931F93F0
:102C50002FB7F8944091A3025091A4026091A5026D
:102C60007091A6022FBF6A017B01EE24FF248C0124
:102C700020E030E0C016D106E206F30610F4415021
:102C800051099A01281B390BC9011F910F91FF901F
:102C9000EF90DF90CF9008952FB7F8948091A30222
:102CA0009091A402A091A502B091A6022FBF089511
:102CB000E091BE02F091BF02309749F082E080932C
:102CC000CF020480F581E02D8FEC92E009950E94FF
:102CD0004C169093D7028093D60208951F920F92BC
:102CE0000FB60F9211248F939F93AF93BF93809150
:102CF000C002811113C08091A3029091A402A091FF
:102D0000A502B091A6024196A11DB11D8093A30218
:102D10009093A402A093A502B093A602BF91AF9195
:102D20009F918F910F900FBE0F901F90189520913B
:102D30000601222321F02091BC0227FD04C0FC01E2
:102D40003296089619C0262F2695269526952E315F
:102D5000C0F4FC01E20FF11D677081E090E001C05A
:102D6000880F6A95EAF78095928189238283089576
:102D70003196E817F90729F020812613F9CF108240
:102D8000F7CF089520910601222321F02091BC0263
:102D900027FD05C0FC0132962FEF30E019C0262F29
:102DA0002695269526952E3120F5FC01E20FF11D82
:102DB000677081E090E001C0880F6A95EAF7928120
:102DC000892B828308952F3F39F03F5F363041F0E1
:102DD00041914613F8CF0DC04111F7CF232FF5CF06
:102DE0002F3F39F0FC01E20FF11D27FDFA956283B8
:102DF000089508956DEE7EEF80E090E00E949420AB
:102E000060E082E090E00E94762060E083E090E065
:102E10000E94762010929F021092A0021092A102AE
:102E20001092A20260E084E090E00E94762060E0D0
:102E300085E090E00E94762060E086E090E00E94CD
:102E400076206FEF87E090E00E94762040E050E02F
:102E5000BA0188E090E00E94882060E08DE090E078
:102E60000E94762040E050E0BA0188E190E00E94A4
:102E7000882060E087E190E00E94762040E050E00A
:102E8000BA018FE090E00E94882040E050E0BA0153
:102E900083E190E00C94882080919E028111109231
:102EA0009E02089590919D028091D901892B2091D5
:102EB0009C02982F922B9093080280919E02882367
:102EC000D9F0892B8093080280910601882331F084
:102ED0008091BC0287FF02C08EE101C086E0EAE07B
:102EE000F2E090E0815028F021912223D9F39F5FF6
:102EF000F9CF91110E944C17E091BE02F091BF02F0
:102F00003097A9F080910601882359F08091BC0286
:102F100087FF07C0809108028093090285E08093B3
:102F200008020280F381E02D88E092E00994089580
:102F3000BF92CF92DF92EF92FF920F931F93CF93A6
:102F4000DF938C01C0909F02D090A002E090A1027C
:102F5000F090A2028091970290919802A09199021C
:102F6000B0919A02C82AD92AEA2AFB2ACFE1D0E0F6
:102F7000D701C6010C2E04C0B695A79597958795E5
:102F80000A94D2F780FF07C0BC2EB8018C2F0E9494
:102F9000C60A019719F4219758F7B12C8B2DDF91B0
:102FA000CF911F910F91FF90EF90DF90CF90BF9046
:102FB0000895CF93DF93EC010E949817BE010E9401
:102FC000C60ADF91CF910895292F220F920F990FF2
:102FD000890F682F669566956695982F977085E09E
:102FE000689FB001112440E050E080E0FA01E60F54
:102FF000F71FE05AFD4F208130E0092E02C03695C0
:1030000027950A94E2F721703327042E01C0220F7E
:103010000A94EAF7822B4F5F5F4F4530510531F735
:103020000895292F220F920F990F890FA82FA69587
:10303000A695A695877051E001C0550F8A95EAF7CD
:1030400085E0A89FD001112420E030E070E0F90174
:10305000EA0FFB1FE05AFD4F4081CB01022E02C058
:10306000969587950A94E2F7817099278195842730
:103070008523842780832F5F3F4F2530310539F723
:1030800008950F931F93AB01BC01CB01AA27BB2767
:103090000097A105B10511F0E0E103C0DB01CA0111
:1030A000E0E0092F1A2F2B2F3327011511052105D9
:1030B000310519F0E85FD901C8018C019D01F4E0E8
:1030C0003695279517950795FA95D1F701151105AE
:1030D0002105310519F0EC5FD901C8018C019D0172
:1030E000F2E03695279517950795FA95D1F70115D2
:1030F00011052105310519F0EE5FD901C801B6951A
:10310000A79597958795892B8A2B8B2B09F0EF5FD5
:1031100056985E9825982D9826982E9827982F983F
:103120008E2F90E0FC013197E730F105A8F4E656C8
:10313000FF4F0C94D220259A2D9A0EC0259A2D9AD5
:10314000269A2E9A09C0259A2D9A04C0259A2D9A5E
:10315000269A2E9A279A2F9A409397025093980274
:103160006093990270939A021F910F910C94911E93
:103170000F931F9341E050E060E070E004C0440F03
:10318000551F661F771F8A95D2F740955095609519
:1031900070958091970290919802A0919902B091B8
:1031A0009A028A019B01082319232A233B23C90180
:1031B000B8011F910F910C94411820919B028095AA
:1031C000822380939B02982F977079F430E0482FE8
:1031D000082E000C550B2417350739F08595859579
:1031E00085950E94B81810929B0208950F931F9323
:1031F00041E050E060E070E004C0440F551F661FDE
:10320000771F8A95D2F78091970290919802A091AA
:103210009902B0919A028A019B01082B192B2A2B43
:103220003B2BC901B8011F910F910C944118609379
:103230009F027093A0028093A1029093A2020C942B
:10324000911E80915F0290912E02891719F08F5F75
:103250008770FBCF08952091E4003091E50095E65A
:103260004091EC00842F817040FF22C08091E800E3
:1032700080FD1CC08091FE01882391F0853091F083
:103280008091EB0085FD10C04091E4005091E50075
:103290004217530729F39A01915011F784E00895DA
:1032A00082E0089583E0089581E0089580E0089524
:1032B0004091E80042FFDECF08958091000287FF31
:1032C00011C08091E80082FD05C08091FE0181114E
:1032D000F8CF11C08091E8008B770BC08091FE0180
:1032E000882349F08091E80080FFF8CF8091E800C2
:1032F0008E778093E8000895982F973058F5909333
:10330000E900981739F07091EC002091ED00509190
:10331000F00003C0242F762F50E021FF19C0309118
:10332000EB003E7F3093EB003091ED003D7F30931A
:10333000ED003091EB0031603093EB007093EC00C6
:103340002093ED005093F0002091EE0027FF07C07E
:103350009F5FD3CF8F708093E90081E0089580E074
:10336000089520910602309107022617370748F08A
:103370006115710539F42091E8002E772093E8005B
:1033800001C0B90140E061157105A9F12091FE016C
:10339000222309F443C0253009F442C02091E800FB
:1033A00023FD40C02091E80022FD32C02091E800BA
:1033B00020FFE9CF4091F3002091F20030E0342B60
:1033C000FC01CF016115710559F02830310540F439
:1033D00081918093F100615071092F5F3F4FF1CFD0
:1033E00041E02830310509F040E02091E8002E77D7
:1033F0002093E800C8CF4111C9CF0AC08091FE01D7
:10340000882361F0853061F08091E80083FD0AC077
:103410008091E80082FFF2CF80E0089582E0089575
:1034200083E0089581E008958091E802811107C04A
:103430008091FE01843011F081E0089582E00895CA
:10344000CF93DF93CDB7DEB72A970FB6F894DEBFE0
:103450000FBECDBF84B7877F84BF0FB6F894A89501
:1034600080916000886180936000109260000FBEC0
:1034700080E8809361001092610085B7806885BF05
:1034800085B7806885BF0E9489120E94A81280912A
:10349000E20084608093E20078948091FE018823AA
:1034A000A1F01091E9001F709091EC00892F8170BC
:1034B00090FD80E8182B1092E9008091E80083FDD0
:1034C0000E94700F1F701093E90082E084BD93E0AA
:1034D00095BD9AEF97BD80936E000E94230D90E0FA
:1034E00090930801809307010E94E60D0E94F50D5C
:1034F000AEEAB2E0E1ECF2E01EE0F12EFE0E119237
:103500001D92FE12FCCF8EE090E00E94D8208093A6
:10351000A8029093A902FC010E962BEF2193E817C5
:10352000F907E1F780E090E00E9470208D3E9E4F09
:1035300011F00E94FA168CE090E00E94682090E062
:10354000A0E0B0E08093AA029093AB02A093AC02FB
:10355000B093AD0289EA8093800089E08093810076
:1035600024982C983F988AB18F7C8AB96E98479A94
:103570008BB180638BB9769A0E948E0D80E090E0CB
:103580000E9470208D3E9E4F11F00E94FA1682E03C
:1035900090E00E9468208093D90284E090E00E942D
:1035A000682090E09093BD028093BC0283E090E09D
:1035B0000E946820682F70E080E090E00E94171958
:1035C00089E091E09093BF028093BE029924939486
:1035D000EE24EA94CC24C394D12C50E1452E62E130
:1035E000562E78E1A72EB12CE0E48E2E8091FE01BC
:1035F000853009F043C08091FE01843009F11092BA
:10360000C0020FB6F894A895A09260000FBE8092F9
:10361000600083B7817F846083BF83B7816083BF8D
:103620007894889583B78E7F83BF0FB6F894A8955A
:1036300080916000886180936000109260000FBEEE
:103640008091FD01882391F20E94230D90E09093D8
:103650000801809307010E94E60D0E94F50DE1EC40
:10366000F2E01192FE12FDCF0E94FC0DE1ECF2E0BF
:1036700081918111F2C0FE12FBCFB8CF0E94FC0DE8
:10368000EAEDF2E0A1ECB2E000E010E0702F6D9105
:1036900021912627B1F180E090E030E0782EA90159
:1036A000082E02C0559547950A94E2F740FF25C0C1
:1036B00089837A83C60102C0880F991F7A94E2F742
:1036C0003C01862F90E08621972121E0892B09F487
:1036D00020E02B830E944C168160782F9D838C8381
:1036E00049815A816B818D810E944509F801E6521A
:1036F000FD4F80816826608219C001968630910551
:1037000069F60F5F1F4F0E30110509F0BFCFEE8233
:10371000EF8218860E944C168160782F9A878987DD
:103720004E815F8168858A850E9445098091D60215
:103730009091D7020E9422169C019091D502992364
:1037400021F02431310508F47CC08091D102109120
:10375000D20281110BC0111194C02091D30221110A
:1037600090C02091D40221118CC06BC09F3F19F0F2
:103770009F5F9093D502181624F40E9471158093D0
:10378000D1028091D10287FF05C00E9471158195F9
:103790008093D102111624F40E9471158093D202F5
:1037A0008091D20287FF05C00E9471158195809398
:1037B000D2023091D102332301F12091D20222238F
:1037C000E1F045EB3403C0011124892F990F990BC7
:1037D000009719F08093D10202C09092D10235EB8C
:1037E0002303C0011124892F990F990B009719F019
:1037F0008093D20202C09092D2028091D302181616
:1038000024F40E944F158093D3028091D30287FF46
:1038100005C00E944F1581958093D3028091D402F8
:10382000181624F40E944F158093D4028091D4027C
:1038300087FF05C00E944F1581958093D4020E9496
:1038400058161091D8020E94470A181709F4CECED4
:103850000E94470A8093D802C9CE49BC59BC09B41A
:1038600000FEFDCF8091D8008F7D8093D80080919D
:10387000E00082608093E0008091E00081FDFCCF59
:10388000B5CE9F3F09F074CF7CCF80912D028295F9
:103890008F7009F054C080912A02882309F44FC028
:1038A00080915F02A0912E026091280270912902FE
:1038B00040912B0250912C02B6E08A1709F43FC0C8
:1038C00090E041155105C1F17F3F11F46F3FA1F127
:1038D000B89FF001B99FF00D1124E15DFD4F2181EA
:1038E00072132AC02081621327C02281211124C0B3
:1038F000238134812417350710F421503109241B0A
:10390000350B283C3105C0F420912D022F70206129
:1039100020932D0226E0289FF001299FF00D11240D
:10392000EC5CFD4F80818F708061808388E292E043
:103930000E948E020C94211901968770BECF0895C3
:103940000E94D917292F2F7092959F70E92FF0E0D0
:103950003297EE30F105B8F4EF55FF4F0C94D220BA
:10396000803F99F018F4803E70F40FC0843F59F402
:103970000CC0803E50F0813F31F407C0822F869505
:1039800086958695089580E0089581E00895BF9218
:10399000CF92DF92EF92FF920F931F93CF93DF931B
:1039A000CDB7DEB761970FB6F894DEBF0FBECDBFBF
:1039B0008C0185E0F801DE011D9601900D928A953B
:1039C000E1F7D8013C9111962C9111971296EC9049
:1039D00012971396CD90DC90149750912802609125
:1039E000290280912B0290912C02009709F44FC17B
:1039F0006F3F19F45F3F09F44AC1B0902A02BB201F
:103A000009F4ECC040912D02C816D90628F0F60141
:103A1000E81BF90BCF0104C0809590958C0D9D1D7E
:103A2000FF24F394883C910548F0F12C407F09F085
:103A30009FC088E292E00E948E0221C1842F807F85
:103A400009F044C0621312C0531310C0E1100EC03D
:103A50004F70406140932D0288E292E00E948E02F6
:103A600080912D02D80115968C932EC0CD2819F186
:103A70002F3F11F43F3FF9F0FE2CE1101CC0809164
:103A80005F0240912E0256E0841709F458C090E07E
:103A9000589FF001599FF00D1124E15DFD4F6181A8
:103AA000261306C06081361303C06281611103C012
:103AB00001968770E9CFFE2CEE2009F421C1809198
:103AC0002D02816080932D02F12C1AC162130AC06D
:103AD000531308C0E11006C080912D02D80115963D
:103AE0008C93B0C03D872E878D859E850E94A01C3B
:103AF0008823D1F1EE20C1F120912D02822F8295F1
:103B00008F7090E0029774F08091280290912902C2
:103B100098878F831986DB86CA862C87CE01079605
:103B20000E948E0286E0F801A8E2B2E001900D92B8
:103B30008A95E1F70E94451CFF24F394E1C03D877C
:103B40002E878D859E850E94D917292F22952F704B
:103B500030E0223031050CF0C7C09F7009F0C1C0C1
:103B6000805E883008F4CCC0C8010E948E02E4CF89
:103B7000621314C0531312C0E11010C080912D02C3
:103B8000F8018583C8010E948E0286E0E8E2F2E037
:103B9000DF011D928A95E9F7FB2CB2C03D872E8785
:103BA0008D859E850E94A01C8823F1F2EE20E1F213
:103BB00020912D02822F82958F7090E002970CF455
:103BC000B1CF80912802909129029A8389831B8228
:103BD000DD82CC822E83CE010196A2CFC816D906F3
:103BE00038F0C81AD90AB8ECCB16D10450F007C087
:103BF000809590958C0D9D1D883C910510F0F12CC1
:103C00003EC0FE2CEE2009F4AFCF621327C0531341
:103C100025C020912D0220FD18C0822F82958F7023
:103C2000482F50E04115510581F0F80125834F30B0
:103C3000510541F08F5F982F9295907F822F8F7062
:103C4000892B8583C8010E948E0286E0F801A8E2D4
:103C5000B2E001900D928A95E1F752C03D872E8720
:103C60008D859E850E94A01C81115CCF80912D02C4
:103C7000816080932D02C8010E948E0241C0E8E25B
:103C8000F2E086E0DF011D928A95E9F739C0EE2067
:103C900009F46ACF3D872E878D859E850E94A01CE2
:103CA000F82E882309F460CF86E0F801A8E2B2E09C
:103CB00001900D928A95E1F7809128029091290256
:103CC0000E94D91792959F70963041F48091EA0234
:103CD00091E089278093EA029093E9020E94451CB3
:103CE0000FC081113DCF0CC0243031050CF03CCF0A
:103CF0009F7009F435CFF8019581907F09F030CF9E
:103D00008F2D61960FB6F894DEBF0FBECDBFDF9149
:103D1000CF911F910F91FF90EF90DF90CF90BF90C8
:103D2000089510929D0210929C020E945217EFEC8F
:103D3000F2E086E0DF011D928A95E9F71092D50244
:103D40001092A7020E94581680E090E00E94310A6B
:103D500080E090E00C941B0A80910601882331F0EA
:103D60008091BC0287FF02C08EE101C086E0EAE0DC
:103D7000F2E0DF011D928A95E9F70C94911E8823E9
:103D800041F080959091D90189238093D9010C94B9
:103D900052170895882339F09091D901892B809387
:103DA000D9010C9452170895882309F463C082380E
:103DB00069F40E94470A81FF5DC069E388E092E0F0
:103DC0000E94C2160E94521769E30EC0833891F414
:103DD0000E94470A80FF4EC063E588E092E00E949F
:103DE000C2160E94521763E588E092E00E9497167F
:103DF0000C945217843869F40E94470A82FF3AC033
:103E000067E488E092E00E94C2160E94521767E4BD
:103E1000EBCF9CEF980F913A10F4682FE5CF90E22A
:103E2000980F983088F4877021E030E0A90102C033
:103E3000440F551F8A95E2F7CA0180959091D901E8
:103E400089238093D901D4CF9BE5980F933020F438
:103E500080E090E00C94310A98E5980F973120F4B7
:103E600080E090E00C941B0A803F20F00E94CA146E
:103E70000C9458160895CF93C82F0E944E1FC93333
:103E800049F42FEF83EC99E0215080409040E1F716
:103E900000C000008C2FCF910C94D41E882309F40D
:103EA00016C18238B1F40E94470A81FD10C169E34E
:103EB00088E092E00E94C2160E9452172FEF41EE56
:103EC00054E0215040405040E1F700C0000069E359
:103ED00017C08338D9F40E94470A80FDF8C063E513
:103EE00088E092E00E94C2160E9452178FEF91EE76
:103EF00024E0815090402040E1F700C0000063E5DD
:103F000088E092E00E9497160C9452178438B1F41E
:103F10000E94470A82FDDBC067E488E092E00E94CD
:103F2000C2160E9452174FEF51EE84E041505040AC
:103F30008040E1F700C0000067E4E2CF9CEF980FFB
:103F4000913A30F4682F88E092E00E94C216DCCFEC
:103F500090E2980F983080F4877021E030E0A9015A
:103F600002C0440F551F8A95E2F7CA019091D9010A
:103F7000892B8093D901C8CF9BE5980F933070F4BB
:103F8000853A29F0863A31F083E890E005C081E86F
:103F900090E002C082E890E00C94310A98E5980F16
:103FA000973108F08EC0883A09F445C0893A09F47F
:103FB00045C08A3A09F445C08B3A09F445C08C3AA9
:103FC00009F445C08B3B09F445C08C3B09F445C05E
:103FD0008D3A09F445C0803B09F445C08E3A09F496
:103FE00045C08F3A09F445C0813B09F445C0823B86
:103FF00009F445C0833B09F445C0843B09F445C03E
:10400000853B09F445C0863B09F445C0873B09F46C
:1040100045C0883B09F445C0893B09F445C08D3B48
:1040200009F445C08E3B09F445C08A3B09F445C0FC
:1040300080E090E044C082EE90E041C089EE90E0E4
:104040003EC08AEE90E03BC085EB90E038C086EB46
:1040500090E035C083EB90E032C084EB90E02FC05D
:1040600087EB90E02CC08CEC90E029C08DEC90E0C8
:1040700026C083E891E023C08AE891E020C082E96D
:1040800091E01DC084E991E01AC081E292E017C07E
:1040900083E292E014C084E292E011C085E292E0F3
:1040A0000EC086E292E00BC087E292E008C08FE685
:1040B00090E005C080E790E002C08AE292E00C94B4
:1040C0001B0A803F20F00E9494150C945816089506
:1040D000F999FECF92BD81BDF89A992780B50895D0
:1040E000A8E1B0E042E050E00C949C20262FF99922
:1040F000FECF92BD81BDF89A019700B4021639F047
:104100001FBA20BD0FB6F894FA9AF99A0FBE089517
:104110000396272F0E9477200E947620252F0E9449
:104120007720242F0C9477200196272F0E94772048
:104130000C947620DC01CB01FC01F999FECF06C07E
:10414000F2BDE1BDF89A319600B40D924150504055
:10415000B8F70895AA1BBB1B51E107C0AA1FBB1FDC
:10416000A617B70710F0A61BB70B881F991F5A9503
:10417000A9F780959095BC01CD01089597FB072E76
:1041800016F4009407D077FD09D00E94AA2007FCFE
:1041900005D03EF4909581959F4F08957095619557
:1041A0007F4F0895EE0FFF1F0590F491E02D0994C5
:1041B000CF93DF938230910510F482E090E0E0919C
:1041C000ED02F091EE0220E030E0C0E0D0E0309768
:1041D00011F14081518148175907C0F0481759071C
:1041E00061F482819381209719F09B838A832BC08D
:1041F0009093EE028093ED0226C02115310519F04F
:104200004217530718F49A01BE01DF01EF01028043
:10421000F381E02DDCCF2115310509F1281B390B85
:104220002430310590F412968D919C91139761156D
:10423000710521F0FB019383828304C09093EE0209
:104240008093ED02FD01329644C0FD01E20FF31FA1
:1042500081939193225031092D933C933AC0209140
:10426000EB023091EC02232B41F4209102013091BA
:1042700003013093EC022093EB0220910001309176
:1042800001012115310541F42DB73EB740910401DC
:1042900050910501241B350BE091EB02F091EC02EB
:1042A000E217F307A0F42E1B3F0B2817390778F00D
:1042B000AC014E5F5F4F2417350748F04E0F5F1F6C
:1042C0005093EC024093EB028193919302C0E0E0A3
:1042D000F0E0CF01DF91CF9108950F931F93CF931B
:1042E000DF93009709F48CC0FC013297138212828D
:1042F0000091ED021091EE020115110581F420816B
:104300003181820F931F2091EB023091EC0228172C
:10431000390779F5F093EC02E093EB0271C0D80114
:1043200040E050E0AE17BF0750F412962D913C913B
:104330001397AD012115310509F1D901F3CF9D0185
:10434000DA013383228360817181860F971F821780
:10435000930769F4EC0128813981260F371F2E5FFE
:104360003F4F318320838A819B8193838283452BB6
:1043700029F4F093EE02E093ED0242C01396FC9311
:10438000EE931297ED01499159919E01240F351F2B
:10439000E217F30771F480819181840F951F0296D3
:1043A00011969C938E938281938113969C938E9306
:1043B0001297E0E0F0E0D80112968D919C9113974E
:1043C000009719F0F8018C01F6CF8D919C9198011E
:1043D0002E5F3F4F820F931F2091EB023091EC0232
:1043E0002817390769F4309729F41092EE021092D9
:1043F000ED0202C0138212821093EC020093EB02D2
:0E440000DF91CF911F910F910895F894FFCF97
:10440E000000EF022000012000E41383145814E78B
:10441E00131D14000D010D020D030D040D050D00ED
:10442E000C010C020C030C040C050C000B010B020E
:10443E000B030B040B050B000A010A020A030A0404
:10444E000A050A0009010902090309040905090000
:10445E0008010802080308040805080007010702FE
:10446E0007030704070507000601060206030604F4
:10447E0006050600050105020503050405050500F0
:10448E0004010402040304040405040003010302EE
:10449E0003030304030503000201020202030204E4
:1044AE0002050200010101020103010401050100E0
:0C44BE00000100020003000400050000E3
:00000001FF
