:100000000C944A020C9467020C9467020C946702E9
:100010000C9467020C9467020C9467020C946702BC
:100020000C9467020C9467020C94E9110C94A511CE
:100030000C94DA210C9467020C9467020C9467020A
:100040000C9467020C9467020C9467020C9467028C
:100050000C9467020C94F20D0C9467020C946702E6
:100060000C9467020C9467020C9467020C9467026C
:100070000C9467020C9467020C9467020C9467025C
:100080000C9467020C9467020C9467020C9467024C
:100090000C9467020C9467020C9467020C9467023C
:1000A0000C9467020C9467020C9467022D002B00DD
:1000B000E000E100010000001E00140004001D002B
:1000C000010001001F001A0016001B000100E300E0
:1000D000200008000700060001002C002100150088
:1000E0000900190001513900220017000A0005001B
:1000F000000052012F02260200002F000000140908
:1001000030022702000030000000210A23001C00FA
:100110000B0011000000210B240018000D0010003E
:1001200001511E0025000C000E00360001532A006C
:10013000260012000F0037000100290027001300DD
:100140003300380031001F002E0035002800340035
:10015000140800003502010001000100085D0000E4
:100160003A00010001000100010001003B00010014
:1001700001000100010001003C000100010001003C
:10018000010001003D0001002D02010001000100FD
:100190003E0001000100010000000100AA00AC00C7
:1001A0000000A80000000100A900AB000000AE00A4
:1001B000000001003F00FB0050004D000000010066
:1001C0004000FA0051004E00010001004100F9001A
:1001D00052004B0001004C004200F9004F004A0061
:1001E00001000100430001000100010001000100C5
:1001F0000100010001000100290C00000A000000BC
:1002000000000306B200080001000000A80008007A
:1002100002000200A0001400030057494E5553424B
:10022000000000000000000000008400040007003F
:100230002A004400650076006900630065004900FB
:100240006E00740065007200660061006300650066
:1002500047005500490044007300000050007B0037
:100260003900440042003700460031004600440097
:100270002D0037004500370041002D0034003000CC
:10028000300038002D0039003300360042002D00C8
:100290003600420041003600430031003900410081
:1002A00033003000380063007D00000000001B03B5
:1002B00001636F6E6669677572652E6572676F643C
:1002C0006F782D657A2E636F6D0005010902A1011B
:1002D00085020901A100050919012905150025015B
:1002E00095057501810295017503810105010930AC
:1002F00009311581257F9502750881060938158118
:10030000257F950175088106050C0A38021581259F
:100310007F950175088106C0C005010980A101858E
:10032000031A81002A830016010026030095017537
:10033000108100C0050C0901A10185041A01002AE1
:100340009C02160100269C02950175108100C005D3
:10035000010906A1018505050719E029E715002512
:10036000019508750181020507190029EF1500257F
:100370000195F0750181020508190129059505759A
:10038000019102950175039101C005010906A101C2
:10039000050719E029E71500250195087501810277
:1003A0009501750881010507190029FF150026FF31
:1003B0000095067508810005081901290595057540
:1003C000019102950175039101C0090252000301D8
:1003D00000A0FA0904000001030101000921110134
:1003E00000012240000705810308000A09040100FA
:1003F000010300000009211101000122C0000705CE
:10040000820320000A0904020002FF000000070521
:100410008303400005070504034000051201100294
:1004200000000008EDFE07130100010203010403B0
:100430003000000016034500720067006F00640082
:100440006F007800200045005A00000008035A00A1
:1004500053004100000004030904050F3900021C89
:10046000100500DF60DDD88945C74C9CD2659D9E94
:10047000648A9F00000306B200450018100500388A
:10048000B60834A909A0478BFDA0768815B665008B
:100490000142010011241FBECFEFDAE0DEBFCDBF65
:1004A00011E0A0E0B1E0E0E1F9E402C005900D92B6
:1004B000A83CB107D9F723E0A8ECB1E001C01D9238
:1004C000A430B207E1F70E94E91E0C945B240C945F
:1004D0000000E8EDF0E080818E7F80831092E200E2
:1004E0001092DA001092E100A0EEB0E08C918160F1
:1004F0008C9380818F77808319BCA7EDB0E08C91BD
:100500008E7F8C9380818F7E80831092D10208959C
:100510002091E4003091E50095E6A9012091EC00DE
:10052000822F817020FF06C08091E80080FF06C006
:1005300080E008952091E80022FD1AC08091F60223
:10054000882389F0853089F08091EB0085FD0FC00C
:100550002091E4003091E50042175307F9F29150E1
:10056000E1F684E0089582E0089583E0089581E053
:100570000895EF92FF920F931F93CF937C018B010D
:100580000E948802C82F882371F08C2FCF911F9171
:100590000F91FF90EF900895F70181917F01809373
:1005A000F100015011090115110579F38091E8005E
:1005B00085FDF2CF8091E8008E778093E8000E945D
:1005C0008802882381F3C82FE0CF8091F80287FF4B
:1005D00013C08091E80082FF06C08091E8008B770D
:1005E0008093E80004C08091F6028111F2CF089553
:1005F0008091F6028823D9F38091E80080FFF8CF3C
:100600008091E8008E77ECCF982F9093E900242F0B
:10061000762F50E0891731F07091EC002091ED00B9
:100620005091F00021FD07C09F5F973071F78093D4
:10063000E90081E008953091EB003E7F3093EB00BC
:100640003091ED003D7F3093ED003091EB00316053
:100650003093EB007093EC002093ED005093F0008A
:100660002091EE0027FDE0CF80E00895CF92DF9249
:10067000EF92FF920F931F93CF93DF93C8EDD0E0DB
:1006800088818F7E8883E7EDF0E0808181608083C0
:1006900084E082BF81E08093D10288818E7F88834D
:1006A00002EE10E0F80110821092DA0081EEC82EFE
:1006B000D12CF601108288818F77888388818068A9
:1006C000888388818F7D888319BC1092F6021092EE
:1006D000F7021092F5021092F40290EEE92EF12C3E
:1006E000F70180818B7F808388818160888342E0ED
:1006F00060E080E00E940403F60180818E7F8083A9
:10070000F801808181608083808188608083F70127
:1007100080818E7F8083888180618883DF91CF9103
:100720001F910F91FF90EF90DF90CF900895FC0103
:100730008091FE029091FF0286179707A0F0611545
:10074000710529F48091E8008E778093E80090E0AD
:100750006115710551F4911108C08091E80082FF84
:1007600035C080E00895BC01F2CF8091F602882365
:10077000C9F18530C9F18091E80083FD31C08091D5
:10078000E80082FDEACF8091E80080FFE1CF809110
:10079000F3002091F200382F6115710519F028300F
:1007A000310558F091E02830310509F090E0809152
:1007B000E8008E778093E800CBCF84918093F1009E
:1007C0003196615071092F5F3F4FE6CF8091F6025D
:1007D000882341F0853041F08091E80083FFBDCF50
:1007E00081E0089582E0089583E00895FC018091FE
:1007F000FE029091FF0286179707A0F06115710520
:1008000029F49091E8009E779093E80090E06115BC
:10081000710551F4911108C08091E80082FF34C045
:1008200080E00895BC01F2CF8091F6028823C1F1E7
:100830008530C1F18091E80083FD30C08091E800EF
:1008400082FDEACF8091E80080FFE1CF8091F30044
:100850002091F200382F6115710519F0283031050B
:1008600058F091E02830310509F090E02091E8003F
:100870002E772093E800CBCF81918093F1006150D7
:1008800071092F5F3F4FE7CF8091F602882341F037
:10089000853041F08091E80083FFBECF81E008956C
:1008A00082E0089583E008958091F602843011F487
:1008B00082E0089581E008958091D3020895209107
:1008C000F602243099F423E02093E90070E050E030
:1008D00040E00E94B902882321F01092CF021092CA
:1008E000D0028091E8008E778093E800089590917F
:1008F000B402803F41F48091B50287FD1092B502A9
:10090000992371F00895813F29F48091B50218165A
:10091000ACF3F6CF823F81F497FFF2CF1092B4028E
:100920008091B5029091B602892B9091B702892BE4
:1009300049F71092B8020895833F19F4191674F319
:10094000DFCF893F39F48091B6021816CCF61092A9
:10095000B602D6CF8A3F29F48091B60287FFD0CF66
:10096000F6CF8B3F39F48091B70287FFC9CF109241
:10097000B702C6CF8C3F29F48091B7021816BCF39A
:10098000BFCF843F31F48091B3028E7F8093B30256
:10099000B7CF853F21F48091B3028D7FF7CF863F9B
:1009A00021F48091B3028B7FF1CF873F21F48091B6
:1009B000B302877FEBCF883F21F48091B3028F7E13
:1009C000E5CF8D3F31F4809186028E7F8093860241
:1009D00097CF8E3F21F4809186028D7FF7CF8F3F96
:1009E00009F08ECF809186028B7FF0CF80918602B6
:1009F00080FD16C081FD16C082FD16C08091B80230
:100A00008823A1F0883280F428E0829FC00111245D
:100A100068E270E00E94CE22862F672B39F008959D
:100A200082E0089584E0089588E0089581E00895C3
:100A30008091860280FD16C081FD16C082FD18C01F
:100A40008091B802882391F08C3390F423E2829F46
:100A5000C00111246CE370E00E94CE22862F672B28
:100A600049F0089588E0089581E1089585E00895AA
:100A700083E2089581E00895803F31F40E941805D3
:100A800081958093B5020895813F19F40E9418055D
:100A9000F8CF823F31F40E94180581958093B4020B
:100AA0000895833F19F40E941805F8CF893F29F46F
:100AB0000E94F6048093B60208958A3F21F40E94B2
:100AC000F6048195F7CF8B3F31F40E94F6048195AF
:100AD0008093B70208958C3F19F40E94F604F8CF72
:100AE000843F31F48091B30281608093B302089512
:100AF000853F21F48091B3028260F7CF863F21F4D5
:100B00008091B3028460F1CF873F21F48091B302DA
:100B10008860EBCF883F21F48091B3028061E5CFFC
:100B20008D3F31F480918602816080938602089522
:100B30008E3F21F4809186028260F7CF8F3FB9F714
:100B4000809186028460F1CFCF92DF92EF92FF9284
:100B50000F931F932FB7F894409182025091830214
:100B600060918402709185022FBF6A017B01EE249F
:100B7000FF248C0130E020E0C016D106E206F30627
:100B800050F0481B590BCA011F910F91FF90EF9035
:100B9000DF90CF90089541505109F3CFCF92DF926B
:100BA000EF92FF926C01EE24FF2420E0C114D104E7
:100BB000E104F10419F0C701B60120E1C72ED82ED7
:100BC000E92EFF24C114D104E104F10419F0285FD7
:100BD000C701B6016B017C0154E0F694E794D79409
:100BE000C7945A95D1F7C114D104E104F10419F066
:100BF0002C5FC701B6016B017C0142E0F694E794DB
:100C0000D794C7944A95D1F7C114D104E104F104F3
:100C100019F02E5FC701B601969587957795679570
:100C2000672B682B692B09F02F5F822FFF90EF90C5
:100C3000DF90CF90089580917D02811110927D0206
:100C4000089580917C0290917B02892B90917A0289
:100C5000892B8093C80190917D029923A1F0892B63
:100C60008093C80180911201882341F180919F02F5
:100C700087FF24C08EE1EAECF1E090E0815000F5BE
:100C800091110E941B06E091A102F091A2023097FF
:100C9000E1F080911201882359F080919F0287FF33
:100CA00007C08091C8018093C90185E08093C80185
:100CB0000280F381E02D88EC91E0099486E0DBCF9F
:100CC00021912223D9F29F5FD9CF089590911201EB
:100CD0009923D1F090919F0297FF16C0E82FE695D7
:100CE000E695E695EE31E0F4F0E0E853FE4F282F6C
:100CF000277081E090E001C0880F2A95EAF780957F
:100D00009281892382830895EAECF1E0919189131D
:100D100003C0DF0111971C9291E0E03DF907B1F7A4
:100D20000895909112019923C1F090919F0297FF2D
:100D300014C0E82FE695E695E695EE31F8F4F0E07C
:100D4000E853FE4F877021E030E001C0220F8A9502
:100D5000EAF78281822B82830895AAECB1E0EFEF5B
:100D600090E02D91821751F0EF3F19F4211101C04D
:100D7000E92F9F5F9630A9F7EF3F09F408950E2EF3
:100D8000000CFF0BE853FE4FE6CFE92FEE0FE90F03
:100D9000EE0F8E0F982F977086958695869525E095
:100DA000829FF0011124EE5BFD4F50E040E080E0B7
:100DB000219130E0092E02C0369527950A94E2F77A
:100DC00021703327042E01C0220F0A94EAF7822BE8
:100DD0004F5F5F4F4530510559F70895E92FEE0FEA
:100DE000E90FEE0F8E0F982F977041E001C0440F6E
:100DF0009A95EAF786958695869595E0899FF00104
:100E00001124EE5BFD4F30E020E070E05191DF01F6
:100E10001197CB01022E02C0969587950A94E2F7AE
:100E2000817081958527842385278C932F5F3F4F81
:100E30002530310559F708958091410290911002B3
:100E4000981301C008958F5F8770FACF882341F00F
:100E5000809590917B02892380937B020C942106DC
:100E60000895882339F090917B02982B90937B0210
:100E70000C9421060895882341F0809590917C027E
:100E8000892380937C020C9421060895882339F0ED
:100E900090917C02982B90937C020C9421060895EB
:100EA0002091F3013091F4012817390771F09093E4
:100EB000F4018093F301E091A102F091A202309736
:100EC00021F00084F185E02D099408952091F1012D
:100ED0003091F2012817390771F09093F201809355
:100EE000F101E091A102F091A202309721F0068079
:100EF000F781E02D09940895E091A102F091A202FA
:100F0000309721F00190F081E02D099480E0089560
:100F100090919F0292FF06C0282F28712830F9F483
:100F2000877F846093FF06C0282F28712831F1F451
:100F3000877E84612091A00220FF06C0382F38717F
:100F40003830D9F4877F816021FF06C0282F2871AF
:100F50002831D1F4877E816194FD877E0895282F02
:100F600024712430F9F68B7F8860DCCF282F247120
:100F7000243101F78B7E8861DDCF382F317131301C
:100F800019F78E7F8860E0CF282F2171213121F75A
:100F90008E7E8861E1CFCF93DF93972F70E026E0BC
:100FA000929F600D711D1124FB0134E5839FE00DBC
:100FB000F11D1124EE0FFF1FE455FF4FC591D49191
:100FC000CE01C238D105B9F1E8F5C133D10509F434
:100FD00099C050F5C932D10509F48DC0CA32D10586
:100FE00009F497C0C11542E5D40708F047C1C115FF
:100FF00021E5D20708F0C2C1C83ED10508F020C1E2
:10100000C03ED10568F5C83AD10508F089C0C53A97
:10101000D10508F088C1C130D10511F1209709F43C
:1010200043C02497E8F440C0C533D10509F45CC03F
:10103000C933D105B9F620919F02237089F080EE63
:1010400090E00EC0C33ED10591F168F4C03ED105D9
:10105000F9F0C23ED10531F620919F0222FD20C059
:10106000DF91CF910895C63ED10561F1C73ED1050C
:1010700081F1C43ED10509F0B5CF2091A00221FF36
:10108000EFCF80919F0284FD0FC087EE90E0E8CF04
:1010900020919F0220FDA3C13091A00230FFE0CF3C
:1010A00083EE90E024FFDCCF90E080E0D9CF209168
:1010B0009F0222FD97C13091A00230FDC0CF24FFD6
:1010C000CFCFF2CF20919F0223FFCACF24FDECCFD8
:1010D000DCCF20919F0223FD88C13091A00231FF17
:1010E000EECF84EE90E0BCCF20919F0225FFB8CFD9
:1010F00089E290E0B5CF20919F0225FFB1CF85E333
:1011000090E0AECF20919F0226FFAACF8AE290E026
:10111000A7CF20919F0226FFA3CF81E390E0A0CF2D
:10112000CF3BD10508F682EE94E4C83AD10509F424
:1011300097CF89EE94E4C93AD10509F491CF8AEEAC
:1011400094E4CA3AD10509F48BCF85EB94E4CB3A09
:10115000D10509F485CF86EB94E4CC3AD10509F4A6
:101160007FCF83EB94E4CB3BD10509F479CF84EBBB
:1011700094E4CC3BD10509F473CF87EB94E4CD3AEA
:10118000D10509F46DCF8CEC94E4C03BD10509F492
:1011900067CF8DEC94E4CE3AD10509F461CF83E8B2
:1011A00095E4CF3AD10509F45BCF8AE895E4C13BD9
:1011B000D10509F455CF82E995E4C23BD10509F484
:1011C0004FCF84E995E4C33BD10509F449CF81E2CF
:1011D00096E4C43BD10509F443CF83E296E4C53BD2
:1011E000D10509F43DCF84E296E4C63BD10509F46C
:1011F00037CF85E296E4C73BD10509F431CF86E2CB
:1012000096E4C83BD10509F42BCF87E296E4C93BAD
:10121000D10509F425CF8FE694E4CD3BD10509F43F
:101220001FCF80E794E4CE3BD10509F419CF80E0CD
:1012300094E4CA3BD10509F013CF8AE296E410CFBB
:10124000C11530E2D30760F4C11541E0D40708F0BE
:1012500007CFCE019065C03FD10508F001CF24CF64
:10126000C11580E4D80708F41FCFC11590E5D90750
:1012700008F068C0CE019F70906AF2CEC11526E5D5
:10128000D20718F5C11535E5D30708F08DC0C11593
:1012900044E5D40708F083C09C2F96959695AE013F
:1012A00043705527C115D34508F46DC021E030E0E7
:1012B00002C0220F331F4A95E2F740E2949FC0011B
:1012C0001124822B932B9A68CBCEC1159AE5D907AE
:1012D00078F4C11529E5D20708F070C0C11538E5CA
:1012E000D30708F4E1CE9C2F8827806F906AB8CE90
:1012F000C1154BE5D40708F4D7CEC1158CE5D80746
:1013000008F469C0CE0190568115904208F0CCCE09
:101310008D2F8F710E94880790E0982F882788274B
:101320009F718C2B49C081E890E4C53AD10509F43E
:1013300097CE82E890E4C63AD10509F491CE83E8CD
:1013400090E48ECE9E01E4E036952795EA95E1F78C
:1013500023708C2F86958695837030E2839FC00121
:101360001124922BC37021E030E002C0220F331F02
:10137000CA95E2F7822B932B9C6872CE9C2F88270C
:10138000816F906A6DCE21E030E002C0220F331FE2
:101390004A95E2F740E2949FC0011124EBCF9C2FC5
:1013A0008827846F906A5CCE8C2F0E94880790E01B
:1013B000982F882788279F71906252CE8C2F8F702C
:1013C0000E94880734E0D695C7953A95E1F7CF702B
:1013D0009C2F906945CECE019927906641CE89E336
:1013E00090E03ECE82EE90E03BCE86EE90E038CEAE
:1013F000BF92CF92DF92EF92FF920F931F93CF9302
:10140000DF938C01C090CB02D090CC02E090CD0253
:10141000F090CE0280917E0290917F02A091800296
:10142000B0918102C82AD92AEA2AFB2ACFE1D0E06A
:10143000BC2ED701C6010C2E04C0B695A795979572
:1014400087950A94D2F780FD0EC0219788F7B12CBA
:101450008B2DDF91CF911F910F91FF90EF90DF9037
:10146000CF90BF900895B8018C2F0E94CB070197B1
:1014700061F3EECFCF93DF93EC010E94F809BE0138
:10148000DF91CF910C94CB070E943A0A292F2F703D
:1014900092959F7092509E3078F4E92FF0E0E35AD5
:1014A000FB4D0C94E222803F19F020F4883E20F49A
:1014B00081E00895843FE1F380E00895883EC0F321
:1014C000813FD1F7F5CF822F869586958695089531
:1014D00027982F98089526982E98089525982D9846
:1014E000089556985E980895279A2F9A0895269AF7
:1014F0002E9A0895259A2D9A0895CF92DF92EF9211
:10150000FF92CF936B017C010E94CE05C82F0E94F1
:10151000710A0E946E0A0E946B0A0E94680AC150FA
:10152000C73040F4EC2FF0E0E559FB4D0C94E2227B
:101530000E947A0AC701B601CF91FF90EF90DF9029
:10154000CF9008950E947A0A0E94770AF3CF0E94F2
:101550007A0A0E94740AEECF0E947A0A0E94770AE1
:10156000F8CFCF92DF92EF92FF92CF93DF9300D02C
:1015700000D0CDB7DEB70E947D0A6B017C0180915F
:10158000CF02882379F0198283E08A83C701B601EC
:101590000E94CE058B838EEF8C8364E0CE01019692
:1015A0000E945F04C701B6010F900F900F900F903B
:1015B000DF91CF91FF90EF90DF90CF90089584B1AD
:1015C000807F84B985B1807F85B98AB1837F8AB9EC
:1015D0008BB1837F8BB93E984698089580B38C7009
:1015E00080BB81B3836F81BB0895CF9384E090E08B
:1015F0000E94E822C82F81E290E00E94E822982F02
:101600008C2FCF9108950F931F93CF93DF9300D02A
:101610000F92CDB7DEB78C010E945404823011F0D6
:10162000843021F584E089831B830A8382E08093E0
:10163000E9008FEF9091E800815095FD06C095ED8F
:101640009A95F1F700008111F5CF8091E80085FFB0
:101650000DC050E040E063E070E0CE0101960E94D2
:10166000B9028091E8008E778093E8000F900F9088
:101670000F90DF91CF911F910F910895CF93DF933A
:1016800000D00F92CDB7DEB72091F602243031F5AD
:1016900023E02983805891099B838A8382E0809389
:1016A000E9008FEF9091E800815095FD06C095ED1F
:1016B0009A95F1F700008111F5CF8091E80085FF40
:1016C0000DC050E040E063E070E0CE0101960E9462
:1016D000B9028091E8008E778093E8000F900F9018
:1016E0000F90DF91CF910895CF93DF93EC010E948B
:1016F0005404823011F08430F9F482E08093E900E0
:101700008FEF9091E800815095FD06C095ED9A9578
:10171000F1F700008111F5CF8091E80085FF0CC042
:1017200050E040E066E070E0CE010E94B902809196
:10173000E8008E778093E800DF91CF910895CF93F2
:10174000DF93EC010E945404823011F08430B9F52B
:10175000809112018823B1F180919F0287FF32C0EE
:1017600060E282E08093E9008FEF9091E800815081
:1017700095FD06C095ED9A95F1F700008111F5CF22
:101780008091E80085FF1BC08091120170E050E05D
:1017900040E0811104C050E040E068E070E0CE011C
:1017A0000E94B9028091E8008E778093E80080E281
:1017B000FE01A4EDB2E001900D928A95E1F7DF9170
:1017C000CF91089568E081E0CDCFEF92FF920F9323
:1017D0001F93CF93DF930E94710A0E946E0A0E94AA
:1017E0006B0A0E94680A88E8E82EF12C8FEF90E0DF
:1017F000F701918380830AE810E0F80191838083E8
:10180000CCE8D0E0998388830E947A0AFFEF20E732
:1018100082E0F15020408040E1F700C000000E94CB
:10182000770A9FEFE0E7F2E09150E040F040E1F707
:1018300000C000000E94740A2FEF80E792E0215060
:1018400080409040E1F700C000000E946E0AEFEF78
:10185000F0E722E0E150F0402040E1F700C0000056
:101860000E946B0A8FEF90E7E2E081509040E040E9
:10187000E1F700C000000E94680A80918D02877025
:10188000FFEF8F9FC00111249595879595958795BA
:101890009927F70191838083F8019183808399834D
:1018A00088830E94710A0E946E0A0E946B0ADF916F
:1018B000CF911F910F91FF90EF900C94680A609167
:1018C00089028CE090E00C94FC226FEE7EEF90E0B9
:1018D00080E00E941A2360E082E090E00E94FC22F7
:1018E00060E083E090E00E94FC2210927E02109261
:1018F0007F02109280021092810260E084E090E00A
:101900000E94FC2260E081E290E00E94FC2260E004
:1019100085E090E00E94FC2260E086E090E00E947A
:10192000FC226FEF87E090E00E94FC2240E050E054
:10193000BA0188E090E00E940E2360E08DE090E024
:101940000E94FC2240E050E0BA0188E190E00E9451
:101950000E2360E087E190E00E94FC2240E050E02E
:10196000BA018CE190E00E940E2360E080E290E0FA
:101970000E94FC2210928D0210928E0210928F0211
:101980001092900284E0806180938D0240918D02DC
:1019900050918E0260918F02709190028FE090E0E2
:1019A0000E940E2340E050E0BA0183E190E00C94E5
:1019B0000E23CF93C82F873070F580910601909148
:1019C0000701892B89F564E670E080E40E94072214
:1019D0009093070180930601892BD1F464E670E0AF
:1019E00082E10E9463229093070180930601892B74
:1019F00079F481E090E001C0880FCA95EAF764E6C7
:101A000070E080950E946322909307018093060105
:101A1000CF910C94B6228A30B9F040F4883071F03E
:101A2000893079F0209A2898CF9108958C3091F0E0
:101A300070F08D30B9F73E9A4698F6CF219A2998E2
:101A4000F3CF229A2A98F0CF239A2B98EDCF529A6F
:101A50005A98EACF539A5B98E7CF80E290E0909350
:101A60000701809306018091EE0181110EC00E9452
:101A7000012281E08093EE012FEF83ED90E321506E
:101A800080409040E1F700C0000064E670E080E430
:101A90000E9407229093070180930601892B09F089
:101AA0004EC064E670E080E00E94632290930701DC
:101AB00080930601892B09F042C064E670E080E063
:101AC0000E9463229093070180930601892BB9F548
:101AD00064E670E08FE30E94632290930701809395
:101AE0000601892B61F50E94B62264E670E080E46D
:101AF0000E9407229093070180930601892BF9F435
:101B000064E670E08CE00E9463229093070180936A
:101B10000601892BA1F464E670E080E00E94632254
:101B20009093070180930601892B49F464E670E0E5
:101B30008FE30E94632290930701809306010E9425
:101B4000B622809106010895CF93873008F040C0F7
:101B50008091060190910701C0E0892B71F464E641
:101B600070E080E40E9407229093070180930601B1
:101B7000892B31F0C0E00E94B6228C2FCF910895BE
:101B800064E670E083E10E946322909307018093F2
:101B90000601892B79F764E670E081E40E94072250
:101BA0009093070180930601892B21F784E690E04A
:101BB0000E94922297FF05C090930701809306012F
:101BC000D9CFC82FC0951092070110920601D3CF2C
:101BD000CFB18FB1869586958C73C3708C2BC82F2F
:101BE000C095CBCF78941F921FB61F9211248F936C
:101BF0009F93AF93BF938091820290918302A091B3
:101C00008402B09185020196A11DB11D80938202CC
:101C100090938302A0938402B0938502BF91AF9109
:101C20009F918F911F901FBE1F9018952FB7F8940A
:101C30008091820290918302A0918402B0918502EA
:101C40002FBF0895E091A102F091A202309749F0D0
:101C500082E08093B2020480F581E02D82EB92E075
:101C600009950E94160E9093BA028093B9020895C6
:101C700010927B0210927A020E94210686E0E2EB2B
:101C8000F2E0DF011D928A95E9F71092B8021092F6
:101C900086020E94220E90E080E00E94660790E09B
:101CA00080E00C9450070E94B10A6093CB027093BD
:101CB000CC028093CD029093CE020C94380E0F93F9
:101CC0001F9341E050E060E070E004C0440F551FF6
:101CD000661F771F8A95D2F7CB01BA016095709580
:101CE000809590950091CB021091CC022091CD026D
:101CF0003091CE0260237123822393231F910F9191
:101D00000C94530E909179028095892380937902E7
:101D1000282F277071F4282F082E000C330B9217F0
:101D2000130639F08595859585950E945F0E109272
:101D3000790208950F931F9341E050E060E070E056
:101D400004C0440F551F661F771F8A95D2F78091F4
:101D5000CB029091CC02A091CD02B091CE028A012B
:101D60009B01082B192B2A2B3B2BC901B8011F9172
:101D70000F910C94530E60937E0270937F028093B8
:101D80008002909381020C94380E10927C02809114
:101D90001201EAECF1E0882359F080919F0287FF5D
:101DA00007C08EE1DF011D928A95E9F70C94380E89
:101DB00086E0F8CF1F93CF93DF93CDB7DEB7AA9716
:101DC0000FB6F894DEBF0FBECDBF88EF92E0209132
:101DD000F100FC012193CF01F3E080309F07B9F7B8
:101DE0008091F902893009F444C018F5823009F471
:101DF000B7C0833009F46CC0813031F58091F802AE
:101E0000813A11F58091E800877F8093E800809106
:101E1000FC029091FD02892B41F560E284ED92E095
:101E200070E00E94F6038091E8008B778093E800D1
:101E30000BC08B3009F469C008F481C0823409F406
:101E4000A0C0853409F4BAC08091E80083FF65C260
:101E50008091F8029091F9029A3008F05EC2E92F61
:101E6000F0E0EE58FB4D0C94E22260E090E080E060
:101E7000D7CF8091F802813239F78091FC0290919E
:101E8000FD02029708F78091E800877F8093E800C1
:101E90008091E80082FF17C09091F3008091F200DA
:101EA000029729F48091F1008B7F813021F4809199
:101EB000F1008093D3028091E8008B778093E80053
:101EC0000E94E502C1CF8091F6028111E1CFBCCF23
:101ED0008091F802813A09F0B7CF8091FC0290918D
:101EE000FD02892B09F0B0CF8091E800877F8093B5
:101EF000E8008091E80080FFFCCF80911201809380
:101F0000F1008091E8008E77D9CF8091F80281327C
:101F100009F09ACF8091FC029091FD02892B09F083
:101F200093CF8091E800877F8093E8000E94E502CC
:101F30008091FA02809312010E94C50E85CF809194
:101F4000F802813209F080CF8091E800877F80938A
:101F5000E8000E94E5028091FB028093D20274CFD8
:101F60008091F802813A09F06FCF8091E800877F75
:101F70008093E8008091E80080FFFCCF8091D2023E
:101F8000BECF8091F802803C09F05ECF8091FC02C8
:101F90009091FD02029739F58091FA029091FB022F
:101FA000019709F58091E800877F8093E8006BE155
:101FB00070E08EEA92E00E94970382CF8091F8024F
:101FC000803C09F041CF8091FC029091FD0207977F
:101FD00051F48091E800877F8093E80062EB70E025
:101FE0008CEF91E0E8CF8091EB0080628093EB0072
:101FF0002BCF803899F0823809F08FC18091FC0294
:102000008F70873008F089C18093E9008091EB00E0
:1020100085FB882780F91092E90006C08091F402C0
:102020009091F502911182609091E800977F9093D2
:10203000E8008093F1001092F1008091E8008E7723
:1020400068C1882309F456C1823009F066C18091C5
:10205000FA02811159C18091FC028F702FEF280F75
:10206000263008F05AC18093E9002091EB0020FF50
:102070004BC1933031F48091EB0080628093EB0090
:1020800043C19091EB0090619093EB0021E030E030
:1020900001C0220F8A95EAF72093EA001092EA0025
:1020A0008091EB008860EACF811137C11091FA026C
:1020B0001F778091E3008078812B8093E3008091EB
:1020C000E800877F8093E8000E94E5028091E800A5
:1020D00080FFFCCF8091E30080688093E30082E082
:1020E000111183E08093F60218C18058823008F005
:1020F00014C18091FA029091FB028C3D23E092077B
:10210000A1F583E08A838AE289834FB7F894DE01E0
:10211000139620E03EE051E2E32FF0E050935700A9
:10212000E49120FF03C0E295EF703F5FEF708E2FC8
:1021300090E0EA30C0F0C7968D939D932F5F2431D5
:1021400059F74FBF8091E800877F8093E8006AE2EB
:1021500070E0CE0101960E94F6038091E8008B7733
:102160008093E800DAC0C096E7CF4091FC0250911E
:10217000FD02292F33272330310569F1A0F42130E6
:10218000310509F46CC062E570E08AEC93E022301E
:10219000310509F0C2C02091E800277F2093E800B4
:1021A0000E949703DACF2132310509F440C0223270
:1021B000310509F448C02F30310509F0AEC0ECE517
:1021C000F4E0E4916E2F70E08AE594E0611571050A
:1021D00009F4A3C0E0CF992781309105C1F00097A1
:1021E00071F082309105D9F0039709F096C0EEE2C4
:1021F000F4E0E4916E2F70E08EE294E0E7CFE6E544
:10220000F4E0E4916E2F70E086E594E0DFCFECE43B
:10221000F4E0E4916E2F70E08CE494E0D7CFE4E337
:10222000F4E0E4916E2F70E084E394E0CFCF4115A9
:102230005105D1F04130510509F06FC069E070E0FF
:1022400085EF93E0A8CF4115510599F04130510534
:1022500009F063C060EC70E08AEC92E09CCF62E130
:1022600070E08CE194E097CF69E070E08CED93E052
:1022700092CF60E470E08AE893E08DCF803809F077
:102280004CC08091E800877F8093E8008091F7023E
:102290008093F100D2CE811140C01091FA02123029
:1022A000E0F58091E800877F8093E8001093F702C3
:1022B0000E94E502112311F084E005C08091E30043
:1022C00087FDFACF81E08093F60242E061EC81E085
:1022D0000E94040342E261EC82E00E94040342E3B4
:1022E00061EC83E00E94040342E360EC84E00E941E
:1022F000040313C08091FA02813079F481E09330B5
:1023000009F080E08093F5021092E9008091E800E6
:10231000877F8093E8000E94E5028091E80083FFB8
:102320000AC08091E800877F8093E8008091EB00ED
:1023300080628093EB00AA960FB6F894DEBF0FBEC2
:10234000CDBFDF91CF911F9108951F920F920FB6CD
:102350000F9211242F933F934F935F936F937F932B
:102360008F939F93AF93BF93CF93DF93EF93FF939D
:10237000D091E900DF708091EC00C82FC17080FD22
:10238000C0E81092E9008091F000877F8093F00010
:1023900078940E94DA0E1092E9008091F000886033
:1023A0008093F000CD2BCF70C093E900FF91EF91A7
:1023B000DF91CF91BF91AF919F918F917F916F915D
:1023C0005F914F913F912F910F900FBE0F901F90F3
:1023D00018951F920F920FB60F9211242F933F93CF
:1023E0004F935F936F937F938F939F93AF93BF931D
:1023F000EF93FF938091E10082FF09C08091E2009A
:1024000082FF05C08091E1008B7F8093E100809185
:10241000DA0080FF24C08091D80080FF20C0809126
:10242000DA008E7F8093DA008091D90080FF9FC010
:1024300080E189BD82E189BD09B400FEFDCF81E064
:102440008093F6028091D102811109C00E94690235
:102450000E9436038091E20084608093E2008091C4
:10246000E10080FF17C08091E20080FF13C08091DF
:10247000E2008E7F8093E2008091E2008061809391
:10248000E2008091D80080628093D80019BC85E07A
:102490008093F6028091E10084FF2DC08091E200DC
:1024A00084FF29C080E189BD82E189BD89B5982F6B
:1024B000917080FFFBCF8091D8008F7D8093D800F2
:1024C0008091E1008F7E8093E1008091E2008F7E19
:1024D0008093E2008091E20081608093E20080912D
:1024E000F702882309F449C084E08093F6020E9431
:1024F000C50E0E947C078091E10083FF27C0809178
:10250000E20083FF23C08091E100877F8093E10098
:1025100082E08093F6021092F7028091E1008E7FB4
:102520008093E1008091E2008E7F8093E2008091B1
:10253000E20080618093E20042E060E080E00E947F
:1025400004038091F00088608093F000FF91EF9188
:10255000BF91AF919F918F917F916F915F914F91BB
:102560003F912F910F900FBE0F901F90189519BC9F
:102570001092F6021092D10272CF8091E30087FD93
:1025800093E09093F602B3CF882309F459C08238C0
:1025900071F40E947C0781FF53C089E30E94910679
:1025A0000E94210689E30E9466060C942106833866
:1025B00059F40E947C0780FF43C083E50E94910686
:1025C0000E94210683E5EFCF843859F40E947C07EE
:1025D00082FF36C087E40E9491060E94210687E4AC
:1025E000E2CF9CEF980F913AF0F290E2980F98307A
:1025F00088F4877021E030E0A90102C0440F551F24
:102600008A95E2F7CA01809590917C028923809394
:102610007C02CBCF9BE5980F933020F490E080E0D4
:102620000C94660798E5980F973120F490E080E0CD
:102630000C945007803F20F00E9477040C94220EE7
:102640000895882309F408C18238B9F40E947C07F0
:1026500081FD02C189E30E9491060E9421062FEFAD
:1026600081EE94E0215080409040E1F700C00000EE
:1026700089E30E9466060C9421068338A1F40E9427
:102680007C0780FDE9C083E50E9491060E94210637
:102690002FEF81EE94E0215080409040E1F700C0A0
:1026A000000083E5E6CF8438A1F40E947C0782FD18
:1026B000D3C087E40E9491060E9421062FEF81EE8D
:1026C00094E0215080409040E1F700C0000087E492
:1026D000D0CF9CEF980F913A18F40E949106CBCF7F
:1026E00090E2980F983068F4877021E030E001C0E4
:1026F000220F8A95EAF780917C02822B80937C02DC
:10270000BACF9BE5980F933070F4853A31F0863A52
:1027100039F083E890E00C94660781E890E0FBCF05
:1027200082E890E0F8CF98E5980F973108F08EC0D6
:10273000883A09F446C0893A09F446C08A3A09F44D
:1027400046C08B3A09F446C08C3A09F446C08B3B2C
:1027500009F446C08C3B09F446C08D3A09F446C0E2
:10276000803B09F446C08E3A09F446C08F3A09F41A
:1027700046C0813B09F446C0823B09F446C0833B16
:1027800009F446C0843B09F446C0853B09F446C0C1
:10279000863B09F446C0873B09F446C0883B09F4F0
:1027A00046C0893B09F446C08D3B09F446C08E3BC8
:1027B00009F446C08A3B09F446C090E080E00C94DE
:1027C000500782EE90E0FBCF89EE90E0F8CF8AEEE2
:1027D00090E0F5CF85EB90E0F2CF86EB90E0EFCF85
:1027E00083EB90E0ECCF84EB90E0E9CF87EB90E0D7
:1027F000E6CF8CEC90E0E3CF8DEC90E0E0CF83E887
:1028000091E0DDCF8AE891E0DACF82E991E0D7CF9D
:1028100084E991E0D4CF81E292E0D1CF83E292E0EB
:10282000CECF84E292E0CBCF85E292E0C8CF86E2C1
:1028300092E0C5CF87E292E0C2CF8FE690E0BFCFB3
:1028400080E790E0BCCF8AE292E0B9CF803F20F0F1
:102850000E943C050C94220E0895CF93C82F0E942D
:102860002113C93349F42FEF87EE93E021508040C4
:102870009040E1F700C000008C2FCF910C94C4125F
:102880000F931F93CF93DF93C62FD42F022FFC01FA
:1028900082818823A1F0609304020E94160E909317
:1028A000F0018093EF01C77081E001C0880FCA95E5
:1028B000EAF7DF91CF911F910F910C944607109189
:1028C0000402161335C08091EF019091F0010E942F
:1028D000A405883C910560F5C0E2CD0F1D17B9F045
:1028E00080E2810F883040F4177081E001C0880FCA
:1028F0001A95EAF70E943B07C83048F481E09D2F03
:10290000977001C0880F9A95EAF70E944607802FBA
:102910000E942D14C83098F4D77081E001C0880F50
:10292000DA95EAF7DF91CF911F910F910C943B0755
:10293000C77081E001C0880FCA95EAF7F3CFDF9135
:10294000CF911F910F9108954F925F926F927F9256
:102950008F929F92AF92BF92CF92DF92EF92FF92AF
:102960000F931F93CF93DF9300D000D00F92CDB77A
:10297000DEB76C01FC0183819481892B39F01081D1
:10298000F180812F8F218F3F09F013C60F900F9098
:102990000F900F900F90DF91CF911F910F91FF90AB
:1029A000EF90DF90CF90BF90AF909F908F907F90EF
:1029B0006F905F904F9008950E94F809082F682F3C
:1029C00089819A810E94EE06E12FF0E026E0F29ED6
:1029D000E00DF11D112434E5039FE00DF11D1124DC
:1029E000EE0FFF1FE455FF4F059114918091CF0228
:1029F000882399F0F60182811982811104C182E055
:102A00008A83F60180818B8381818C838EEF8D8315
:102A100065E0CE0101960E945F040930FDE51F07C5
:102A2000F1F5F6018281882309F44EC080918D0270
:102A300091E0980F9770887F953008F4892B8093E8
:102A40008D0280918D028770FFEF8F9FC00111244E
:102A5000959587959595879599279093890080936B
:102A6000880090938B0080938A0090938D008093D0
:102A70008C0040918D0250918E0260918F02709176
:102A800090028FE090E00E940E236091CB02709143
:102A9000CC028091CD029091CE020E94B10AF60143
:102AA0008281882389F0033EFCE51F0709F4C1C039
:102AB00008F0ABC0013E3CE5130709F4B3C0023E89
:102AC0008CE5180709F4B3C017FFE0C0F601828156
:102AD000882309F44DC080917C02809303021092F8
:102AE0007C0280918902813009F4ABC0882309F40B
:102AF000A4C0823009F4B2C0843009F4B6C08FE3B8
:102B00009CE90197F1F700C000005801E894B7F87C
:102B10004CE0E42EF12C95010E2C02C03695279541
:102B20000A94E2F72F7087E290E031F0822F90E074
:102B30002A3008F09FC04D960E942D1494E0E91AA7
:102B4000F108ECEFEE16EFEFFE0629F7809189020F
:102B5000813009F495C0882309F48EC0823009F4CD
:102B60008BC0843009F490C08091030280937C0272
:102B7000F6018281882309F4F0C110920402023028
:102B8000FCE51F0708F496C106312CE5120738F062
:102B900098012A5F3C452730310508F08BC10E941F
:102BA000F50A9093A00280939F020F303CE5130733
:102BB00009F461C108F0DBC008309CE5190709F48D
:102BC00044C108F0B0C00430FCE51F0709F431C16E
:102BD00008F096C002303CE5130709F422C1033027
:102BE0001C4509F422C160919F021091A00284E06B
:102BF00090E00E94FC22612F81E290E00E94FC2282
:102C00000E94C50EC3CE81E0FBCE043E9CE51907B1
:102C100091F084E0053EECE51E0709F055CF809366
:102C2000890202C0109289020E945F0C4DCF81E0A0
:102C3000F6CF82E0F4CF83E0F2CF82EE0E94211340
:102C40005ECF83E00E94310788E10E94211388E172
:102C50000E94C41283E00E94260751CF82EE0E9498
:102C6000211387E50E942D144ACF86EE0E942D1471
:102C700088E1F8CF069760CF82EE0E94C41274CF2D
:102C80008CE20E942D1470CF88E2FBCF033FFCE55D
:102C90001F0739F1A0F4083D3CE51307F1F0093DA9
:102CA0008CE5180751F1073D9CE5190709F060CF45
:102CB00026E241EE61EEC6010E94401467CE053F58
:102CC000ECE51E07B1F088F0063F2CE5120709F08D
:102CD0004FCF27E245EE66EEEECF27E245EE65EEFA
:102CE000EACF26E241EE60EEE6CF27E245EE64EE63
:102CF000E2CF26E241EE62EEDECF28E241E0EFCF06
:102D000080919F02806106309CE5190709F447C055
:102D100080919F02886007301C4508F440C0809174
:102D20009F0280623CC00B30FCE51F0709F49BC08A
:102D300068F409303CE5130709F48BC00A301C45E0
:102D400009F051CF80919F028C6029C080919F0231
:102D50008B7F0D309CE5190711F180919F028D7FCB
:102D60000E301C45E0F080919F02877F18C00A3F1B
:102D7000FCE51F0709F461C060F502313CE513076B
:102D800009F481C078F400319CE5190709F477C093
:102D900080919F028F7B01311C4509F024CF8093E5
:102DA0009F0221CF0431FCE51F0709F47AC008F423
:102DB00070C005311C4509F016CF80919F0282FB3F
:102DC000992790F921E0922790FB82F990FB83F9F3
:102DD000E6CF0D3F8CE5180709F449C070F40B3FAE
:102DE000ECE51E0771F18091A0028E7F0C3F1C451F
:102DF00009F0F9CE8093A002F6CE0F3F2CE5120722
:102E000009F44BC060F101151D4509F0ECCE80912D
:102E1000A002982F909591708E7F892B90FB81F95D
:102E2000E9CF80919F028160BACF80919F0282603A
:102E3000B6CF80919F028460B2CF8091A002816062
:102E4000D9CF8091A0028260D5CF80919F0280640B
:102E5000A6CF0E94C50E80919F028068A0CF80916E
:102E6000A0028360C7CF80919F028E7F98CF809110
:102E7000A0028D7FBFCF80919F028F7E90CF8091E7
:102E80009F028F7D8CCF0E94C50E80919F028F770D
:102E900086CF80919F02837F82CF8091A0028C7F1A
:102EA000A9CF0E94C50E90919F02892F97FB87F9A9
:102EB000805875CF0E3D9CE5190709F447C00830CE
:102EC000EDE51E0709F445C00115FCE51F0709F0F3
:102ED00044C00E94C50E2FEF34E38CE021503040F7
:102EE0008040E1F700C00000F89481E08093E000AA
:102EF00080E28093D8001092C900EFE1FEE43197A0
:102F0000F1F700C000001DBA109268001CBC10BE92
:102F10001FBA10927A0010926E0010926F001092F9
:102F20007100109272001092C9001092BC0014B887
:102F300017B81AB81DB810BA1092BC0015B818B856
:102F40001BB81EB811BA0C94003F20CD0E94650C2E
:102F50001DCD81E08093D00219CD06311C4509F4C6
:102F60003FC0F60100811181882309F457C0C801D0
:102F70000E94F809F82E682FC8010E94EE06B801D9
:102F80008F2D0E94CB078C01B82EF601E580E294CC
:102F90003FE0E322F280F11010927B0280917902EF
:102FA000877079F0FF2069F080E2800F883048F068
:102FB00082E00E94820E809179028770AA24A394F5
:102FC0008111A12C912E92942FE09222FBE0F91511
:102FD00008F45EC0E92DF0E0E458FB4D0C94E222C9
:102FE000882391F080917C028A7A91E009F490E044
:102FF00090930502811106C089E20E9491060E9409
:103000002106C4CC85E3F9CF80910502811104C06B
:1030100089E20E946606F3CF85E3FBCFC8010E94D8
:10302000C506F82EACCF212F2F70E22E107F19F09D
:10303000E29490EFE922FF20C9F0EE2069F080E2EF
:10304000800F883010F0B1100BC080917C02E82A0C
:10305000E0927C020E942106802F0E94211318C05A
:1030600080917B02E82AE0927B02F4CF802F0E94BD
:10307000C412EE2069F0E094005E083010F0B11048
:1030800028C080917C02E822E0927C020E94210606
:10309000292D2850330B2430310510F40E947C0771
:1030A000AA2009F473CC8091790280FD6FCCF601DF
:1030B00012828595859585950E949A0EC6010E947B
:1030C000A414809179028595859585950E945F0E5F
:1030D0005DCC80917B02E822E0927B02D7CF312F3A
:1030E0003F70832E107F103219F0829480EF882277
:1030F000802FBB2041F091E0B91631F1FF2079F12A
:10310000EE2041F1A9CFFF2091F090917D02892F0F
:103110008829E11003C00E944607BACFE1E0EE1211
:10312000FACF981709F4B4CF80937D02B1CFE110A4
:1031300006C00E941B06882D0E943B07A9CFF1E024
:10314000EF1609F4A5CFF5CFFF2031F021E02E15C1
:1031500008F49ECF882DDFCFE1109ACFECCFEE2080
:1031600051F3893349F43FEF87EE93E031508040CB
:103170009040E1F700C00000802F0E94C41288CF69
:10318000812F86958695837061F0813009F080CF1C
:10319000C8019370F11002C090E080E00E945007D7
:1031A00077CFC8019370F11002C090E080E00E94D8
:1031B00066076ECFFF2009F1053F99F0063FB9F091
:1031C000043F49F480910602909107028160909338
:1031D000070280930602802F0E943C050E94220E67
:1031E00057CF80910602909107028260F0CF8091C4
:1031F0000602909107028460EACF053F89F0063FFE
:10320000A9F0043F49F480910602909107028E7F55
:103210009093070280930602802F0E947704DECFEE
:1032200080910602909107028D7FF2CF8091060275
:10323000909107028B7FECCF812F837009F066C0DD
:10324000F11026CF802F829586958770880F880F82
:10325000602F6F70462E512C712C612C082E04C0EB
:10326000440C551C661C771C0A94D2F740E050E0D1
:10327000BA0104FF0FC04FE050E060E070E004C00E
:10328000440F551F661F771F8A95D2F740955095BA
:1032900060957095812F869586958370823019F19F
:1032A000D8F400917E0210917F022091800230912B
:1032B0008102813069F04429552966297729CB019B
:1032C000BA0160237123822393230E94BB0EE0CEB8
:1032D000402A512A622A732ACB01BA01642975292E
:1032E00086299729F2CF4429552966297729009103
:1032F0007E0210917F022091800230918102CB01E9
:10330000BA016027712782279327DFCF8695FF2098
:1033100011F0812F8170882309F4BACE802F829515
:1033200086958770880F880F602F6F70462E512CFE
:10333000712C612C082E04C0440C551C661C771C93
:103340000A94D2F740E050E0BA0104FF0FC04FE00A
:1033500050E060E070E004C0440F551F661F771F07
:103360008A95D2F74095509560957095812F8695F6
:1033700086958370823019F1D8F40091CB021091B8
:10338000CC022091CD023091CE02813069F04429E7
:10339000552966297729CB01BA016023712382233D
:1033A00093230E94530E74CE402A512A622A732A14
:1033B000CB01BA016429752986299729F2CF4429BE
:1033C0005529662977290091CB021091CC022091D2
:1033D000CD023091CE02CB01BA016027712782273E
:1033E0009327DFCF1F70FF2029F0812F0E949A0EB4
:1033F000802F91CE802F0E943B07812F0E945F0E6D
:1034000047CE802FE2EFBE1609F44EC0EB1578F0E0
:10341000F0EFBF1619F121EFB21609F43DC0FF20FD
:1034200009F465C0E11018CE812F8F713AC033EFD7
:10343000B31609F43EC094EFB912F1CFFF2009F49E
:103440004BC01F71812F0E949A0EF8E01F9FC00190
:103450001124836080937902812F23C0FF20B9F06B
:10346000E11016CE1F7161E070E080E090E004C0D2
:10347000660F771F881F991F1A95D2F70091CB020C
:103480001091CC022091CD023091CE02A6CFE1E086
:10349000EE1508F4FDCDE6CF812F8F71FF2009F4E2
:1034A000ADCF0E949A0EF4CD812F8F71FF20C9F30A
:1034B000A5CF60E070E0CB01FF2009F472CF1F714F
:1034C00061E070E080E090E004C0660F771F881F25
:1034D000991F1A95D2F765CF81E00E94820E21E0F4
:1034E0002E1508F0D5CD82E00E94820ED1CDE110DC
:1034F00038CE812F8F7182CFE2EFBE16D1F1EB155E
:1035000000F1F0EFBF1649F121EFB216D1F1809131
:103510000802EE2009F441C0882341F0809109029D
:1035200091E089278093090210920802802FF11000
:1035300094CD0E94C41286E0F60111928A95E9F7B3
:10354000A7CD34EFB316C1F0B31688F085EFB812EB
:10355000DECFF1109DCD81E007C0FF2009F498CDAA
:103560008091090291E089278093090291CD81E041
:10357000F826F09209028CCDF1108ACD1092090242
:1035800087CDFF2039F080910802882349F31092FB
:1035900008027ECDEE2021F37BCD882309F478CD7F
:1035A000F11076CD8091090291E08927809309027C
:1035B000EECF85E0DE01119601900D928A95E1F73C
:1035C000F601228189819A812111F6C90E94C506DE
:1035D000082FFAC91F93CF93DF9380910F02807F4A
:1035E000C1F480910C028823A1F080914102C09126
:1035F000100260910A0270910B0240910D025091ED
:103600000E02D62FD723DA01A095B09516E0C81385
:1036100004C0DF91CF911F91089590E041155105AD
:1036200011F0DF3F31F401968770F1CF2A0F3B1F75
:1036300017C0189FF001199FF00D1124EF5EFD4F88
:1036400021812713F0CF20812613EDCF2281211174
:10365000EACF238134812417350740F3241B350B2F
:10366000283C310500F720910F022F702061209334
:103670000F0226E0289FF001299FF00D1124EA5E39
:10368000FD4F80818F70806180838AE092E00E948C
:10369000A414DF91CF911F910C941C07BF92CF927D
:1036A000DF92EF92FF920F931F93CF93DF93CDB7EB
:1036B000DEB761970FB6F894DEBF0FBECDBF8C01A9
:1036C00085E0F801DE011D9601900D928A95E1F7E3
:1036D000D8012C9111963C9111971296EC9012976B
:1036E00080910D0290910E02009709F463C1409100
:1036F0000A0250910B02642F65236F3F09F45AC1EF
:103700001396CD90DC90B0900C02BB2009F413C14D
:10371000C816D906C0F1F601E81BF90BCF01FF244A
:10372000F394883C910508F0F12C80910F02982FBA
:10373000907FFF2009F4C1C091117DC0FE2C53136E
:1037400027C0421325C0E11023C08F708061809391
:103750000F028AE092E00E94A41480910F02D80127
:1037600015968C938F2D61960FB6F894DEBF0FBE21
:10377000CDBFDF91CF911F910F91FF90EF90DF9020
:10378000CF90BF900895809590958C0D9D1DC7CFCB
:10379000CD2829F0822F83238F3F09F035C180E0A7
:1037A000B82FB170DB2E80FF3CC080914102409168
:1037B000100256E0841315C02D873E878D859E85A7
:1037C0000E943A0A292F22952F702230F0F02430DF
:1037D00018F59F70F1F0F8019581907FD1F4D12C0C
:1037E0001EC090E0589FF001599FF00D1124EF5E2C
:1037F000FD4F6181361306C06081261303C06281CC
:10380000E6120FC001968770D5CF9F7011F0882304
:1038100031F3805E883018F3C8010E94A414FD2C97
:10382000A1CFEE2009F49ECF80910F02816080939A
:103830000F02F12C97CF531313C0421311C0E110A4
:103840000FC0D80115968C93C8010E94A41486E07D
:10385000F801AAE0B2E001900D928A95E1F782CFDB
:103860002D873E878D859E850E94440A882309F115
:10387000EE20F9F080910F02803270F020910A0260
:1038800030910B0238872F831986DB86CA868C8796
:10389000CE0107960E94A41486E0F801AAE0B2E0E7
:1038A00001900D928A95E1F70E94EA1AFF24F394A1
:1038B00059CFC8010E94A414F9CF91110CC08AE01D
:1038C00092E00E94A41486E0EAE0F2E0DF011D929B
:1038D0008A95E9F747CF531312C0421310C0E11085
:1038E0000EC0F8018583C8010E94A414EAE0F2E04A
:1038F00086E0DF011D928A95E9F7FB2C33CF2D87F7
:103900003E878D859E850E94440A882391F2EE2091
:1039100081F280910F02803208F4BECF20910A021A
:1039200030910B023A8329831B82DD82CC828E8305
:10393000CE010196AFCFC816D90640F0C81AD90AF1
:10394000B8ECCB16D10448F0F12CBDCF8095909502
:103950008C0D9D1D883C9105B8F7FE2CEE2009F4D6
:10396000A8CF531316C0421314C080910F0280FDDC
:103970006ECF982F907F09F46ACFF8018583903F2E
:1039800009F462CF982F907F905F8F70892B858389
:103990005BCF2D873E878D859E850E94440A8111CD
:1039A0007BCF80910F02816080930F02C8010E943B
:1039B000A414D8CEEE2009F47CCF2D873E878D85C8
:1039C0009E850E94440AF82E882309F472CF86E06F
:1039D000F801AAE0B2E001900D928A95E1F780919A
:1039E0000A0290910B020E943A0A92959F709630BB
:1039F00041F48091090291E0892780930902909314
:103A000008020E94EA1AAECE81E08E25C9CE1F932D
:103A1000CF93DF93CDB7DEB767970FB6F894DEBFCD
:103A20000FBECDBF6D8B7E8B8F8B8E899F89892B2F
:103A3000E1F0852F84238F3F09F098C05FEF4FEFAF
:103A400014C030910902332309F44EC0E42FF0E092
:103A500036E0539FE00DF11D1124EE0FFF1FE15ED4
:103A6000FE4F40815181822B8C931A8A198A4B8B8D
:103A70005C8B85E0FE017396DE011D9601900D9230
:103A80008A95E1F786E0FE013D96DE0117960190EA
:103A90000D928A95E1F7CE0107960E944E1B811187
:103AA00012C086E0FE013796DE01119601900D925C
:103AB0008A95E1F78A859B85892B29F08F819885E6
:103AC00089238F3FC9F516E0809141029091100241
:103AD000891320C067960FB6F894DEBF0FBECDBF26
:103AE000DF91CF911F91089580958223BDCF96E0FD
:103AF000929FD001939FB00D1124AF5EBD4FFE0188
:103B0000319601900D929A95E1F7809310020E94F0
:103B10001C07D9CF819FC00111248F5E9D4F0E9449
:103B20004E1B8823B9F28091410290E00196877084
:103B3000992780934102C8CF2091100230E0C9013B
:103B4000019687709927409141024817190679F626
:103B50000E94C50E109210021092410286E0EAE027
:103B6000F2E0DF011D928A95E9F7ADCF81E090E0A8
:103B7000042E01C0880F0A94EAF7A52FB0E0AB50DD
:103B8000BE4F2C913D8931115CCF322F38235BCF52
:103B90008F929F92AF92BF92CF92DF92EF92FF925D
:103BA0000F931F93CF93DF938091060190910701AC
:103BB000892B91F08091ED018F5F8093ED01811150
:103BC0000BC00E942D0D90E0909307018093060199
:103BD000892B11F40E94E50B01E912E07801C0E0A5
:103BE000912C37E0C32ECC0E8C2F0E94D90C8C2D3B
:103BF0000E94D90C8C2F0E94A40DD7019D917D01AC
:103C0000D12C891729F0FD0131978083DD24D394CD
:103C10008C2D0E94A40DF7019681891709F465C0C7
:103C2000868381E08D29982A0E94DF0ACF5FC73002
:103C3000C1F60E94160E6AEF70E00E94BA22882E2A
:103C4000D091E901DD2309F4A2C01092E901E091CD
:103C50008702F09188027F012EE0E20EF11C40E025
:103C6000CBEF2AEFC22ED12C51915B3F81F0652F13
:103C700070E0282D392F8517D0F1261B370B2E31F8
:103C80003105DCF19F0121503109D901CC93EE15AA
:103C9000FF0551F74093E901911002C0411179C02D
:103CA0001092E801A0918702B09188022091E90169
:103CB000E4EAF2E090E04191E80139918E01431786
:103CC00051F04C914B3FD9F48C93AF0141505109C5
:103CD000EA01388321E01196D2E0E23BFD0759F773
:103CE0002093E9019093E80158C080E09BCFD60172
:103CF000A61BB70B2A0F3B1FC2CF4D2FC8CF91E099
:103D0000EACF9170892B09F459C08091EB01909111
:103D1000EC018130984780F01092D0026091CB0284
:103D20007091CC028091CD029091CE020E947D0ACA
:103D30001092EC011092EB018091EB019091EC015B
:103D400001969093EC018093EB01892DDF91CF9147
:103D50001F910F91FF90EF90DF90CF90BF90AF90A9
:103D60009F908F9008950E94770A2EC0892B69F347
:103D70001092EC011092EB016091CB027091CC0299
:103D80008091CD029091CE020E947D0ADECF9110EB
:103D900087CF9091E801911183CF8091EB019091B1
:103DA000EC012091D002222309F3009709F0A9CF5A
:103DB0000E946E0A0E946B0A0E94680AC091EA0182
:103DC000CC2389F20E946B0A81E0C827C093EA01E4
:103DD0009CCFCDB7DEB7C955D1090FB6F894DEBF79
:103DE0000FBECDBF84B7877F84BF0FB6F894A89568
:103DF00080916000886180936000109260000FBE27
:103E000080E890E00FB6F894809361009093610091
:103E10000FBE85B7806885BF85B7806885BF0E9463
:103E200069020E9436038091E20084608093E20080
:103E300078948091F6028823A1F01091E9001F7018
:103E40009091EC00892F817090FD80E8182B1092E2
:103E5000E9008091E80083FD0E94DA0E1F70109344
:103E6000E90082E084BD93E095BD9AEF97BD809311
:103E70006E000E942D0D90E0909307018093060143
:103E80000E94DF0A0E94EE0AA1E9B2E0F2EBEF2EF7
:103E9000F2E0FF2EE4EAF2E011921D92EE16FF0628
:103EA000D9F78EE090E00E943023809387029093B0
:103EB0008802FC010E962BEF21938E179F07E1F7E6
:103EC00090E080E00E94F6228F3E9E4F11F00E940B
:103ED000650C8CE090E00E94E82290E0B0E0A0E069
:103EE0008093890290938A02A0938B02B0938C02F4
:103EF00089EA8093800089E08093810024982C983F
:103F00003F988AB18F7C8AB96E98479A8BB180634B
:103F10008BB9769A8FE090E00E94F02260938D0238
:103F200070938E0280938F029093900267704FEF90
:103F3000649FB001112475956795759567957727EE
:103F4000709389006093880070938B0060938A005F
:103F500070938D0060938C000E94E50B90E080E0F0
:103F60000E94F6228F3E9E4F11F00E94650C82E067
:103F700090E00E94E8228093BC020E94F50A909390
:103F8000A00280939F0283E090E00E94E822682FC5
:103F900070E090E080E00E94BB0E88E091E090939A
:103FA000A2028093A102DD24DA9493E0292E2EEF61
:103FB000C22E31E4A32EB12CAC0EBD1EF2E0AF0E2A
:103FC000B11C40E1342E52E1452E68E1862E912C41
:103FD00070E4572E8091F602853009F4A1C00E944A
:103FE000C81DADEBB2E0E4EAF2E010E000E0302FF3
:103FF00081912D91281709F4DEC090E07724739405
:104000002827422F472109F4D1C061969FAF6197BD
:1040100062963FAF6297872191E009F490E0639642
:104020009FAF63970E94160E8160782F65969FAFB1
:104030008EAF659761964FAD619762965FAD62975F
:1040400063966FAD639765968FAD65970E94071D68
:10405000F801E354FD4F8081782670828091B90287
:104060009091BA020E94A4059C019091B8029923F4
:1040700019F02431310578F02091B4020091B50295
:104080007090B6021091B7022111BBC0802F872912
:10409000812B09F08BC10E947C079091BB0289178C
:1040A00021F00E947C078093BB028091F60284304D
:1040B00009F090CF8093E9008091E80082FF8ACFD9
:1040C0008091E80090E085FF06C00E948802882366
:1040D00009F4FBC091E08091E8008B778093E800C1
:1040E000992309F477CF898181110DC19091D00274
:1040F000992309F423C11092D00281E08093CF026A
:1041000022961FAE229723961FAE23972496CFAEFA
:10411000249763E0CE018F5B9F4F0E945F045ACFCC
:104120008091F602843009F11092A3020FB6F89440
:10413000A895809260000FBE5092600083B7817F87
:10414000846083BF83B7816083BF7894889583B789
:104150008E7F83BF0FB6F894A89580916000886128
:1041600080936000109260000FBE8091F50288235A
:1041700009F430CF0E942D0D90E0909307018093B9
:1041800006010E94DF0A0E94EE0AE4EAF2E01192C0
:10419000EE16FF06E1F70E94C81DE4EAF2E0819105
:1041A0008111F0C0EE16FF06D1F714CF9F5F770C98
:1041B000963009F026CF0F5F1F4F0E30110509F022
:1041C00016CF6696DFAE66976796DFAE67976896FE
:1041D0001FAE68970E94160E8160782F6A969FAF77
:1041E0008EAF6A9766964FAD669767965FAD679795
:1041F00068966FAD68976A968FAD6A970E94071DA3
:104200002DCF9F3F19F09F5F9093B802121624F4B0
:104210000E9418058093B4028091B40287FF05C004
:104220000E94180581958093B402101624F40E9410
:1042300018058093B5028091B50287FF05C00E94E2
:10424000180581958093B5023091B4023323A1F013
:104250002091B502222381F045EB3403C0011124E3
:10426000992359F19093B40245EB24039001112452
:10427000332339F13093B502171424F40E94F60465
:104280008093B6028091B60287FF05C00E94F604B3
:1042900081958093B602111624F40E94F60480934F
:1042A000B7028091B70287FF05C00E94F60481958E
:1042B0008093B7020E94220EEECE81E08093B4027A
:1042C000D3CF81E08093B502D7CF80E4682E712CE4
:1042D0008E010F5F1F4F8091E80085FD0AC080911D
:1042E000E8008B778093E8000E948802882399F386
:1042F000F1CE8091F100F80181938F01F1E06F1A06
:10430000710849F7E7CE8130C9F422961FAE229793
:1043100084E023968FAF23978CE0E3E1F1E0D501B1
:1043200001900D928A95E1F76096CFAE60976FE0AD
:10433000CE018F5B9F4F0E945F044CCE9091CF02C5
:104340009923D9F0823009F045CE6091CB0270916B
:10435000CC028091CD029091CE020E94CE05229691
:104360001FAE229723962FAE239724968FAF2497C4
:104370002596CFAE259764E0CDCE2296DFAE22976C
:1043800061E0C8CE39BC49BC09B400FEFDCF8091C4
:10439000D8008F7D8093D8008091E0008260809368
:1043A000E0008091E00081FDFCCF14CE9F3F09F03A
:1043B0002ACF3BCF1F921FB61F9211248F939F933A
:1043C000AF93BF938091A302811113C080918202A9
:1043D00090918302A0918402B09185024196A11D23
:1043E000B11D8093820290938302A0938402B093C4
:1043F0008502BF91AF919F918F911F901FBE1F901B
:1044000018951092B9008CE08093B8000895EF924F
:10441000FF920F931F93CF93DF93182FEB0110920E
:10442000BC0084EA8093BC000E94160E7C0180913F
:10443000BC0087FF27C08091B900887F883029F0B1
:104440008091B900887F8031D9F51093BB0084E852
:104450008093BC000E94160E8C018091BC0087FFE7
:1044600024C02091B900287F90E080E02831B1F08D
:1044700081E090E0203411F490E080E09195819506
:1044800091090CC0CF3FDC0791F20E94160E8E19E5
:104490009F098C179D0758F28EEF9FEFDF91CF9108
:1044A0001F910F91FF90EF900895CF3FDC07A9F285
:1044B0000E94160E801B910B8C179D0770F2ECCF9B
:1044C0008FEF9FEFEBCF0F931F93CF93DF93EB0112
:1044D0008093BB0084E88093BC000E94160E8C0180
:1044E0008091BC0087FF11C02091B900287F81E036
:1044F00090E0283211F490E080E091958195910947
:10450000DF91CF911F910F910895CF3FDC0741F3C9
:104510000E94160E801B910B8C179D0708F38EEFDF
:104520009FEFEECF0F931F93CF93DF93EC0184E8BF
:104530008093BC000E94160E8C018091BC0087FF06
:1045400008C08091BB0090E0DF91CF911F910F9147
:104550000895CF3FDC0789F30E94160E801B910B54
:104560008C179D0750F38EEF9FEFEECF84E9809379
:10457000BC000895AA1BBB1B51E107C0AA1FBB1FAB
:10458000A617B70710F0A61BB70B881F991F5A95DF
:10459000A9F780959095BC01CD01089597FB072E52
:1045A00016F4009407D077FD09D00E94BA2207FCC8
:1045B00005D03EF4909581959F4F08957095619533
:1045C0007F4F0895EE0FFF1F0590F491E02D0994A1
:1045D000F999FECF92BD81BDF89A992780B50895CB
:1045E000A6E1B0E044E050E00C942223A8E1B0E062
:1045F00042E050E00C942223262FF999FECF92BD81
:1046000081BDF89A019700B4021639F01FBA20BD97
:104610000FB6F894FA9AF99A0FBE08950396272FC9
:104620000E94FD220E94FC22252F0E94FD22242FA1
:104630000C94FD220196272F0E94FD220C94FC224F
:10464000DC01CB01FC01F999FECF06C0F2BDE1BD52
:10465000F89A319600B40D9241505040B8F7089541
:104660000F931F93CF93DF938230910510F482E074
:1046700090E0E0910203F091030330E020E0B0E02D
:10468000A0E0309799F42115310509F447C0281BA3
:10469000390B24303105C0F58A819B816115710584
:1046A00071F1FB0193838283FE0111C0408151812E
:1046B0000281138148175907F8F04817590799F4F0
:1046C000109761F012960C93129713961C933296E2
:1046D000CF01DF91CF911F910F91089500930203B5
:1046E00010930303F4CF2115310519F04217530736
:1046F00018F49A01BD01EF01DF01F801C2CF9093D8
:10470000030380930203D0CFFE01E20FF31F8193D6
:1047100091932250310939832883DACF2091000305
:1047200030910103232B41F42091020130910301C8
:104730003093010320930003209100013091010187
:104740002115310541F42DB73EB740910401509138
:104750000501241B350B40910003509101034217C2
:10476000530708F0B5CF241B350B2817390708F479
:10477000AFCFBC016E5F7F4F2617370708F4A8CF75
:10478000640F751F7093010360930003FA01819316
:1047900091939ECFCF93DF930097E9F0FC0132977E
:1047A00013821282C0910203D0910303DE0130E034
:1047B00020E02097A1F420813181820F931F209166
:1047C0000003309101032817390709F067C0F093FF
:1047D0000103E0930003DF91CF910895DA01AE1752
:1047E000BF0708F040C012964D915C9113979D0150
:1047F0004115510599F7D9011396FC93EE93129741
:104800004D915D91A40FB51FEA17FB0779F48081E4
:1048100091810296840F951FD90111969C938E93D6
:104820008281938113969C938E931297B0E0A0E0BF
:104830008A819B810097B9F5FE0181919191E80FE2
:10484000F91F80910003909101038E179F0719F6BD
:10485000109761F51092030310920203D0930103A5
:10486000C0930003B8CFB383A28340815181840FEA
:10487000951FA817B90771F44E5F5F4F8D919C91FA
:104880001197480F591F5183408312968D919C9127
:10489000938382832115310509F0ADCFF093030393
:1048A000E093020398CFDE01EC01C2CF13961C9275
:1048B0001E921297D3CFF894FFCF530A530A5C0A83
:1048C0005C0A5E0A5C0A5C0A5C0A530A530A630AC1
:1048D0005C0A5C0A630A980AA40AA90AA20AA70A3F
:1048E000AE0AAC0AF90F21108D1121108D11541050
:1048F00075108D113E114B11131813186F186F1886
:10490000C018DA187C1A48181C19F219011A011A71
:1049100000000403200020005C049F0B740B3E0B7E
:10492000030B01475A6F4C512F6D7A6C396A0000A6
:104930000D010D020D030D040D050D000C010C02FF
:104940000C030C040C050C000B010B020B030B04F5
:104950000B050B000A010A020A030A040A050A00F1
:1049600009010902090309040905090008010802EF
:1049700008030804080508000701070207030704E5
:1049800007050700060106020603060406050600E1
:1049900005010502050305040505050004010402DF
:1049A00004030404040504000301030203030304D5
:1049B00003050300020102020203020402050200D1
:1049C00001010102010301040105010000010002CF
:0849D0000003000400050000D3
:00000001FF
